{
  "transactions": [
    {
      "hash": "0xdf0ffcc3b1ddd132ee218ea84a03970495daa434f52228d3e951f805bff87203",
      "transactionType": "CALL",
      "contractName": null,
      "contractAddress": "0xa0b86991c6218b36c1d19d4a2e9eb0ce3606eb48",
      "function": "approve(address,uint256)",
      "arguments": [
        "0xEfC0E3ff32A6e71D7661062E9F444D919F4b17e4",
        "5000000000"
      ],
      "transaction": {
        "from": "0x6d77dd38770757a1f2e619672651517ebdef8a64",
        "to": "0xa0b86991c6218b36c1d19d4a2e9eb0ce3606eb48",
        "gas": "0x13d76",
        "value": "0x0",
        "input": "0x095ea7b3000000000000000000000000efc0e3ff32a6e71d7661062e9f444d919f4b17e4000000000000000000000000000000000000000000000000000000012a05f200",
        "nonce": "0x2",
        "chainId": "0x291"
      },
      "additionalContracts": [],
      "isFixedGasLimit": false
    },
    {
      "hash": "0xc332b14e66f7e0155f7af6c1536542f5938f254031e11d8840152ce64c2c51d7",
      "transactionType": "CALL",
      "contractName": null,
      "contractAddress": "0xefc0e3ff32a6e71d7661062e9f444d919f4b17e4",
      "function": "buyPolicy(uint8,uint256,uint256,uint256,int256,address,int32,int32)",
      "arguments": [
        "0",
        "90",
        "10000000000",
        "5000000000",
        "1",
        "0x6d77Dd38770757A1F2E619672651517EBdeF8a64",
        "473780",
        "85404"
      ],
      "transaction": {
        "from": "0x6d77dd38770757a1f2e619672651517ebdef8a64",
        "to": "0xefc0e3ff32a6e71d7661062e9f444d919f4b17e4",
        "gas": "0x14b9d2",
        "value": "0x0",
        "input": "0x02872a0b0000000000000000000000000000000000000000000000000000000000000000000000000000000000000000000000000000000000000000000000000000005a00000000000000000000000000000000000000000000000000000002540be400000000000000000000000000000000000000000000000000000000012a05f20000000000000000000000000000000000000000000000000000000000000000010000000000000000000000006d77dd38770757a1f2e619672651517ebdef8a640000000000000000000000000000000000000000000000000000000000073ab40000000000000000000000000000000000000000000000000000000000014d9c",
        "nonce": "0x3",
        "chainId": "0x291"
      },
      "additionalContracts": [],
      "isFixedGasLimit": false
    },
    {
      "hash": "0x8ab9b3740e57843580bf95653343011a7905b5df17223dacad8c620b1c3a603b",
      "transactionType": "CALL",
      "contractName": null,
      "contractAddress": "0xefc0e3ff32a6e71d7661062e9f444d919f4b17e4",
      "function": "setOracle(address)",
      "arguments": [
        "0xe8d4b94F256f9522b30f8795C42e17Fa135C1cbF"
      ],
      "transaction": {
        "from": "0xe8d4b94f256f9522b30f8795c42e17fa135c1cbf",
        "to": "0xefc0e3ff32a6e71d7661062e9f444d919f4b17e4",
        "gas": "0x978f",
        "value": "0x0",
        "input": "0x7adbf973000000000000000000000000e8d4b94f256f9522b30f8795c42e17fa135c1cbf",
        "nonce": "0x19",
        "chainId": "0x291"
      },
      "additionalContracts": [],
      "isFixedGasLimit": false
    },
    {
      "hash": "0x2cce313918935f26b2cb873585b9b2860306dc9ae9586377ba2d8cf8e68de6b4",
      "transactionType": "CALL",
      "contractName": null,
      "contractAddress": "0xefc0e3ff32a6e71d7661062e9f444d919f4b17e4",
      "function": "verifyPolicy(uint256)",
      "arguments": [
        "3"
      ],
      "transaction": {
        "from": "0xe8d4b94f256f9522b30f8795c42e17fa135c1cbf",
        "to": "0xefc0e3ff32a6e71d7661062e9f444d919f4b17e4",
        "gas": "0xffd0",
        "value": "0x0",
        "input": "0x491c93b50000000000000000000000000000000000000000000000000000000000000003",
        "nonce": "0x1a",
        "chainId": "0x291"
      },
      "additionalContracts": [],
      "isFixedGasLimit": false
    },
    {
      "hash": "0xbdf299ece760acd25ee1e868d23d6cf3b48749c7b33720ddff14efba23682dfc",
      "transactionType": "CALL",
      "contractName": null,
      "contractAddress": "0xefc0e3ff32a6e71d7661062e9f444d919f4b17e4",
      "function": "setOracle(address)",
      "arguments": [
        "0xe8d4b94F256f9522b30f8795C42e17Fa135C1cbF"
      ],
      "transaction": {
        "from": "0xe8d4b94f256f9522b30f8795c42e17fa135c1cbf",
        "to": "0xefc0e3ff32a6e71d7661062e9f444d919f4b17e4",
        "gas": "0x978f",
        "value": "0x0",
        "input": "0x7adbf973000000000000000000000000e8d4b94f256f9522b30f8795c42e17fa135c1cbf",
        "nonce": "0x1b",
        "chainId": "0x291"
      },
      "additionalContracts": [],
      "isFixedGasLimit": false
    }
  ],
  "receipts": [
    {
      "status": "0x1",
      "cumulativeGasUsed": "0xd912",
      "logs": [
        {
          "address": "0xa0b86991c6218b36c1d19d4a2e9eb0ce3606eb48",
          "topics": [
            "0x8c5be1e5ebec7d5bd14f71427d1e84f3dd0314c0f7b2291e5b200ac8c7c3b925",
            "0x0000000000000000000000006d77dd38770757a1f2e619672651517ebdef8a64",
            "0x000000000000000000000000efc0e3ff32a6e71d7661062e9f444d919f4b17e4"
          ],
          "data": "0x000000000000000000000000000000000000000000000000000000012a05f200",
          "blockHash": "0xc2b35fe04a36f11f8d968aec231b63db298e77f770248c3a03d407b70fdce7e0",
          "blockNumber": "0x17691a1",
          "transactionHash": "0xdf0ffcc3b1ddd132ee218ea84a03970495daa434f52228d3e951f805bff87203",
          "transactionIndex": "0x0",
          "logIndex": "0x0",
          "removed": false
        }
      ],
      "logsBloom": "0x00000000000000000000000000000000000000000000000000000000000000000000000000000000000000000000000000000000000000010000000000200000000000000000000008000040000000000000000000000000000000000000000100000000000080000000000000000000000000000000000000000020000000000000000000000000000000000000000000000000010000000000000000000000020000000000220000000000000000000000000000000000000000000000000000000000000000000000000000000000000000000000000000000000000000000010000000000000000000000000000000000000000000000000000000000000",
      "type": "0x2",
      "transactionHash": "0xdf0ffcc3b1ddd132ee218ea84a03970495daa434f52228d3e951f805bff87203",
      "transactionIndex": "0x0",
      "blockHash": "0xc2b35fe04a36f11f8d968aec231b63db298e77f770248c3a03d407b70fdce7e0",
      "blockNumber": "0x17691a1",
      "gasUsed": "0xd912",
      "effectiveGasPrice": "0x7a667",
      "blobGasUsed": "0x0",
      "from": "0x6d77dd38770757a1f2e619672651517ebdef8a64",
      "to": "0xa0b86991c6218b36c1d19d4a2e9eb0ce3606eb48",
      "contractAddress": null
    },
    {
      "status": "0x1",
      "cumulativeGasUsed": "0xe2bea",
      "logs": [
        {
          "address": "0x81ed5c67cb96544aee71fd4bdb2035d9aa4cf528",
          "topics": [
            "0xfa35f2d22b9a5eb6bed3254e60910f91291653a71679c8cbb1f00d24551a45c4"
          ],
          "data": "0x000000000000000000000000000000000000000000000000000009184e72a00000000000000000000000000000000000000000000000000000001b48eb57e000",
          "blockHash": "0xa049b39078014539426715858e48f8ac8d2afca95d9a717a290ca1eaaf011928",
          "blockNumber": "0x17691a2",
          "transactionHash": "0xc332b14e66f7e0155f7af6c1536542f5938f254031e11d8840152ce64c2c51d7",
          "transactionIndex": "0x0",
          "logIndex": "0x0",
          "removed": false
        },
        {
          "address": "0xefc0e3ff32a6e71d7661062e9f444d919f4b17e4",
          "topics": [
            "0xa4d1ce28c60b33365177e74c3c0cf5c331d7965df96d388977e2be0b070415b6"
          ],
          "data": "0x000000000000000000000000000000000000000000000000000009184e72a00000000000000000000000000000000000000000000000000000001b48eb57e000",
          "blockHash": "0xa049b39078014539426715858e48f8ac8d2afca95d9a717a290ca1eaaf011928",
          "blockNumber": "0x17691a2",
          "transactionHash": "0xc332b14e66f7e0155f7af6c1536542f5938f254031e11d8840152ce64c2c51d7",
          "transactionIndex": "0x0",
          "logIndex": "0x1",
          "removed": false
        },
        {
          "address": "0xa0b86991c6218b36c1d19d4a2e9eb0ce3606eb48",
          "topics": [
            "0xddf252ad1be2c89b69c2b068fc378daa952ba7f163c4a11628f55a4df523b3ef",
            "0x0000000000000000000000006d77dd38770757a1f2e619672651517ebdef8a64",
            "0x000000000000000000000000efc0e3ff32a6e71d7661062e9f444d919f4b17e4"
          ],
          "data": "0x000000000000000000000000000000000000000000000000000000012a05f200",
          "blockHash": "0xa049b39078014539426715858e48f8ac8d2afca95d9a717a290ca1eaaf011928",
          "blockNumber": "0x17691a2",
          "transactionHash": "0xc332b14e66f7e0155f7af6c1536542f5938f254031e11d8840152ce64c2c51d7",
          "transactionIndex": "0x0",
          "logIndex": "0x2",
          "removed": false
        },
        {
          "address": "0xa0b86991c6218b36c1d19d4a2e9eb0ce3606eb48",
          "topics": [
            "0x8c5be1e5ebec7d5bd14f71427d1e84f3dd0314c0f7b2291e5b200ac8c7c3b925",
            "0x000000000000000000000000efc0e3ff32a6e71d7661062e9f444d919f4b17e4",
            "0x000000000000000000000000e3e1b5a56d11376d27c0eff3256e7299df197d5e"
          ],
          "data": "0x00000000000000000000000000000000000000000000000000000000926b3720",
          "blockHash": "0xa049b39078014539426715858e48f8ac8d2afca95d9a717a290ca1eaaf011928",
          "blockNumber": "0x17691a2",
          "transactionHash": "0xc332b14e66f7e0155f7af6c1536542f5938f254031e11d8840152ce64c2c51d7",
          "transactionIndex": "0x0",
          "logIndex": "0x3",
          "removed": false
        },
        {
          "address": "0xa0b86991c6218b36c1d19d4a2e9eb0ce3606eb48",
          "topics": [
            "0xddf252ad1be2c89b69c2b068fc378daa952ba7f163c4a11628f55a4df523b3ef",
            "0x000000000000000000000000efc0e3ff32a6e71d7661062e9f444d919f4b17e4",
            "0x000000000000000000000000e3e1b5a56d11376d27c0eff3256e7299df197d5e"
          ],
          "data": "0x00000000000000000000000000000000000000000000000000000000926b3720",
          "blockHash": "0xa049b39078014539426715858e48f8ac8d2afca95d9a717a290ca1eaaf011928",
          "blockNumber": "0x17691a2",
          "transactionHash": "0xc332b14e66f7e0155f7af6c1536542f5938f254031e11d8840152ce64c2c51d7",
          "transactionIndex": "0x0",
          "logIndex": "0x4",
          "removed": false
        },
        {
          "address": "0xa0b86991c6218b36c1d19d4a2e9eb0ce3606eb48",
          "topics": [
            "0xddf252ad1be2c89b69c2b068fc378daa952ba7f163c4a11628f55a4df523b3ef",
            "0x000000000000000000000000e3e1b5a56d11376d27c0eff3256e7299df197d5e",
            "0x000000000000000000000000e8d4b94f256f9522b30f8795c42e17fa135c1cbf"
          ],
          "data": "0x0000000000000000000000000000000000000000000000000000000000bb6a84",
          "blockHash": "0xa049b39078014539426715858e48f8ac8d2afca95d9a717a290ca1eaaf011928",
          "blockNumber": "0x17691a2",
          "transactionHash": "0xc332b14e66f7e0155f7af6c1536542f5938f254031e11d8840152ce64c2c51d7",
          "transactionIndex": "0x0",
          "logIndex": "0x5",
          "removed": false
        },
        {
          "address": "0xe3e1b5a56d11376d27c0eff3256e7299df197d5e",
          "topics": [
            "0xddf252ad1be2c89b69c2b068fc378daa952ba7f163c4a11628f55a4df523b3ef",
            "0x0000000000000000000000000000000000000000000000000000000000000000",
            "0x000000000000000000000000efc0e3ff32a6e71d7661062e9f444d919f4b17e4"
          ],
          "data": "0x0000000000000000000000000000000000000000000000000000000091aa5cfa",
          "blockHash": "0xa049b39078014539426715858e48f8ac8d2afca95d9a717a290ca1eaaf011928",
          "blockNumber": "0x17691a2",
          "transactionHash": "0xc332b14e66f7e0155f7af6c1536542f5938f254031e11d8840152ce64c2c51d7",
          "transactionIndex": "0x0",
          "logIndex": "0x6",
          "removed": false
        },
        {
          "address": "0xa0b86991c6218b36c1d19d4a2e9eb0ce3606eb48",
          "topics": [
            "0x8c5be1e5ebec7d5bd14f71427d1e84f3dd0314c0f7b2291e5b200ac8c7c3b925",
            "0x000000000000000000000000e3e1b5a56d11376d27c0eff3256e7299df197d5e",
            "0x00000000000000000000000087870bca3f3fd6335c3f4ce8392d69350b4fa4e2"
          ],
          "data": "0x0000000000000000000000000000000000000000000000000000000065fb0f26",
          "blockHash": "0xa049b39078014539426715858e48f8ac8d2afca95d9a717a290ca1eaaf011928",
          "blockNumber": "0x17691a2",
          "transactionHash": "0xc332b14e66f7e0155f7af6c1536542f5938f254031e11d8840152ce64c2c51d7",
          "transactionIndex": "0x0",
          "logIndex": "0x7",
          "removed": false
        },
        {
          "address": "0x87870bca3f3fd6335c3f4ce8392d69350b4fa4e2",
          "topics": [
            "0x804c9b842b2748a22bb64b345453a3de7ca54a6ca45ce00d415894979e22897a",
            "0x000000000000000000000000a0b86991c6218b36c1d19d4a2e9eb0ce3606eb48"
          ],
          "data": "0x000000000000000000000000000000000000000000104ca163cb6ec29a0b3ae700000000000000000000000000000000000000000000000000000000000000000000000000000000000000000000000000000000001c889f9aa1dca7c463fb20000000000000000000000000000000000000000003c2767541f9b848b0d5e55a000000000000000000000000000000000000000003f120123fe7006f59a57aea",
          "blockHash": "0xa049b39078014539426715858e48f8ac8d2afca95d9a717a290ca1eaaf011928",
          "blockNumber": "0x17691a2",
          "transactionHash": "0xc332b14e66f7e0155f7af6c1536542f5938f254031e11d8840152ce64c2c51d7",
          "transactionIndex": "0x0",
          "logIndex": "0x8",
          "removed": false
        },
        {
          "address": "0xa0b86991c6218b36c1d19d4a2e9eb0ce3606eb48",
          "topics": [
            "0xddf252ad1be2c89b69c2b068fc378daa952ba7f163c4a11628f55a4df523b3ef",
            "0x000000000000000000000000e3e1b5a56d11376d27c0eff3256e7299df197d5e",
            "0x00000000000000000000000098c23e9d8f34fefb1b7bd6a91b7ff122f4e16f5c"
          ],
          "data": "0x0000000000000000000000000000000000000000000000000000000065fb0f26",
          "blockHash": "0xa049b39078014539426715858e48f8ac8d2afca95d9a717a290ca1eaaf011928",
          "blockNumber": "0x17691a2",
          "transactionHash": "0xc332b14e66f7e0155f7af6c1536542f5938f254031e11d8840152ce64c2c51d7",
          "transactionIndex": "0x0",
          "logIndex": "0x9",
          "removed": false
        },
        {
          "address": "0x98c23e9d8f34fefb1b7bd6a91b7ff122f4e16f5c",
          "topics": [
            "0xddf252ad1be2c89b69c2b068fc378daa952ba7f163c4a11628f55a4df523b3ef",
            "0x0000000000000000000000000000000000000000000000000000000000000000",
            "0x000000000000000000000000e3e1b5a56d11376d27c0eff3256e7299df197d5e"
          ],
          "data": "0x0000000000000000000000000000000000000000000000000000000065fb0f69",
          "blockHash": "0xa049b39078014539426715858e48f8ac8d2afca95d9a717a290ca1eaaf011928",
          "blockNumber": "0x17691a2",
          "transactionHash": "0xc332b14e66f7e0155f7af6c1536542f5938f254031e11d8840152ce64c2c51d7",
          "transactionIndex": "0x0",
          "logIndex": "0xa",
          "removed": false
        },
        {
          "address": "0x98c23e9d8f34fefb1b7bd6a91b7ff122f4e16f5c",
          "topics": [
            "0x458f5fa412d0f69b08dd84872b0215675cc67bc1d5b6fd93300a1c3878b86196",
            "0x000000000000000000000000e3e1b5a56d11376d27c0eff3256e7299df197d5e",
            "0x000000000000000000000000e3e1b5a56d11376d27c0eff3256e7299df197d5e"
          ],
          "data": "0x0000000000000000000000000000000000000000000000000000000065fb0f690000000000000000000000000000000000000000000000000000000000000044000000000000000000000000000000000000000003c2767541f9b848b0d5e55a",
          "blockHash": "0xa049b39078014539426715858e48f8ac8d2afca95d9a717a290ca1eaaf011928",
          "blockNumber": "0x17691a2",
          "transactionHash": "0xc332b14e66f7e0155f7af6c1536542f5938f254031e11d8840152ce64c2c51d7",
          "transactionIndex": "0x0",
          "logIndex": "0xb",
          "removed": false
        },
        {
          "address": "0x87870bca3f3fd6335c3f4ce8392d69350b4fa4e2",
          "topics": [
            "0x2b627736bca15cd5381dcf80b0bf11fd197d01a037c52b927a881a10fb73ba61",
            "0x000000000000000000000000a0b86991c6218b36c1d19d4a2e9eb0ce3606eb48",
            "0x000000000000000000000000e3e1b5a56d11376d27c0eff3256e7299df197d5e",
            "0x0000000000000000000000000000000000000000000000000000000000000000"
          ],
          "data": "0x000000000000000000000000e3e1b5a56d11376d27c0eff3256e7299df197d5e0000000000000000000000000000000000000000000000000000000065fb0f26",
          "blockHash": "0xa049b39078014539426715858e48f8ac8d2afca95d9a717a290ca1eaaf011928",
          "blockNumber": "0x17691a2",
          "transactionHash": "0xc332b14e66f7e0155f7af6c1536542f5938f254031e11d8840152ce64c2c51d7",
          "transactionIndex": "0x0",
          "logIndex": "0xc",
          "removed": false
        },
        {
          "address": "0xe3e1b5a56d11376d27c0eff3256e7299df197d5e",
          "topics": [
            "0x5890be1453bd6fc0306cbf75daee9fabf9f9ae0068a41c21470b0e52f7afa1f1"
          ],
          "data": "0x0000000000000000000000000000000000000000000000000000000065fb0f26",
          "blockHash": "0xa049b39078014539426715858e48f8ac8d2afca95d9a717a290ca1eaaf011928",
          "blockNumber": "0x17691a2",
          "transactionHash": "0xc332b14e66f7e0155f7af6c1536542f5938f254031e11d8840152ce64c2c51d7",
          "transactionIndex": "0x0",
          "logIndex": "0xd",
          "removed": false
        },
        {
          "address": "0xe3e1b5a56d11376d27c0eff3256e7299df197d5e",
          "topics": [
            "0xdcbc1c05240f31ff3ad067ef1ee35ce4997762752e3a095284754544f4c709d7",
            "0x000000000000000000000000efc0e3ff32a6e71d7661062e9f444d919f4b17e4",
            "0x000000000000000000000000efc0e3ff32a6e71d7661062e9f444d919f4b17e4"
          ],
          "data": "0x0000000000000000000000000000000000000000000000000000000091afcc9c0000000000000000000000000000000000000000000000000000000091aa5cfa",
          "blockHash": "0xa049b39078014539426715858e48f8ac8d2afca95d9a717a290ca1eaaf011928",
          "blockNumber": "0x17691a2",
          "transactionHash": "0xc332b14e66f7e0155f7af6c1536542f5938f254031e11d8840152ce64c2c51d7",
          "transactionIndex": "0x0",
          "logIndex": "0xe",
          "removed": false
        },
        {
          "address": "0xa0b86991c6218b36c1d19d4a2e9eb0ce3606eb48",
          "topics": [
            "0x8c5be1e5ebec7d5bd14f71427d1e84f3dd0314c0f7b2291e5b200ac8c7c3b925",
            "0x000000000000000000000000efc0e3ff32a6e71d7661062e9f444d919f4b17e4",
            "0x000000000000000000000000016e6e63965988fa71a6d4650d74da245228001a"
          ],
          "data": "0x0000000000000000000000000000000000000000000000000000000088b40860",
          "blockHash": "0xa049b39078014539426715858e48f8ac8d2afca95d9a717a290ca1eaaf011928",
          "blockNumber": "0x17691a2",
          "transactionHash": "0xc332b14e66f7e0155f7af6c1536542f5938f254031e11d8840152ce64c2c51d7",
          "transactionIndex": "0x0",
          "logIndex": "0xf",
          "removed": false
        },
        {
          "address": "0xa0b86991c6218b36c1d19d4a2e9eb0ce3606eb48",
          "topics": [
            "0xddf252ad1be2c89b69c2b068fc378daa952ba7f163c4a11628f55a4df523b3ef",
            "0x000000000000000000000000efc0e3ff32a6e71d7661062e9f444d919f4b17e4",
            "0x000000000000000000000000016e6e63965988fa71a6d4650d74da245228001a"
          ],
          "data": "0x0000000000000000000000000000000000000000000000000000000088b40860",
          "blockHash": "0xa049b39078014539426715858e48f8ac8d2afca95d9a717a290ca1eaaf011928",
          "blockNumber": "0x17691a2",
          "transactionHash": "0xc332b14e66f7e0155f7af6c1536542f5938f254031e11d8840152ce64c2c51d7",
          "transactionIndex": "0x0",
          "logIndex": "0x10",
          "removed": false
        },
        {
          "address": "0xa0b86991c6218b36c1d19d4a2e9eb0ce3606eb48",
          "topics": [
            "0xddf252ad1be2c89b69c2b068fc378daa952ba7f163c4a11628f55a4df523b3ef",
            "0x000000000000000000000000016e6e63965988fa71a6d4650d74da245228001a",
            "0x000000000000000000000000e8d4b94f256f9522b30f8795c42e17fa135c1cbf"
          ],
          "data": "0x0000000000000000000000000000000000000000000000000000000000aefaec",
          "blockHash": "0xa049b39078014539426715858e48f8ac8d2afca95d9a717a290ca1eaaf011928",
          "blockNumber": "0x17691a2",
          "transactionHash": "0xc332b14e66f7e0155f7af6c1536542f5938f254031e11d8840152ce64c2c51d7",
          "transactionIndex": "0x0",
          "logIndex": "0x11",
          "removed": false
        },
        {
          "address": "0x016e6e63965988fa71a6d4650d74da245228001a",
          "topics": [
            "0xddf252ad1be2c89b69c2b068fc378daa952ba7f163c4a11628f55a4df523b3ef",
            "0x0000000000000000000000000000000000000000000000000000000000000000",
            "0x000000000000000000000000efc0e3ff32a6e71d7661062e9f444d919f4b17e4"
          ],
          "data": "0x0000000000000000000000000000000000000000000000000000000087fffa4a",
          "blockHash": "0xa049b39078014539426715858e48f8ac8d2afca95d9a717a290ca1eaaf011928",
          "blockNumber": "0x17691a2",
          "transactionHash": "0xc332b14e66f7e0155f7af6c1536542f5938f254031e11d8840152ce64c2c51d7",
          "transactionIndex": "0x0",
          "logIndex": "0x12",
          "removed": false
        },
        {
          "address": "0xa0b86991c6218b36c1d19d4a2e9eb0ce3606eb48",
          "topics": [
            "0x8c5be1e5ebec7d5bd14f71427d1e84f3dd0314c0f7b2291e5b200ac8c7c3b925",
            "0x000000000000000000000000016e6e63965988fa71a6d4650d74da245228001a",
            "0x00000000000000000000000087870bca3f3fd6335c3f4ce8392d69350b4fa4e2"
          ],
          "data": "0x000000000000000000000000000000000000000000000000000000005f36bc99",
          "blockHash": "0xa049b39078014539426715858e48f8ac8d2afca95d9a717a290ca1eaaf011928",
          "blockNumber": "0x17691a2",
          "transactionHash": "0xc332b14e66f7e0155f7af6c1536542f5938f254031e11d8840152ce64c2c51d7",
          "transactionIndex": "0x0",
          "logIndex": "0x13",
          "removed": false
        },
        {
          "address": "0x87870bca3f3fd6335c3f4ce8392d69350b4fa4e2",
          "topics": [
            "0x804c9b842b2748a22bb64b345453a3de7ca54a6ca45ce00d415894979e22897a",
            "0x000000000000000000000000a0b86991c6218b36c1d19d4a2e9eb0ce3606eb48"
          ],
          "data": "0x000000000000000000000000000000000000000000104ca081347e81905f5d3c00000000000000000000000000000000000000000000000000000000000000000000000000000000000000000000000000000000001c889ed44becf03833ae20000000000000000000000000000000000000000003c2767541f9b848b0d5e55a000000000000000000000000000000000000000003f120123fe7006f59a57aea",
          "blockHash": "0xa049b39078014539426715858e48f8ac8d2afca95d9a717a290ca1eaaf011928",
          "blockNumber": "0x17691a2",
          "transactionHash": "0xc332b14e66f7e0155f7af6c1536542f5938f254031e11d8840152ce64c2c51d7",
          "transactionIndex": "0x0",
          "logIndex": "0x14",
          "removed": false
        },
        {
          "address": "0xa0b86991c6218b36c1d19d4a2e9eb0ce3606eb48",
          "topics": [
            "0xddf252ad1be2c89b69c2b068fc378daa952ba7f163c4a11628f55a4df523b3ef",
            "0x000000000000000000000000016e6e63965988fa71a6d4650d74da245228001a",
            "0x00000000000000000000000098c23e9d8f34fefb1b7bd6a91b7ff122f4e16f5c"
          ],
          "data": "0x000000000000000000000000000000000000000000000000000000005f36bc99",
          "blockHash": "0xa049b39078014539426715858e48f8ac8d2afca95d9a717a290ca1eaaf011928",
          "blockNumber": "0x17691a2",
          "transactionHash": "0xc332b14e66f7e0155f7af6c1536542f5938f254031e11d8840152ce64c2c51d7",
          "transactionIndex": "0x0",
          "logIndex": "0x15",
          "removed": false
        },
        {
          "address": "0x98c23e9d8f34fefb1b7bd6a91b7ff122f4e16f5c",
          "topics": [
            "0xddf252ad1be2c89b69c2b068fc378daa952ba7f163c4a11628f55a4df523b3ef",
            "0x0000000000000000000000000000000000000000000000000000000000000000",
            "0x000000000000000000000000016e6e63965988fa71a6d4650d74da245228001a"
          ],
          "data": "0x000000000000000000000000000000000000000000000000000000005f36bcad",
          "blockHash": "0xa049b39078014539426715858e48f8ac8d2afca95d9a717a290ca1eaaf011928",
          "blockNumber": "0x17691a2",
          "transactionHash": "0xc332b14e66f7e0155f7af6c1536542f5938f254031e11d8840152ce64c2c51d7",
          "transactionIndex": "0x0",
          "logIndex": "0x16",
          "removed": false
        },
        {
          "address": "0x98c23e9d8f34fefb1b7bd6a91b7ff122f4e16f5c",
          "topics": [
            "0x458f5fa412d0f69b08dd84872b0215675cc67bc1d5b6fd93300a1c3878b86196",
            "0x000000000000000000000000016e6e63965988fa71a6d4650d74da245228001a",
            "0x000000000000000000000000016e6e63965988fa71a6d4650d74da245228001a"
          ],
          "data": "0x000000000000000000000000000000000000000000000000000000005f36bcad0000000000000000000000000000000000000000000000000000000000000014000000000000000000000000000000000000000003c2767541f9b848b0d5e55a",
          "blockHash": "0xa049b39078014539426715858e48f8ac8d2afca95d9a717a290ca1eaaf011928",
          "blockNumber": "0x17691a2",
          "transactionHash": "0xc332b14e66f7e0155f7af6c1536542f5938f254031e11d8840152ce64c2c51d7",
          "transactionIndex": "0x0",
          "logIndex": "0x17",
          "removed": false
        },
        {
          "address": "0x87870bca3f3fd6335c3f4ce8392d69350b4fa4e2",
          "topics": [
            "0x2b627736bca15cd5381dcf80b0bf11fd197d01a037c52b927a881a10fb73ba61",
            "0x000000000000000000000000a0b86991c6218b36c1d19d4a2e9eb0ce3606eb48",
            "0x000000000000000000000000016e6e63965988fa71a6d4650d74da245228001a",
            "0x0000000000000000000000000000000000000000000000000000000000000000"
          ],
          "data": "0x000000000000000000000000016e6e63965988fa71a6d4650d74da245228001a000000000000000000000000000000000000000000000000000000005f36bc99",
          "blockHash": "0xa049b39078014539426715858e48f8ac8d2afca95d9a717a290ca1eaaf011928",
          "blockNumber": "0x17691a2",
          "transactionHash": "0xc332b14e66f7e0155f7af6c1536542f5938f254031e11d8840152ce64c2c51d7",
          "transactionIndex": "0x0",
          "logIndex": "0x18",
          "removed": false
        },
        {
          "address": "0x016e6e63965988fa71a6d4650d74da245228001a",
          "topics": [
            "0x5890be1453bd6fc0306cbf75daee9fabf9f9ae0068a41c21470b0e52f7afa1f1"
          ],
          "data": "0x000000000000000000000000000000000000000000000000000000005f36bc99",
          "blockHash": "0xa049b39078014539426715858e48f8ac8d2afca95d9a717a290ca1eaaf011928",
          "blockNumber": "0x17691a2",
          "transactionHash": "0xc332b14e66f7e0155f7af6c1536542f5938f254031e11d8840152ce64c2c51d7",
          "transactionIndex": "0x0",
          "logIndex": "0x19",
          "removed": false
        },
        {
          "address": "0x016e6e63965988fa71a6d4650d74da245228001a",
          "topics": [
            "0xdcbc1c05240f31ff3ad067ef1ee35ce4997762752e3a095284754544f4c709d7",
            "0x000000000000000000000000efc0e3ff32a6e71d7661062e9f444d919f4b17e4",
            "0x000000000000000000000000efc0e3ff32a6e71d7661062e9f444d919f4b17e4"
          ],
          "data": "0x0000000000000000000000000000000000000000000000000000000088050d740000000000000000000000000000000000000000000000000000000087fffa4a",
          "blockHash": "0xa049b39078014539426715858e48f8ac8d2afca95d9a717a290ca1eaaf011928",
          "blockNumber": "0x17691a2",
          "transactionHash": "0xc332b14e66f7e0155f7af6c1536542f5938f254031e11d8840152ce64c2c51d7",
          "transactionIndex": "0x0",
          "logIndex": "0x1a",
          "removed": false
        },
        {
          "address": "0xa0b86991c6218b36c1d19d4a2e9eb0ce3606eb48",
          "topics": [
            "0x8c5be1e5ebec7d5bd14f71427d1e84f3dd0314c0f7b2291e5b200ac8c7c3b925",
            "0x000000000000000000000000efc0e3ff32a6e71d7661062e9f444d919f4b17e4",
            "0x0000000000000000000000008c20b0469fdbce27bdf894425115e07096c0ea9f"
          ],
          "data": "0x000000000000000000000000000000000000000000000000000000000ee6b280",
          "blockHash": "0xa049b39078014539426715858e48f8ac8d2afca95d9a717a290ca1eaaf011928",
          "blockNumber": "0x17691a2",
          "transactionHash": "0xc332b14e66f7e0155f7af6c1536542f5938f254031e11d8840152ce64c2c51d7",
          "transactionIndex": "0x0",
          "logIndex": "0x1b",
          "removed": false
        },
        {
          "address": "0xa0b86991c6218b36c1d19d4a2e9eb0ce3606eb48",
          "topics": [
            "0xddf252ad1be2c89b69c2b068fc378daa952ba7f163c4a11628f55a4df523b3ef",
            "0x000000000000000000000000efc0e3ff32a6e71d7661062e9f444d919f4b17e4",
            "0x0000000000000000000000008c20b0469fdbce27bdf894425115e07096c0ea9f"
          ],
          "data": "0x000000000000000000000000000000000000000000000000000000000ee6b280",
          "blockHash": "0xa049b39078014539426715858e48f8ac8d2afca95d9a717a290ca1eaaf011928",
          "blockNumber": "0x17691a2",
          "transactionHash": "0xc332b14e66f7e0155f7af6c1536542f5938f254031e11d8840152ce64c2c51d7",
          "transactionIndex": "0x0",
          "logIndex": "0x1c",
          "removed": false
        },
        {
          "address": "0xa0b86991c6218b36c1d19d4a2e9eb0ce3606eb48",
          "topics": [
            "0xddf252ad1be2c89b69c2b068fc378daa952ba7f163c4a11628f55a4df523b3ef",
            "0x0000000000000000000000008c20b0469fdbce27bdf894425115e07096c0ea9f",
            "0x000000000000000000000000e8d4b94f256f9522b30f8795c42e17fa135c1cbf"
          ],
          "data": "0x00000000000000000000000000000000000000000000000000000000001312d0",
          "blockHash": "0xa049b39078014539426715858e48f8ac8d2afca95d9a717a290ca1eaaf011928",
          "blockNumber": "0x17691a2",
          "transactionHash": "0xc332b14e66f7e0155f7af6c1536542f5938f254031e11d8840152ce64c2c51d7",
          "transactionIndex": "0x0",
          "logIndex": "0x1d",
          "removed": false
        },
        {
          "address": "0x8c20b0469fdbce27bdf894425115e07096c0ea9f",
          "topics": [
            "0xddf252ad1be2c89b69c2b068fc378daa952ba7f163c4a11628f55a4df523b3ef",
            "0x0000000000000000000000000000000000000000000000000000000000000000",
            "0x000000000000000000000000efc0e3ff32a6e71d7661062e9f444d919f4b17e4"
          ],
          "data": "0x000000000000000000000000000000000000000000000000000000000ed31213",
          "blockHash": "0xa049b39078014539426715858e48f8ac8d2afca95d9a717a290ca1eaaf011928",
          "blockNumber": "0x17691a2",
          "transactionHash": "0xc332b14e66f7e0155f7af6c1536542f5938f254031e11d8840152ce64c2c51d7",
          "transactionIndex": "0x0",
          "logIndex": "0x1e",
          "removed": false
        },
        {
          "address": "0xa0b86991c6218b36c1d19d4a2e9eb0ce3606eb48",
          "topics": [
            "0x8c5be1e5ebec7d5bd14f71427d1e84f3dd0314c0f7b2291e5b200ac8c7c3b925",
            "0x0000000000000000000000008c20b0469fdbce27bdf894425115e07096c0ea9f",
            "0x00000000000000000000000087870bca3f3fd6335c3f4ce8392d69350b4fa4e2"
          ],
          "data": "0x000000000000000000000000000000000000000000000000000000000a60efc6",
          "blockHash": "0xa049b39078014539426715858e48f8ac8d2afca95d9a717a290ca1eaaf011928",
          "blockNumber": "0x17691a2",
          "transactionHash": "0xc332b14e66f7e0155f7af6c1536542f5938f254031e11d8840152ce64c2c51d7",
          "transactionIndex": "0x0",
          "logIndex": "0x1f",
          "removed": false
        },
        {
          "address": "0x87870bca3f3fd6335c3f4ce8392d69350b4fa4e2",
          "topics": [
            "0x804c9b842b2748a22bb64b345453a3de7ca54a6ca45ce00d415894979e22897a",
            "0x000000000000000000000000a0b86991c6218b36c1d19d4a2e9eb0ce3606eb48"
          ],
          "data": "0x000000000000000000000000000000000000000000104ca0688186fd075b0f2b00000000000000000000000000000000000000000000000000000000000000000000000000000000000000000000000000000000001c889ebead6181e12b9d66000000000000000000000000000000000000000003c2767541f9b848b0d5e55a000000000000000000000000000000000000000003f120123fe7006f59a57aea",
          "blockHash": "0xa049b39078014539426715858e48f8ac8d2afca95d9a717a290ca1eaaf011928",
          "blockNumber": "0x17691a2",
          "transactionHash": "0xc332b14e66f7e0155f7af6c1536542f5938f254031e11d8840152ce64c2c51d7",
          "transactionIndex": "0x0",
          "logIndex": "0x20",
          "removed": false
        },
        {
          "address": "0xa0b86991c6218b36c1d19d4a2e9eb0ce3606eb48",
          "topics": [
            "0xddf252ad1be2c89b69c2b068fc378daa952ba7f163c4a11628f55a4df523b3ef",
            "0x0000000000000000000000008c20b0469fdbce27bdf894425115e07096c0ea9f",
            "0x00000000000000000000000098c23e9d8f34fefb1b7bd6a91b7ff122f4e16f5c"
          ],
          "data": "0x000000000000000000000000000000000000000000000000000000000a60efc6",
          "blockHash": "0xa049b39078014539426715858e48f8ac8d2afca95d9a717a290ca1eaaf011928",
          "blockNumber": "0x17691a2",
          "transactionHash": "0xc332b14e66f7e0155f7af6c1536542f5938f254031e11d8840152ce64c2c51d7",
          "transactionIndex": "0x0",
          "logIndex": "0x21",
          "removed": false
        },
        {
          "address": "0x98c23e9d8f34fefb1b7bd6a91b7ff122f4e16f5c",
          "topics": [
            "0xddf252ad1be2c89b69c2b068fc378daa952ba7f163c4a11628f55a4df523b3ef",
            "0x0000000000000000000000000000000000000000000000000000000000000000",
            "0x0000000000000000000000008c20b0469fdbce27bdf894425115e07096c0ea9f"
          ],
          "data": "0x000000000000000000000000000000000000000000000000000000000a60efcb",
          "blockHash": "0xa049b39078014539426715858e48f8ac8d2afca95d9a717a290ca1eaaf011928",
          "blockNumber": "0x17691a2",
          "transactionHash": "0xc332b14e66f7e0155f7af6c1536542f5938f254031e11d8840152ce64c2c51d7",
          "transactionIndex": "0x0",
          "logIndex": "0x22",
          "removed": false
        },
        {
          "address": "0x98c23e9d8f34fefb1b7bd6a91b7ff122f4e16f5c",
          "topics": [
            "0x458f5fa412d0f69b08dd84872b0215675cc67bc1d5b6fd93300a1c3878b86196",
            "0x0000000000000000000000008c20b0469fdbce27bdf894425115e07096c0ea9f",
            "0x0000000000000000000000008c20b0469fdbce27bdf894425115e07096c0ea9f"
          ],
          "data": "0x000000000000000000000000000000000000000000000000000000000a60efcb0000000000000000000000000000000000000000000000000000000000000005000000000000000000000000000000000000000003c2767541f9b848b0d5e55a",
          "blockHash": "0xa049b39078014539426715858e48f8ac8d2afca95d9a717a290ca1eaaf011928",
          "blockNumber": "0x17691a2",
          "transactionHash": "0xc332b14e66f7e0155f7af6c1536542f5938f254031e11d8840152ce64c2c51d7",
          "transactionIndex": "0x0",
          "logIndex": "0x23",
          "removed": false
        },
        {
          "address": "0x87870bca3f3fd6335c3f4ce8392d69350b4fa4e2",
          "topics": [
            "0x2b627736bca15cd5381dcf80b0bf11fd197d01a037c52b927a881a10fb73ba61",
            "0x000000000000000000000000a0b86991c6218b36c1d19d4a2e9eb0ce3606eb48",
            "0x0000000000000000000000008c20b0469fdbce27bdf894425115e07096c0ea9f",
            "0x0000000000000000000000000000000000000000000000000000000000000000"
          ],
          "data": "0x0000000000000000000000008c20b0469fdbce27bdf894425115e07096c0ea9f000000000000000000000000000000000000000000000000000000000a60efc6",
          "blockHash": "0xa049b39078014539426715858e48f8ac8d2afca95d9a717a290ca1eaaf011928",
          "blockNumber": "0x17691a2",
          "transactionHash": "0xc332b14e66f7e0155f7af6c1536542f5938f254031e11d8840152ce64c2c51d7",
          "transactionIndex": "0x0",
          "logIndex": "0x24",
          "removed": false
        },
        {
          "address": "0x8c20b0469fdbce27bdf894425115e07096c0ea9f",
          "topics": [
            "0x5890be1453bd6fc0306cbf75daee9fabf9f9ae0068a41c21470b0e52f7afa1f1"
          ],
          "data": "0x000000000000000000000000000000000000000000000000000000000a60efc6",
          "blockHash": "0xa049b39078014539426715858e48f8ac8d2afca95d9a717a290ca1eaaf011928",
          "blockNumber": "0x17691a2",
          "transactionHash": "0xc332b14e66f7e0155f7af6c1536542f5938f254031e11d8840152ce64c2c51d7",
          "transactionIndex": "0x0",
          "logIndex": "0x25",
          "removed": false
        },
        {
          "address": "0x8c20b0469fdbce27bdf894425115e07096c0ea9f",
          "topics": [
            "0xdcbc1c05240f31ff3ad067ef1ee35ce4997762752e3a095284754544f4c709d7",
            "0x000000000000000000000000efc0e3ff32a6e71d7661062e9f444d919f4b17e4",
            "0x000000000000000000000000efc0e3ff32a6e71d7661062e9f444d919f4b17e4"
          ],
          "data": "0x000000000000000000000000000000000000000000000000000000000ed39fb0000000000000000000000000000000000000000000000000000000000ed31213",
          "blockHash": "0xa049b39078014539426715858e48f8ac8d2afca95d9a717a290ca1eaaf011928",
          "blockNumber": "0x17691a2",
          "transactionHash": "0xc332b14e66f7e0155f7af6c1536542f5938f254031e11d8840152ce64c2c51d7",
          "transactionIndex": "0x0",
          "logIndex": "0x26",
          "removed": false
        },
        {
          "address": "0xefc0e3ff32a6e71d7661062e9f444d919f4b17e4",
          "topics": [
            "0x2a44964c8afdbc44ee967df7d69c366f67de041c8259b7ad366a7fa5f8db15b9",
            "0x0000000000000000000000000000000000000000000000000000000000000003"
          ],
          "data": "0x00000000000000000000000000000000000000000000000000000000926b37200000000000000000000000000000000000000000000000000000000088b40860000000000000000000000000000000000000000000000000000000000ee6b280",
          "blockHash": "0xa049b39078014539426715858e48f8ac8d2afca95d9a717a290ca1eaaf011928",
          "blockNumber": "0x17691a2",
          "transactionHash": "0xc332b14e66f7e0155f7af6c1536542f5938f254031e11d8840152ce64c2c51d7",
          "transactionIndex": "0x0",
          "logIndex": "0x27",
          "removed": false
        },
        {
          "address": "0xefc0e3ff32a6e71d7661062e9f444d919f4b17e4",
          "topics": [
            "0xc3d58168c5ae7397731d063d5bbf3d657854427343f4c083240f7aacaa2d0f62",
            "0x0000000000000000000000006d77dd38770757a1f2e619672651517ebdef8a64",
            "0x0000000000000000000000000000000000000000000000000000000000000000",
            "0x0000000000000000000000006d77dd38770757a1f2e619672651517ebdef8a64"
          ],
          "data": "0x00000000000000000000000000000000000000000000000000000000000000030000000000000000000000000000000000000000000000000000000000000001",
          "blockHash": "0xa049b39078014539426715858e48f8ac8d2afca95d9a717a290ca1eaaf011928",
          "blockNumber": "0x17691a2",
          "transactionHash": "0xc332b14e66f7e0155f7af6c1536542f5938f254031e11d8840152ce64c2c51d7",
          "transactionIndex": "0x0",
          "logIndex": "0x28",
          "removed": false
        },
        {
          "address": "0xefc0e3ff32a6e71d7661062e9f444d919f4b17e4",
          "topics": [
            "0x393e0c476c3e5d1d58faaf4d28cefa3301a7ea7ac175efa1b0b3447391478154",
            "0x0000000000000000000000000000000000000000000000000000000000000003",
            "0x0000000000000000000000006d77dd38770757a1f2e619672651517ebdef8a64"
          ],
          "data": "0x00000000000000000000000000000000000000000000000000000000000000000000000000000000000000000000000000000000000000000000000069a68cb3000000000000000000000000000000000000000000000000000000006a1d33b300000000000000000000000000000000000000000000000000000002540be40000000000000000000000000000000000000000000000000000000000000000010000000000000000000000000000000000000000000000000000000000073ab40000000000000000000000000000000000000000000000000000000000014d9c",
          "blockHash": "0xa049b39078014539426715858e48f8ac8d2afca95d9a717a290ca1eaaf011928",
          "blockNumber": "0x17691a2",
          "transactionHash": "0xc332b14e66f7e0155f7af6c1536542f5938f254031e11d8840152ce64c2c51d7",
          "transactionIndex": "0x0",
          "logIndex": "0x29",
          "removed": false
        }
      ],
      "logsBloom": "0x0000002000000000000000000000080000001000000005020000004000000002000000100000000000000200002402000000000002800001004000008020200000080040000000100800004a0008000001000020000000000810004400000003100000000200800000000080010008000000000040040080000000300001000a000000000020000000000000000000020404000001000000000000000000000802000000000022200000000000000000000008000081200000000000000041000200000200004020000400204000000000000000000c000000000000002121000010000000404002000000000001000044000000000000000000480000000000",
      "type": "0x2",
      "transactionHash": "0xc332b14e66f7e0155f7af6c1536542f5938f254031e11d8840152ce64c2c51d7",
      "transactionIndex": "0x0",
      "blockHash": "0xa049b39078014539426715858e48f8ac8d2afca95d9a717a290ca1eaaf011928",
      "blockNumber": "0x17691a2",
      "gasUsed": "0xe2bea",
      "effectiveGasPrice": "0x7a667",
      "blobGasUsed": "0x0",
      "from": "0x6d77dd38770757a1f2e619672651517ebdef8a64",
      "to": "0xefc0e3ff32a6e71d7661062e9f444d919f4b17e4",
      "contractAddress": null
    },
    {
      "status": "0x1",
      "cumulativeGasUsed": "0x67a2",
      "logs": [],
      "logsBloom": "0x00000000000000000000000000000000000000000000000000000000000000000000000000000000000000000000000000000000000000000000000000000000000000000000000000000000000000000000000000000000000000000000000000000000000000000000000000000000000000000000000000000000000000000000000000000000000000000000000000000000000000000000000000000000000000000000000000000000000000000000000000000000000000000000000000000000000000000000000000000000000000000000000000000000000000000000000000000000000000000000000000000000000000000000000000000000",
      "type": "0x2",
      "transactionHash": "0x8ab9b3740e57843580bf95653343011a7905b5df17223dacad8c620b1c3a603b",
      "transactionIndex": "0x0",
      "blockHash": "0xa67ce00a4c685b9b7a406b3523220c0ac8d8409fb68ac202b2d124170759b5ee",
      "blockNumber": "0x17691a3",
      "gasUsed": "0x67a2",
      "effectiveGasPrice": "0x7a667",
      "blobGasUsed": "0x0",
      "from": "0xe8d4b94f256f9522b30f8795c42e17fa135c1cbf",
      "to": "0xefc0e3ff32a6e71d7661062e9f444d919f4b17e4",
      "contractAddress": null
    },
    {
      "status": "0x1",
      "cumulativeGasUsed": "0xb935",
      "logs": [
        {
          "address": "0xefc0e3ff32a6e71d7661062e9f444d919f4b17e4",
          "topics": [
            "0xba7a5d1ac91a072787dcc39a888e0c9a60834a463ae9c7c4e6ba20742af4b5e4",
            "0x0000000000000000000000000000000000000000000000000000000000000003"
          ],
          "data": "0x",
          "blockHash": "0xa2e8cc840b1bee6b3db226c7846fc7bca7e5246b8a23f60d5d0a6f852e20d921",
          "blockNumber": "0x17691a4",
          "transactionHash": "0x2cce313918935f26b2cb873585b9b2860306dc9ae9586377ba2d8cf8e68de6b4",
          "transactionIndex": "0x0",
          "logIndex": "0x0",
          "removed": false
        }
      ],
      "logsBloom": "0x00100000000000000000000000000000000000000000010000000000000000000000000000000000000000000000000000000000020000000000000000000000000000000000000000000000000000000000000000000000001000400000000000000000000000000000000000000000000000000000000000000000000000000000000000000000000000000000000000000000000000000000000000000000000000000040000000000000000000000000000000800000000000000000400000000000000000000000000000000000000000000000000000000000020000000000000000000000000000000000000000000000000000000000000000000000",
      "type": "0x2",
      "transactionHash": "0x2cce313918935f26b2cb873585b9b2860306dc9ae9586377ba2d8cf8e68de6b4",
      "transactionIndex": "0x0",
      "blockHash": "0xa2e8cc840b1bee6b3db226c7846fc7bca7e5246b8a23f60d5d0a6f852e20d921",
      "blockNumber": "0x17691a4",
      "gasUsed": "0xb935",
      "effectiveGasPrice": "0x7a667",
      "blobGasUsed": "0x0",
      "from": "0xe8d4b94f256f9522b30f8795c42e17fa135c1cbf",
      "to": "0xefc0e3ff32a6e71d7661062e9f444d919f4b17e4",
      "contractAddress": null
    },
    {
      "status": "0x1",
      "cumulativeGasUsed": "0x67a2",
      "logs": [],
      "logsBloom": "0x00000000000000000000000000000000000000000000000000000000000000000000000000000000000000000000000000000000000000000000000000000000000000000000000000000000000000000000000000000000000000000000000000000000000000000000000000000000000000000000000000000000000000000000000000000000000000000000000000000000000000000000000000000000000000000000000000000000000000000000000000000000000000000000000000000000000000000000000000000000000000000000000000000000000000000000000000000000000000000000000000000000000000000000000000000000",
      "type": "0x2",
      "transactionHash": "0xbdf299ece760acd25ee1e868d23d6cf3b48749c7b33720ddff14efba23682dfc",
      "transactionIndex": "0x0",
      "blockHash": "0x537f55a7b79913c09b31ed011b5f511ff65ec3e547bab81ff45f19710f2025d9",
      "blockNumber": "0x17691a5",
      "gasUsed": "0x67a2",
      "effectiveGasPrice": "0x7a667",
      "blobGasUsed": "0x0",
      "from": "0xe8d4b94f256f9522b30f8795c42e17fa135c1cbf",
      "to": "0xefc0e3ff32a6e71d7661062e9f444d919f4b17e4",
      "contractAddress": null
    }
  ],
  "libraries": [],
  "pending": [],
  "returns": {},
  "timestamp": 1772522680,
  "chain": 657,
  "commit": "31f25f4"
}