{
  "transactions": [
    {
      "hash": "0xc3a63f5a89ace86a3fa883614acddfc67c0bdba3bbc8b250e61c83cf362001eb",
      "transactionType": "CALL",
      "contractName": null,
      "contractAddress": "0xa0b86991c6218b36c1d19d4a2e9eb0ce3606eb48",
      "function": "approve(address,uint256)",
      "arguments": [
        "0x4b0aF97a249Dbf50203C7Cadb8Ee628DC767F09f",
        "50000000"
      ],
      "transaction": {
        "from": "0x6d77dd38770757a1f2e619672651517ebdef8a64",
        "to": "0xa0b86991c6218b36c1d19d4a2e9eb0ce3606eb48",
        "gas": "0x13d76",
        "value": "0x0",
        "input": "0x095ea7b30000000000000000000000004b0af97a249dbf50203c7cadb8ee628dc767f09f0000000000000000000000000000000000000000000000000000000002faf080",
        "nonce": "0x2",
        "chainId": "0x291"
      },
      "additionalContracts": [],
      "isFixedGasLimit": false
    },
    {
      "hash": "0x6c4392e5154bea31605e917a08f2becc97e666da6929d630fd3a521685bd769e",
      "transactionType": "CALL",
      "contractName": null,
      "contractAddress": "0x4b0af97a249dbf50203c7cadb8ee628dc767f09f",
      "function": "buyPolicy(uint8,uint256,uint256,uint256,uint256,address,int32,int32)",
      "arguments": [
        "0",
        "30",
        "1000000000",
        "50000000",
        "35",
        "0x6d77Dd38770757A1F2E619672651517EBdeF8a64",
        "395157",
        "-1194713"
      ],
      "transaction": {
        "from": "0x6d77dd38770757a1f2e619672651517ebdef8a64",
        "to": "0x4b0af97a249dbf50203c7cadb8ee628dc767f09f",
        "gas": "0x85a00",
        "value": "0x0",
        "input": "0xb26a38ae0000000000000000000000000000000000000000000000000000000000000000000000000000000000000000000000000000000000000000000000000000001e000000000000000000000000000000000000000000000000000000003b9aca000000000000000000000000000000000000000000000000000000000002faf08000000000000000000000000000000000000000000000000000000000000000230000000000000000000000006d77dd38770757a1f2e619672651517ebdef8a640000000000000000000000000000000000000000000000000000000000060795ffffffffffffffffffffffffffffffffffffffffffffffffffffffffffedc527",
        "nonce": "0x3",
        "chainId": "0x291"
      },
      "additionalContracts": [],
      "isFixedGasLimit": false
    }
  ],
  "receipts": [
    {
      "status": "0x1",
      "cumulativeGasUsed": "0xd912",
      "logs": [
        {
          "address": "0xa0b86991c6218b36c1d19d4a2e9eb0ce3606eb48",
          "topics": [
            "0x8c5be1e5ebec7d5bd14f71427d1e84f3dd0314c0f7b2291e5b200ac8c7c3b925",
            "0x0000000000000000000000006d77dd38770757a1f2e619672651517ebdef8a64",
            "0x0000000000000000000000004b0af97a249dbf50203c7cadb8ee628dc767f09f"
          ],
          "data": "0x0000000000000000000000000000000000000000000000000000000002faf080",
          "blockHash": "0xc1325204e2978407f54421d593ee3036436940d0b4f5d06c9348b107c5a927e9",
          "blockNumber": "0x175212d",
          "transactionHash": "0xc3a63f5a89ace86a3fa883614acddfc67c0bdba3bbc8b250e61c83cf362001eb",
          "transactionIndex": "0x0",
          "logIndex": "0x0",
          "removed": false
        }
      ],
      "logsBloom": "0x00000000000000000000000000000000000000000000000000000000080000000000000000000000000000000000000000000000000000010004100000200000000000000000000008000040000000000000000000000000000000000000000100000000000000000000000000000000000000000000000000000000000000000000000000000000000000000000000000000000010000000000000000000000020000000000200000000000000000000000000000000000000000000000000000000000000000000000000000000000000000000000000000000000000000000010000000000000000000000000000000000000000000000000000000000000",
      "type": "0x2",
      "transactionHash": "0xc3a63f5a89ace86a3fa883614acddfc67c0bdba3bbc8b250e61c83cf362001eb",
      "transactionIndex": "0x0",
      "blockHash": "0xc1325204e2978407f54421d593ee3036436940d0b4f5d06c9348b107c5a927e9",
      "blockNumber": "0x175212d",
      "gasUsed": "0xd912",
      "effectiveGasPrice": "0x430509",
      "blobGasUsed": "0x0",
      "from": "0x6d77dd38770757a1f2e619672651517ebdef8a64",
      "to": "0xa0b86991c6218b36c1d19d4a2e9eb0ce3606eb48",
      "contractAddress": null
    },
    {
      "status": "0x1",
      "cumulativeGasUsed": "0x60be0",
      "logs": [
        {
          "address": "0xa0b86991c6218b36c1d19d4a2e9eb0ce3606eb48",
          "topics": [
            "0xddf252ad1be2c89b69c2b068fc378daa952ba7f163c4a11628f55a4df523b3ef",
            "0x0000000000000000000000006d77dd38770757a1f2e619672651517ebdef8a64",
            "0x0000000000000000000000004b0af97a249dbf50203c7cadb8ee628dc767f09f"
          ],
          "data": "0x0000000000000000000000000000000000000000000000000000000002faf080",
          "blockHash": "0xf40cd79e2fd5bc13214cbe6003f2a27c8a732067aedc8551e4cb495487f3e134",
          "blockNumber": "0x175212e",
          "transactionHash": "0x6c4392e5154bea31605e917a08f2becc97e666da6929d630fd3a521685bd769e",
          "transactionIndex": "0x0",
          "logIndex": "0x0",
          "removed": false
        },
        {
          "address": "0xa0b86991c6218b36c1d19d4a2e9eb0ce3606eb48",
          "topics": [
            "0x8c5be1e5ebec7d5bd14f71427d1e84f3dd0314c0f7b2291e5b200ac8c7c3b925",
            "0x0000000000000000000000004b0af97a249dbf50203c7cadb8ee628dc767f09f",
            "0x00000000000000000000000013c9403f6921ee4b020d644db2ee9d4a5480a080"
          ],
          "data": "0x0000000000000000000000000000000000000000000000000000000002faf080",
          "blockHash": "0xf40cd79e2fd5bc13214cbe6003f2a27c8a732067aedc8551e4cb495487f3e134",
          "blockNumber": "0x175212e",
          "transactionHash": "0x6c4392e5154bea31605e917a08f2becc97e666da6929d630fd3a521685bd769e",
          "transactionIndex": "0x0",
          "logIndex": "0x1",
          "removed": false
        },
        {
          "address": "0xa0b86991c6218b36c1d19d4a2e9eb0ce3606eb48",
          "topics": [
            "0xddf252ad1be2c89b69c2b068fc378daa952ba7f163c4a11628f55a4df523b3ef",
            "0x0000000000000000000000004b0af97a249dbf50203c7cadb8ee628dc767f09f",
            "0x00000000000000000000000013c9403f6921ee4b020d644db2ee9d4a5480a080"
          ],
          "data": "0x0000000000000000000000000000000000000000000000000000000002faf080",
          "blockHash": "0xf40cd79e2fd5bc13214cbe6003f2a27c8a732067aedc8551e4cb495487f3e134",
          "blockNumber": "0x175212e",
          "transactionHash": "0x6c4392e5154bea31605e917a08f2becc97e666da6929d630fd3a521685bd769e",
          "transactionIndex": "0x0",
          "logIndex": "0x2",
          "removed": false
        },
        {
          "address": "0xa0b86991c6218b36c1d19d4a2e9eb0ce3606eb48",
          "topics": [
            "0xddf252ad1be2c89b69c2b068fc378daa952ba7f163c4a11628f55a4df523b3ef",
            "0x00000000000000000000000013c9403f6921ee4b020d644db2ee9d4a5480a080",
            "0x000000000000000000000000e8d4b94f256f9522b30f8795c42e17fa135c1cbf"
          ],
          "data": "0x000000000000000000000000000000000000000000000000000000000003d090",
          "blockHash": "0xf40cd79e2fd5bc13214cbe6003f2a27c8a732067aedc8551e4cb495487f3e134",
          "blockNumber": "0x175212e",
          "transactionHash": "0x6c4392e5154bea31605e917a08f2becc97e666da6929d630fd3a521685bd769e",
          "transactionIndex": "0x0",
          "logIndex": "0x3",
          "removed": false
        },
        {
          "address": "0x13c9403f6921ee4b020d644db2ee9d4a5480a080",
          "topics": [
            "0xddf252ad1be2c89b69c2b068fc378daa952ba7f163c4a11628f55a4df523b3ef",
            "0x0000000000000000000000000000000000000000000000000000000000000000",
            "0x0000000000000000000000004b0af97a249dbf50203c7cadb8ee628dc767f09f"
          ],
          "data": "0x0000000000000000000000000000000000000000000000000000000002f71ff0",
          "blockHash": "0xf40cd79e2fd5bc13214cbe6003f2a27c8a732067aedc8551e4cb495487f3e134",
          "blockNumber": "0x175212e",
          "transactionHash": "0x6c4392e5154bea31605e917a08f2becc97e666da6929d630fd3a521685bd769e",
          "transactionIndex": "0x0",
          "logIndex": "0x4",
          "removed": false
        },
        {
          "address": "0x13c9403f6921ee4b020d644db2ee9d4a5480a080",
          "topics": [
            "0xdcbc1c05240f31ff3ad067ef1ee35ce4997762752e3a095284754544f4c709d7",
            "0x0000000000000000000000004b0af97a249dbf50203c7cadb8ee628dc767f09f",
            "0x0000000000000000000000004b0af97a249dbf50203c7cadb8ee628dc767f09f"
          ],
          "data": "0x0000000000000000000000000000000000000000000000000000000002f71ff00000000000000000000000000000000000000000000000000000000002f71ff0",
          "blockHash": "0xf40cd79e2fd5bc13214cbe6003f2a27c8a732067aedc8551e4cb495487f3e134",
          "blockNumber": "0x175212e",
          "transactionHash": "0x6c4392e5154bea31605e917a08f2becc97e666da6929d630fd3a521685bd769e",
          "transactionIndex": "0x0",
          "logIndex": "0x5",
          "removed": false
        },
        {
          "address": "0x4b0af97a249dbf50203c7cadb8ee628dc767f09f",
          "topics": [
            "0xc3d58168c5ae7397731d063d5bbf3d657854427343f4c083240f7aacaa2d0f62",
            "0x0000000000000000000000006d77dd38770757a1f2e619672651517ebdef8a64",
            "0x0000000000000000000000000000000000000000000000000000000000000000",
            "0x0000000000000000000000006d77dd38770757a1f2e619672651517ebdef8a64"
          ],
          "data": "0x00000000000000000000000000000000000000000000000000000000000000010000000000000000000000000000000000000000000000000000000000000001",
          "blockHash": "0xf40cd79e2fd5bc13214cbe6003f2a27c8a732067aedc8551e4cb495487f3e134",
          "blockNumber": "0x175212e",
          "transactionHash": "0x6c4392e5154bea31605e917a08f2becc97e666da6929d630fd3a521685bd769e",
          "transactionIndex": "0x0",
          "logIndex": "0x6",
          "removed": false
        },
        {
          "address": "0x4b0af97a249dbf50203c7cadb8ee628dc767f09f",
          "topics": [
            "0x316dcdddff8305a235639d647a0714673e488799b821c949506ce21b9f636405",
            "0x0000000000000000000000000000000000000000000000000000000000000001",
            "0x0000000000000000000000006d77dd38770757a1f2e619672651517ebdef8a64"
          ],
          "data": "0x0000000000000000000000000000000000000000000000000000000000000000000000000000000000000000000000000000000000000000000000006994b6e40000000000000000000000000000000000000000000000000000000069bc43e4000000000000000000000000000000000000000000000000000000003b9aca0000000000000000000000000000000000000000000000000000000000000000230000000000000000000000000000000000000000000000000000000000060795ffffffffffffffffffffffffffffffffffffffffffffffffffffffffffedc527",
          "blockHash": "0xf40cd79e2fd5bc13214cbe6003f2a27c8a732067aedc8551e4cb495487f3e134",
          "blockNumber": "0x175212e",
          "transactionHash": "0x6c4392e5154bea31605e917a08f2becc97e666da6929d630fd3a521685bd769e",
          "transactionIndex": "0x0",
          "logIndex": "0x7",
          "removed": false
        }
      ],
      "logsBloom": "0x00000000000000010080000000000000000000000000000000000040080000000000000000000000000000040000000000000000000000010004100000242000000000400000000008000048000000000000000000040000000000002000000100002000020000000000000000000800000000000004000080000010000000000000000000000100000000000000000000000000010000000000000000000000020000000000202000000000000000000000000000014000000000000000000000000002000000000000000000000000000000002008000000000000000060000010000040000000000000000000000000000000000000000000080011000000",
      "type": "0x2",
      "transactionHash": "0x6c4392e5154bea31605e917a08f2becc97e666da6929d630fd3a521685bd769e",
      "transactionIndex": "0x0",
      "blockHash": "0xf40cd79e2fd5bc13214cbe6003f2a27c8a732067aedc8551e4cb495487f3e134",
      "blockNumber": "0x175212e",
      "gasUsed": "0x60be0",
      "effectiveGasPrice": "0x430509",
      "blobGasUsed": "0x0",
      "from": "0x6d77dd38770757a1f2e619672651517ebdef8a64",
      "to": "0x4b0af97a249dbf50203c7cadb8ee628dc767f09f",
      "contractAddress": null
    }
  ],
  "libraries": [],
  "pending": [],
  "returns": {},
  "timestamp": 1771353829,
  "chain": 657,
  "commit": "aef6fda"
}