{
  "transactions": [
    {
      "hash": "0x871caa4f8b1df4c529623a3f3a0eb30326456924a62d8fdb4656ccb089b50e23",
      "transactionType": "CALL",
      "contractName": null,
      "contractAddress": "0xa0b86991c6218b36c1d19d4a2e9eb0ce3606eb48",
      "function": "approve(address,uint256)",
      "arguments": [
        "0x29FbE48c63B2877C155F45E7CA176F3e664aE672",
        "50000000"
      ],
      "transaction": {
        "from": "0x6d77dd38770757a1f2e619672651517ebdef8a64",
        "to": "0xa0b86991c6218b36c1d19d4a2e9eb0ce3606eb48",
        "gas": "0x13d76",
        "value": "0x0",
        "input": "0x095ea7b300000000000000000000000029fbe48c63b2877c155f45e7ca176f3e664ae6720000000000000000000000000000000000000000000000000000000002faf080",
        "nonce": "0x0",
        "chainId": "0x291"
      },
      "additionalContracts": [],
      "isFixedGasLimit": false
    },
    {
      "hash": "0x7e86af5cf6e98d4ded504a792d14fe8d6eb54fda1fc83859809f2eec78547418",
      "transactionType": "CALL",
      "contractName": null,
      "contractAddress": "0x29fbe48c63b2877c155f45e7ca176f3e664ae672",
      "function": "buyPolicy(uint8,uint256,uint256,uint256,uint256,address)",
      "arguments": [
        "0",
        "30",
        "1000000000",
        "50000000",
        "35",
        "0x6d77Dd38770757A1F2E619672651517EBdeF8a64"
      ],
      "transaction": {
        "from": "0x6d77dd38770757a1f2e619672651517ebdef8a64",
        "to": "0x29fbe48c63b2877c155f45e7ca176f3e664ae672",
        "gas": "0x92ad0",
        "value": "0x0",
        "input": "0xa44537900000000000000000000000000000000000000000000000000000000000000000000000000000000000000000000000000000000000000000000000000000001e000000000000000000000000000000000000000000000000000000003b9aca000000000000000000000000000000000000000000000000000000000002faf08000000000000000000000000000000000000000000000000000000000000000230000000000000000000000006d77dd38770757a1f2e619672651517ebdef8a64",
        "nonce": "0x1",
        "chainId": "0x291"
      },
      "additionalContracts": [],
      "isFixedGasLimit": false
    }
  ],
  "receipts": [
    {
      "status": "0x1",
      "cumulativeGasUsed": "0xd912",
      "logs": [
        {
          "address": "0xa0b86991c6218b36c1d19d4a2e9eb0ce3606eb48",
          "topics": [
            "0x8c5be1e5ebec7d5bd14f71427d1e84f3dd0314c0f7b2291e5b200ac8c7c3b925",
            "0x0000000000000000000000006d77dd38770757a1f2e619672651517ebdef8a64",
            "0x00000000000000000000000029fbe48c63b2877c155f45e7ca176f3e664ae672"
          ],
          "data": "0x0000000000000000000000000000000000000000000000000000000002faf080",
          "blockHash": "0xe085b4a49f1a94a3d6ec5f039c476a948ab328a8185e1803bea4d8348c46496c",
          "blockNumber": "0x1752127",
          "transactionHash": "0x871caa4f8b1df4c529623a3f3a0eb30326456924a62d8fdb4656ccb089b50e23",
          "transactionIndex": "0x0",
          "logIndex": "0x0",
          "removed": false
        }
      ],
      "logsBloom": "0x00000000000000000000000000000000000000000000000000000000000000000000000000000000000000000000000000000000000000010000000000200000000000000000000008000040000000000000000000800000000000000000000100000000000000000000000000000000000000000000000000000000000000000000000000000000010000000000000000000000010000000000000000000000020000000000200000000000000000000000000000000000000000020000000000000000000000000000000000000000000000000000000000000000000000000010000000000000000000000000000000000000000000000000000000000000",
      "type": "0x2",
      "transactionHash": "0x871caa4f8b1df4c529623a3f3a0eb30326456924a62d8fdb4656ccb089b50e23",
      "transactionIndex": "0x0",
      "blockHash": "0xe085b4a49f1a94a3d6ec5f039c476a948ab328a8185e1803bea4d8348c46496c",
      "blockNumber": "0x1752127",
      "gasUsed": "0xd912",
      "effectiveGasPrice": "0x430509",
      "blobGasUsed": "0x0",
      "from": "0x6d77dd38770757a1f2e619672651517ebdef8a64",
      "to": "0xa0b86991c6218b36c1d19d4a2e9eb0ce3606eb48",
      "contractAddress": null
    },
    {
      "status": "0x1",
      "cumulativeGasUsed": "0x644a9",
      "logs": [
        {
          "address": "0xa0b86991c6218b36c1d19d4a2e9eb0ce3606eb48",
          "topics": [
            "0xddf252ad1be2c89b69c2b068fc378daa952ba7f163c4a11628f55a4df523b3ef",
            "0x0000000000000000000000006d77dd38770757a1f2e619672651517ebdef8a64",
            "0x00000000000000000000000029fbe48c63b2877c155f45e7ca176f3e664ae672"
          ],
          "data": "0x0000000000000000000000000000000000000000000000000000000002faf080",
          "blockHash": "0x9c11c570cb8269d9f4c18884fe2b10db21a5ff00dfb3b3553657c6d93ca39580",
          "blockNumber": "0x1752128",
          "transactionHash": "0x7e86af5cf6e98d4ded504a792d14fe8d6eb54fda1fc83859809f2eec78547418",
          "transactionIndex": "0x0",
          "logIndex": "0x0",
          "removed": false
        },
        {
          "address": "0xa0b86991c6218b36c1d19d4a2e9eb0ce3606eb48",
          "topics": [
            "0x8c5be1e5ebec7d5bd14f71427d1e84f3dd0314c0f7b2291e5b200ac8c7c3b925",
            "0x00000000000000000000000029fbe48c63b2877c155f45e7ca176f3e664ae672",
            "0x000000000000000000000000664d320727aa4f17e2cb4d5f39c82d7edf74d3fe"
          ],
          "data": "0x0000000000000000000000000000000000000000000000000000000002faf080",
          "blockHash": "0x9c11c570cb8269d9f4c18884fe2b10db21a5ff00dfb3b3553657c6d93ca39580",
          "blockNumber": "0x1752128",
          "transactionHash": "0x7e86af5cf6e98d4ded504a792d14fe8d6eb54fda1fc83859809f2eec78547418",
          "transactionIndex": "0x0",
          "logIndex": "0x1",
          "removed": false
        },
        {
          "address": "0xa0b86991c6218b36c1d19d4a2e9eb0ce3606eb48",
          "topics": [
            "0xddf252ad1be2c89b69c2b068fc378daa952ba7f163c4a11628f55a4df523b3ef",
            "0x00000000000000000000000029fbe48c63b2877c155f45e7ca176f3e664ae672",
            "0x000000000000000000000000664d320727aa4f17e2cb4d5f39c82d7edf74d3fe"
          ],
          "data": "0x0000000000000000000000000000000000000000000000000000000002faf080",
          "blockHash": "0x9c11c570cb8269d9f4c18884fe2b10db21a5ff00dfb3b3553657c6d93ca39580",
          "blockNumber": "0x1752128",
          "transactionHash": "0x7e86af5cf6e98d4ded504a792d14fe8d6eb54fda1fc83859809f2eec78547418",
          "transactionIndex": "0x0",
          "logIndex": "0x2",
          "removed": false
        },
        {
          "address": "0xa0b86991c6218b36c1d19d4a2e9eb0ce3606eb48",
          "topics": [
            "0xddf252ad1be2c89b69c2b068fc378daa952ba7f163c4a11628f55a4df523b3ef",
            "0x000000000000000000000000664d320727aa4f17e2cb4d5f39c82d7edf74d3fe",
            "0x000000000000000000000000e8d4b94f256f9522b30f8795c42e17fa135c1cbf"
          ],
          "data": "0x000000000000000000000000000000000000000000000000000000000003d090",
          "blockHash": "0x9c11c570cb8269d9f4c18884fe2b10db21a5ff00dfb3b3553657c6d93ca39580",
          "blockNumber": "0x1752128",
          "transactionHash": "0x7e86af5cf6e98d4ded504a792d14fe8d6eb54fda1fc83859809f2eec78547418",
          "transactionIndex": "0x0",
          "logIndex": "0x3",
          "removed": false
        },
        {
          "address": "0x664d320727aa4f17e2cb4d5f39c82d7edf74d3fe",
          "topics": [
            "0xddf252ad1be2c89b69c2b068fc378daa952ba7f163c4a11628f55a4df523b3ef",
            "0x0000000000000000000000000000000000000000000000000000000000000000",
            "0x00000000000000000000000029fbe48c63b2877c155f45e7ca176f3e664ae672"
          ],
          "data": "0x0000000000000000000000000000000000000000000000000000000002f71ff0",
          "blockHash": "0x9c11c570cb8269d9f4c18884fe2b10db21a5ff00dfb3b3553657c6d93ca39580",
          "blockNumber": "0x1752128",
          "transactionHash": "0x7e86af5cf6e98d4ded504a792d14fe8d6eb54fda1fc83859809f2eec78547418",
          "transactionIndex": "0x0",
          "logIndex": "0x4",
          "removed": false
        },
        {
          "address": "0x664d320727aa4f17e2cb4d5f39c82d7edf74d3fe",
          "topics": [
            "0xdcbc1c05240f31ff3ad067ef1ee35ce4997762752e3a095284754544f4c709d7",
            "0x00000000000000000000000029fbe48c63b2877c155f45e7ca176f3e664ae672",
            "0x00000000000000000000000029fbe48c63b2877c155f45e7ca176f3e664ae672"
          ],
          "data": "0x0000000000000000000000000000000000000000000000000000000002f71ff00000000000000000000000000000000000000000000000000000000002f71ff0",
          "blockHash": "0x9c11c570cb8269d9f4c18884fe2b10db21a5ff00dfb3b3553657c6d93ca39580",
          "blockNumber": "0x1752128",
          "transactionHash": "0x7e86af5cf6e98d4ded504a792d14fe8d6eb54fda1fc83859809f2eec78547418",
          "transactionIndex": "0x0",
          "logIndex": "0x5",
          "removed": false
        },
        {
          "address": "0x29fbe48c63b2877c155f45e7ca176f3e664ae672",
          "topics": [
            "0xc3d58168c5ae7397731d063d5bbf3d657854427343f4c083240f7aacaa2d0f62",
            "0x0000000000000000000000006d77dd38770757a1f2e619672651517ebdef8a64",
            "0x0000000000000000000000000000000000000000000000000000000000000000",
            "0x0000000000000000000000006d77dd38770757a1f2e619672651517ebdef8a64"
          ],
          "data": "0x00000000000000000000000000000000000000000000000000000000000000010000000000000000000000000000000000000000000000000000000000000001",
          "blockHash": "0x9c11c570cb8269d9f4c18884fe2b10db21a5ff00dfb3b3553657c6d93ca39580",
          "blockNumber": "0x1752128",
          "transactionHash": "0x7e86af5cf6e98d4ded504a792d14fe8d6eb54fda1fc83859809f2eec78547418",
          "transactionIndex": "0x0",
          "logIndex": "0x6",
          "removed": false
        },
        {
          "address": "0x29fbe48c63b2877c155f45e7ca176f3e664ae672",
          "topics": [
            "0xf357cf98fe53b7bfab9d8d5df3eeeb4780c5ae90b40caaca51eedaeb7be9f0f7",
            "0x0000000000000000000000000000000000000000000000000000000000000001",
            "0x0000000000000000000000006d77dd38770757a1f2e619672651517ebdef8a64"
          ],
          "data": "0x00000000000000000000000000000000000000000000000000000000000000000000000000000000000000000000000000000000000000000000000069947a3a0000000000000000000000000000000000000000000000000000000069bc073a000000000000000000000000000000000000000000000000000000003b9aca000000000000000000000000000000000000000000000000000000000000000023",
          "blockHash": "0x9c11c570cb8269d9f4c18884fe2b10db21a5ff00dfb3b3553657c6d93ca39580",
          "blockNumber": "0x1752128",
          "transactionHash": "0x7e86af5cf6e98d4ded504a792d14fe8d6eb54fda1fc83859809f2eec78547418",
          "transactionIndex": "0x0",
          "logIndex": "0x7",
          "removed": false
        }
      ],
      "logsBloom": "0x00000000000000000000000000000000002000000000000000001040000040000000000000000000000000000000400000000000000000010000000000242100000000400000010008000048000000000000000000840000000000000000000100000000020000000000000000000800000000000004000000000810000000000000000000000000010000000000100000000000014000000000000000000000020000000000202000000000000000000000000000010000000000020000000000000002002000000000000000000000000000000008000000004000000060000010000000000000000000000000000000000000000000000002080000000000",
      "type": "0x2",
      "transactionHash": "0x7e86af5cf6e98d4ded504a792d14fe8d6eb54fda1fc83859809f2eec78547418",
      "transactionIndex": "0x0",
      "blockHash": "0x9c11c570cb8269d9f4c18884fe2b10db21a5ff00dfb3b3553657c6d93ca39580",
      "blockNumber": "0x1752128",
      "gasUsed": "0x644a9",
      "effectiveGasPrice": "0x430509",
      "blobGasUsed": "0x0",
      "from": "0x6d77dd38770757a1f2e619672651517ebdef8a64",
      "to": "0x29fbe48c63b2877c155f45e7ca176f3e664ae672",
      "contractAddress": null
    }
  ],
  "libraries": [],
  "pending": [],
  "returns": {},
  "timestamp": 1771338298,
  "chain": 657,
  "commit": "9a0f2cb"
}