{
  "transactions": [
    {
      "hash": "0x47f049c28d48f7b97b895cafdfc10e16f2db3eddb179bb839af909ea491a768b",
      "transactionType": "CALL",
      "contractName": null,
      "contractAddress": "0xc6b1df799110be7f01841cec6afe355035c99f96",
      "function": "setPolicyManager(address)",
      "arguments": [
        "0x3DF3805c2084FE33Be390a48AA412647a71Ee1e3"
      ],
      "transaction": {
        "from": "0xe8d4b94f256f9522b30f8795c42e17fa135c1cbf",
        "to": "0xc6b1df799110be7f01841cec6afe355035c99f96",
        "gas": "0x10bf6",
        "value": "0x0",
        "input": "0xadde41e10000000000000000000000003df3805c2084fe33be390a48aa412647a71ee1e3",
        "nonce": "0xa",
        "chainId": "0x291"
      },
      "additionalContracts": [],
      "isFixedGasLimit": false
    },
    {
      "hash": "0xc709ae90407b01dda5ad0112eed36f2d638cb03b81aa0b10db2f447949170c78",
      "transactionType": "CALL",
      "contractName": null,
      "contractAddress": "0xf088769c4915e611384eb09d360ff3813bc32dc1",
      "function": "setPolicyManager(address)",
      "arguments": [
        "0x3DF3805c2084FE33Be390a48AA412647a71Ee1e3"
      ],
      "transaction": {
        "from": "0xe8d4b94f256f9522b30f8795c42e17fa135c1cbf",
        "to": "0xf088769c4915e611384eb09d360ff3813bc32dc1",
        "gas": "0x10bf6",
        "value": "0x0",
        "input": "0xadde41e10000000000000000000000003df3805c2084fe33be390a48aa412647a71ee1e3",
        "nonce": "0xb",
        "chainId": "0x291"
      },
      "additionalContracts": [],
      "isFixedGasLimit": false
    },
    {
      "hash": "0x462fd13d0ffe6995973aa0aaa9470e8d2cf9b8904ae135451ffc5e5da19b6b34",
      "transactionType": "CALL",
      "contractName": null,
      "contractAddress": "0x993b8343ac68476e265ff4c0922d54ffbf018acb",
      "function": "setPolicyManager(address)",
      "arguments": [
        "0x3DF3805c2084FE33Be390a48AA412647a71Ee1e3"
      ],
      "transaction": {
        "from": "0xe8d4b94f256f9522b30f8795c42e17fa135c1cbf",
        "to": "0x993b8343ac68476e265ff4c0922d54ffbf018acb",
        "gas": "0x10bf6",
        "value": "0x0",
        "input": "0xadde41e10000000000000000000000003df3805c2084fe33be390a48aa412647a71ee1e3",
        "nonce": "0xc",
        "chainId": "0x291"
      },
      "additionalContracts": [],
      "isFixedGasLimit": false
    },
    {
      "hash": "0x118092505e6f7700c6bb6388e70f6f8691cbfbf3a2470ae72b05252e7d3e4d10",
      "transactionType": "CALL",
      "contractName": null,
      "contractAddress": "0xf088769c4915e611384eb09d360ff3813bc32dc1",
      "function": "setCapManager(address)",
      "arguments": [
        "0x3DF3805c2084FE33Be390a48AA412647a71Ee1e3"
      ],
      "transaction": {
        "from": "0xe8d4b94f256f9522b30f8795c42e17fa135c1cbf",
        "to": "0xf088769c4915e611384eb09d360ff3813bc32dc1",
        "gas": "0xf890",
        "value": "0x0",
        "input": "0x0e608b300000000000000000000000003df3805c2084fe33be390a48aa412647a71ee1e3",
        "nonce": "0xd",
        "chainId": "0x291"
      },
      "additionalContracts": [],
      "isFixedGasLimit": false
    },
    {
      "hash": "0x17774405cdbcf5ca80b6a7f86e10376ab108b9854cfa24ede4fb65d32e642197",
      "transactionType": "CALL",
      "contractName": null,
      "contractAddress": "0x993b8343ac68476e265ff4c0922d54ffbf018acb",
      "function": "setCapManager(address)",
      "arguments": [
        "0x3DF3805c2084FE33Be390a48AA412647a71Ee1e3"
      ],
      "transaction": {
        "from": "0xe8d4b94f256f9522b30f8795c42e17fa135c1cbf",
        "to": "0x993b8343ac68476e265ff4c0922d54ffbf018acb",
        "gas": "0xf890",
        "value": "0x0",
        "input": "0x0e608b300000000000000000000000003df3805c2084fe33be390a48aa412647a71ee1e3",
        "nonce": "0xe",
        "chainId": "0x291"
      },
      "additionalContracts": [],
      "isFixedGasLimit": false
    },
    {
      "hash": "0x481594af97ddfc2e57c31e66a6edb2fded332efcfc660bf3d248bcba2e4e3f21",
      "transactionType": "CALL",
      "contractName": null,
      "contractAddress": "0xc6b1df799110be7f01841cec6afe355035c99f96",
      "function": "setFee(uint256,address)",
      "arguments": [
        "50",
        "0xe8d4b94F256f9522b30f8795C42e17Fa135C1cbF"
      ],
      "transaction": {
        "from": "0xe8d4b94f256f9522b30f8795c42e17fa135c1cbf",
        "to": "0xc6b1df799110be7f01841cec6afe355035c99f96",
        "gas": "0x119e6",
        "value": "0x0",
        "input": "0xb4f2e8b80000000000000000000000000000000000000000000000000000000000000032000000000000000000000000e8d4b94f256f9522b30f8795c42e17fa135c1cbf",
        "nonce": "0xf",
        "chainId": "0x291"
      },
      "additionalContracts": [],
      "isFixedGasLimit": false
    },
    {
      "hash": "0x99ae1b2018b8c0d2ebaea666e57661deeec50537b92e6b5d4605d2ee731b0918",
      "transactionType": "CALL",
      "contractName": null,
      "contractAddress": "0xf088769c4915e611384eb09d360ff3813bc32dc1",
      "function": "setFee(uint256,address)",
      "arguments": [
        "50",
        "0xe8d4b94F256f9522b30f8795C42e17Fa135C1cbF"
      ],
      "transaction": {
        "from": "0xe8d4b94f256f9522b30f8795c42e17fa135c1cbf",
        "to": "0xf088769c4915e611384eb09d360ff3813bc32dc1",
        "gas": "0x119e6",
        "value": "0x0",
        "input": "0xb4f2e8b80000000000000000000000000000000000000000000000000000000000000032000000000000000000000000e8d4b94f256f9522b30f8795c42e17fa135c1cbf",
        "nonce": "0x10",
        "chainId": "0x291"
      },
      "additionalContracts": [],
      "isFixedGasLimit": false
    },
    {
      "hash": "0xc12c5220c36f745417bb49942b2579a40b07e3d7544efa002eb9d4a436cd56f8",
      "transactionType": "CALL",
      "contractName": null,
      "contractAddress": "0x993b8343ac68476e265ff4c0922d54ffbf018acb",
      "function": "setFee(uint256,address)",
      "arguments": [
        "50",
        "0xe8d4b94F256f9522b30f8795C42e17Fa135C1cbF"
      ],
      "transaction": {
        "from": "0xe8d4b94f256f9522b30f8795c42e17fa135c1cbf",
        "to": "0x993b8343ac68476e265ff4c0922d54ffbf018acb",
        "gas": "0x119e6",
        "value": "0x0",
        "input": "0xb4f2e8b80000000000000000000000000000000000000000000000000000000000000032000000000000000000000000e8d4b94f256f9522b30f8795c42e17fa135c1cbf",
        "nonce": "0x11",
        "chainId": "0x291"
      },
      "additionalContracts": [],
      "isFixedGasLimit": false
    },
    {
      "hash": "0xa6dbdef2a4952e583d5aeb45412177cfc466cb960eeb4d588640592a4c598831",
      "transactionType": "CALL",
      "contractName": null,
      "contractAddress": "0xc6b1df799110be7f01841cec6afe355035c99f96",
      "function": "setAavePool(address,address)",
      "arguments": [
        "0x87870Bca3F3fD6335C3F4ce8392D69350B4fA4E2",
        "0x98C23E9d8f34FEFb1B7BD6a91B7FF122F4e16F5c"
      ],
      "transaction": {
        "from": "0xe8d4b94f256f9522b30f8795c42e17fa135c1cbf",
        "to": "0xc6b1df799110be7f01841cec6afe355035c99f96",
        "gas": "0x1749f",
        "value": "0x0",
        "input": "0x4a9bd6df00000000000000000000000087870bca3f3fd6335c3f4ce8392d69350b4fa4e200000000000000000000000098c23e9d8f34fefb1b7bd6a91b7ff122f4e16f5c",
        "nonce": "0x12",
        "chainId": "0x291"
      },
      "additionalContracts": [],
      "isFixedGasLimit": false
    },
    {
      "hash": "0x9a34ca8d938133b49938afd8700ebb91daf001c53e57801e391f3b4242098224",
      "transactionType": "CALL",
      "contractName": null,
      "contractAddress": "0xc6b1df799110be7f01841cec6afe355035c99f96",
      "function": "setAaveTargetBps(uint256)",
      "arguments": [
        "7000"
      ],
      "transaction": {
        "from": "0xe8d4b94f256f9522b30f8795c42e17fa135c1cbf",
        "to": "0xc6b1df799110be7f01841cec6afe355035c99f96",
        "gas": "0xfd16",
        "value": "0x0",
        "input": "0xf8321c310000000000000000000000000000000000000000000000000000000000001b58",
        "nonce": "0x13",
        "chainId": "0x291"
      },
      "additionalContracts": [],
      "isFixedGasLimit": false
    },
    {
      "hash": "0x70c7064863cfa1d351e0ddcdd1ba25e76301300e2e7c9a43154c7ae5fc7dfe2c",
      "transactionType": "CALL",
      "contractName": null,
      "contractAddress": "0xc6b1df799110be7f01841cec6afe355035c99f96",
      "function": "setAaveEnabled(bool)",
      "arguments": [
        "true"
      ],
      "transaction": {
        "from": "0xe8d4b94f256f9522b30f8795c42e17fa135c1cbf",
        "to": "0xc6b1df799110be7f01841cec6afe355035c99f96",
        "gas": "0xfa43",
        "value": "0x0",
        "input": "0x8a8b1bd70000000000000000000000000000000000000000000000000000000000000001",
        "nonce": "0x14",
        "chainId": "0x291"
      },
      "additionalContracts": [],
      "isFixedGasLimit": false
    },
    {
      "hash": "0x9ef397457a3a8cf54fa96139ccc5433874cd48851669dee197ce421a14bd9b08",
      "transactionType": "CALL",
      "contractName": null,
      "contractAddress": "0xf088769c4915e611384eb09d360ff3813bc32dc1",
      "function": "setAavePool(address,address)",
      "arguments": [
        "0x87870Bca3F3fD6335C3F4ce8392D69350B4fA4E2",
        "0x98C23E9d8f34FEFb1B7BD6a91B7FF122F4e16F5c"
      ],
      "transaction": {
        "from": "0xe8d4b94f256f9522b30f8795c42e17fa135c1cbf",
        "to": "0xf088769c4915e611384eb09d360ff3813bc32dc1",
        "gas": "0x1749f",
        "value": "0x0",
        "input": "0x4a9bd6df00000000000000000000000087870bca3f3fd6335c3f4ce8392d69350b4fa4e200000000000000000000000098c23e9d8f34fefb1b7bd6a91b7ff122f4e16f5c",
        "nonce": "0x15",
        "chainId": "0x291"
      },
      "additionalContracts": [],
      "isFixedGasLimit": false
    },
    {
      "hash": "0xd3280eb79eaecce580796eb674a97b07259421d5ad7f22defd6f4b783ab3d62a",
      "transactionType": "CALL",
      "contractName": null,
      "contractAddress": "0xf088769c4915e611384eb09d360ff3813bc32dc1",
      "function": "setAaveTargetBps(uint256)",
      "arguments": [
        "7000"
      ],
      "transaction": {
        "from": "0xe8d4b94f256f9522b30f8795c42e17fa135c1cbf",
        "to": "0xf088769c4915e611384eb09d360ff3813bc32dc1",
        "gas": "0xfd16",
        "value": "0x0",
        "input": "0xf8321c310000000000000000000000000000000000000000000000000000000000001b58",
        "nonce": "0x16",
        "chainId": "0x291"
      },
      "additionalContracts": [],
      "isFixedGasLimit": false
    },
    {
      "hash": "0xb197428b21ce37c2a3a11f6e328b9550495dc3d021b64950e328abad0085f6e4",
      "transactionType": "CALL",
      "contractName": null,
      "contractAddress": "0xf088769c4915e611384eb09d360ff3813bc32dc1",
      "function": "setAaveEnabled(bool)",
      "arguments": [
        "true"
      ],
      "transaction": {
        "from": "0xe8d4b94f256f9522b30f8795c42e17fa135c1cbf",
        "to": "0xf088769c4915e611384eb09d360ff3813bc32dc1",
        "gas": "0xfa43",
        "value": "0x0",
        "input": "0x8a8b1bd70000000000000000000000000000000000000000000000000000000000000001",
        "nonce": "0x17",
        "chainId": "0x291"
      },
      "additionalContracts": [],
      "isFixedGasLimit": false
    },
    {
      "hash": "0x32fcd7c3832f0602cc37969b009707e0231f593d3671e5f92ee043884c06b681",
      "transactionType": "CALL",
      "contractName": null,
      "contractAddress": "0x993b8343ac68476e265ff4c0922d54ffbf018acb",
      "function": "setAavePool(address,address)",
      "arguments": [
        "0x87870Bca3F3fD6335C3F4ce8392D69350B4fA4E2",
        "0x98C23E9d8f34FEFb1B7BD6a91B7FF122F4e16F5c"
      ],
      "transaction": {
        "from": "0xe8d4b94f256f9522b30f8795c42e17fa135c1cbf",
        "to": "0x993b8343ac68476e265ff4c0922d54ffbf018acb",
        "gas": "0x1749f",
        "value": "0x0",
        "input": "0x4a9bd6df00000000000000000000000087870bca3f3fd6335c3f4ce8392d69350b4fa4e200000000000000000000000098c23e9d8f34fefb1b7bd6a91b7ff122f4e16f5c",
        "nonce": "0x18",
        "chainId": "0x291"
      },
      "additionalContracts": [],
      "isFixedGasLimit": false
    },
    {
      "hash": "0x2d3f4186a2211fc7d89b6d5a027153581a1024b69f4cff4432d10edbc91b3d14",
      "transactionType": "CALL",
      "contractName": null,
      "contractAddress": "0x993b8343ac68476e265ff4c0922d54ffbf018acb",
      "function": "setAaveTargetBps(uint256)",
      "arguments": [
        "7000"
      ],
      "transaction": {
        "from": "0xe8d4b94f256f9522b30f8795c42e17fa135c1cbf",
        "to": "0x993b8343ac68476e265ff4c0922d54ffbf018acb",
        "gas": "0xfd16",
        "value": "0x0",
        "input": "0xf8321c310000000000000000000000000000000000000000000000000000000000001b58",
        "nonce": "0x19",
        "chainId": "0x291"
      },
      "additionalContracts": [],
      "isFixedGasLimit": false
    },
    {
      "hash": "0xb7532e1bd6d56b4cbbc1437433e9e340eefa3670b96fd6461df1b9a925de581d",
      "transactionType": "CALL",
      "contractName": null,
      "contractAddress": "0x993b8343ac68476e265ff4c0922d54ffbf018acb",
      "function": "setAaveEnabled(bool)",
      "arguments": [
        "true"
      ],
      "transaction": {
        "from": "0xe8d4b94f256f9522b30f8795c42e17fa135c1cbf",
        "to": "0x993b8343ac68476e265ff4c0922d54ffbf018acb",
        "gas": "0xfa43",
        "value": "0x0",
        "input": "0x8a8b1bd70000000000000000000000000000000000000000000000000000000000000001",
        "nonce": "0x1a",
        "chainId": "0x291"
      },
      "additionalContracts": [],
      "isFixedGasLimit": false
    }
  ],
  "receipts": [
    {
      "status": "0x1",
      "cumulativeGasUsed": "0xb739",
      "logs": [],
      "logsBloom": "0x00000000000000000000000000000000000000000000000000000000000000000000000000000000000000000000000000000000000000000000000000000000000000000000000000000000000000000000000000000000000000000000000000000000000000000000000000000000000000000000000000000000000000000000000000000000000000000000000000000000000000000000000000000000000000000000000000000000000000000000000000000000000000000000000000000000000000000000000000000000000000000000000000000000000000000000000000000000000000000000000000000000000000000000000000000000",
      "type": "0x2",
      "transactionHash": "0x47f049c28d48f7b97b895cafdfc10e16f2db3eddb179bb839af909ea491a768b",
      "transactionIndex": "0x0",
      "blockHash": "0x7afb3654b4c5a5a09f4c22d579e178faf0c3109d5c63535519ebddaf8f831e62",
      "blockNumber": "0x1764312",
      "gasUsed": "0xb739",
      "effectiveGasPrice": "0x90ecee",
      "blobGasUsed": "0x0",
      "from": "0xe8d4b94f256f9522b30f8795c42e17fa135c1cbf",
      "to": "0xc6b1df799110be7f01841cec6afe355035c99f96",
      "contractAddress": null
    },
    {
      "status": "0x1",
      "cumulativeGasUsed": "0xc0c1",
      "logs": [],
      "logsBloom": "0x00000000000000000000000000000000000000000000000000000000000000000000000000000000000000000000000000000000000000000000000000000000000000000000000000000000000000000000000000000000000000000000000000000000000000000000000000000000000000000000000000000000000000000000000000000000000000000000000000000000000000000000000000000000000000000000000000000000000000000000000000000000000000000000000000000000000000000000000000000000000000000000000000000000000000000000000000000000000000000000000000000000000000000000000000000000",
      "type": "0x2",
      "transactionHash": "0x481594af97ddfc2e57c31e66a6edb2fded332efcfc660bf3d248bcba2e4e3f21",
      "transactionIndex": "0x0",
      "blockHash": "0x1119bc27c6d25938f7f6abcc3808a337f5d172bb00f45899af1fd2babddbd7d8",
      "blockNumber": "0x1764313",
      "gasUsed": "0xc0c1",
      "effectiveGasPrice": "0x90ecee",
      "blobGasUsed": "0x0",
      "from": "0xe8d4b94f256f9522b30f8795c42e17fa135c1cbf",
      "to": "0xc6b1df799110be7f01841cec6afe355035c99f96",
      "contractAddress": null
    },
    {
      "status": "0x1",
      "cumulativeGasUsed": "0xb3f5",
      "logs": [],
      "logsBloom": "0x00000000000000000000000000000000000000000000000000000000000000000000000000000000000000000000000000000000000000000000000000000000000000000000000000000000000000000000000000000000000000000000000000000000000000000000000000000000000000000000000000000000000000000000000000000000000000000000000000000000000000000000000000000000000000000000000000000000000000000000000000000000000000000000000000000000000000000000000000000000000000000000000000000000000000000000000000000000000000000000000000000000000000000000000000000000",
      "type": "0x2",
      "transactionHash": "0x17774405cdbcf5ca80b6a7f86e10376ab108b9854cfa24ede4fb65d32e642197",
      "transactionIndex": "0x0",
      "blockHash": "0xcd718b1894cd195e2bbdd1e27c0f3466977ae6820e358d5563fedd5835d5189b",
      "blockNumber": "0x1764314",
      "gasUsed": "0xb3f5",
      "effectiveGasPrice": "0x90ecee",
      "blobGasUsed": "0x0",
      "from": "0xe8d4b94f256f9522b30f8795c42e17fa135c1cbf",
      "to": "0x993b8343ac68476e265ff4c0922d54ffbf018acb",
      "contractAddress": null
    },
    {
      "status": "0x1",
      "cumulativeGasUsed": "0xc0c1",
      "logs": [],
      "logsBloom": "0x00000000000000000000000000000000000000000000000000000000000000000000000000000000000000000000000000000000000000000000000000000000000000000000000000000000000000000000000000000000000000000000000000000000000000000000000000000000000000000000000000000000000000000000000000000000000000000000000000000000000000000000000000000000000000000000000000000000000000000000000000000000000000000000000000000000000000000000000000000000000000000000000000000000000000000000000000000000000000000000000000000000000000000000000000000000",
      "type": "0x2",
      "transactionHash": "0x99ae1b2018b8c0d2ebaea666e57661deeec50537b92e6b5d4605d2ee731b0918",
      "transactionIndex": "0x0",
      "blockHash": "0x3bb5a11742aebb6bb41a36c6091f5a603ba24e84ce7ebe9f06abe49881bb285c",
      "blockNumber": "0x1764315",
      "gasUsed": "0xc0c1",
      "effectiveGasPrice": "0x90ecee",
      "blobGasUsed": "0x0",
      "from": "0xe8d4b94f256f9522b30f8795c42e17fa135c1cbf",
      "to": "0xf088769c4915e611384eb09d360ff3813bc32dc1",
      "contractAddress": null
    },
    {
      "status": "0x1",
      "cumulativeGasUsed": "0xb739",
      "logs": [],
      "logsBloom": "0x00000000000000000000000000000000000000000000000000000000000000000000000000000000000000000000000000000000000000000000000000000000000000000000000000000000000000000000000000000000000000000000000000000000000000000000000000000000000000000000000000000000000000000000000000000000000000000000000000000000000000000000000000000000000000000000000000000000000000000000000000000000000000000000000000000000000000000000000000000000000000000000000000000000000000000000000000000000000000000000000000000000000000000000000000000000",
      "type": "0x2",
      "transactionHash": "0xc709ae90407b01dda5ad0112eed36f2d638cb03b81aa0b10db2f447949170c78",
      "transactionIndex": "0x0",
      "blockHash": "0x946c6a501ee5f686305907c79ac5dd537be2aba07988af2eb8c9c08e1b8cf5d4",
      "blockNumber": "0x1764316",
      "gasUsed": "0xb739",
      "effectiveGasPrice": "0x90ecee",
      "blobGasUsed": "0x0",
      "from": "0xe8d4b94f256f9522b30f8795c42e17fa135c1cbf",
      "to": "0xf088769c4915e611384eb09d360ff3813bc32dc1",
      "contractAddress": null
    },
    {
      "status": "0x1",
      "cumulativeGasUsed": "0xb3f5",
      "logs": [],
      "logsBloom": "0x00000000000000000000000000000000000000000000000000000000000000000000000000000000000000000000000000000000000000000000000000000000000000000000000000000000000000000000000000000000000000000000000000000000000000000000000000000000000000000000000000000000000000000000000000000000000000000000000000000000000000000000000000000000000000000000000000000000000000000000000000000000000000000000000000000000000000000000000000000000000000000000000000000000000000000000000000000000000000000000000000000000000000000000000000000000",
      "type": "0x2",
      "transactionHash": "0x118092505e6f7700c6bb6388e70f6f8691cbfbf3a2470ae72b05252e7d3e4d10",
      "transactionIndex": "0x0",
      "blockHash": "0x3dba6b152790ec0c1f42f0e940321d240f2a0e77680cae47c056511e1ef1e9f3",
      "blockNumber": "0x1764317",
      "gasUsed": "0xb3f5",
      "effectiveGasPrice": "0x90ecee",
      "blobGasUsed": "0x0",
      "from": "0xe8d4b94f256f9522b30f8795c42e17fa135c1cbf",
      "to": "0xf088769c4915e611384eb09d360ff3813bc32dc1",
      "contractAddress": null
    },
    {
      "status": "0x1",
      "cumulativeGasUsed": "0xb739",
      "logs": [],
      "logsBloom": "0x00000000000000000000000000000000000000000000000000000000000000000000000000000000000000000000000000000000000000000000000000000000000000000000000000000000000000000000000000000000000000000000000000000000000000000000000000000000000000000000000000000000000000000000000000000000000000000000000000000000000000000000000000000000000000000000000000000000000000000000000000000000000000000000000000000000000000000000000000000000000000000000000000000000000000000000000000000000000000000000000000000000000000000000000000000000",
      "type": "0x2",
      "transactionHash": "0x462fd13d0ffe6995973aa0aaa9470e8d2cf9b8904ae135451ffc5e5da19b6b34",
      "transactionIndex": "0x0",
      "blockHash": "0x5d4c03722d4a85ce5643911940d3abf072eb741e7ee7fe4ab249450bae2a10e3",
      "blockNumber": "0x1764318",
      "gasUsed": "0xb739",
      "effectiveGasPrice": "0x90ecee",
      "blobGasUsed": "0x0",
      "from": "0xe8d4b94f256f9522b30f8795c42e17fa135c1cbf",
      "to": "0x993b8343ac68476e265ff4c0922d54ffbf018acb",
      "contractAddress": null
    },
    {
      "status": "0x1",
      "cumulativeGasUsed": "0xc0c1",
      "logs": [],
      "logsBloom": "0x00000000000000000000000000000000000000000000000000000000000000000000000000000000000000000000000000000000000000000000000000000000000000000000000000000000000000000000000000000000000000000000000000000000000000000000000000000000000000000000000000000000000000000000000000000000000000000000000000000000000000000000000000000000000000000000000000000000000000000000000000000000000000000000000000000000000000000000000000000000000000000000000000000000000000000000000000000000000000000000000000000000000000000000000000000000",
      "type": "0x2",
      "transactionHash": "0xc12c5220c36f745417bb49942b2579a40b07e3d7544efa002eb9d4a436cd56f8",
      "transactionIndex": "0x0",
      "blockHash": "0xf05417eecaaf80f045d6a3364799da5bf5cd6f4008955d004ccabb5d43bbe0f2",
      "blockNumber": "0x1764319",
      "gasUsed": "0xc0c1",
      "effectiveGasPrice": "0x90ecee",
      "blobGasUsed": "0x0",
      "from": "0xe8d4b94f256f9522b30f8795c42e17fa135c1cbf",
      "to": "0x993b8343ac68476e265ff4c0922d54ffbf018acb",
      "contractAddress": null
    },
    {
      "status": "0x1",
      "cumulativeGasUsed": "0x10dc6",
      "logs": [],
      "logsBloom": "0x00000000000000000000000000000000000000000000000000000000000000000000000000000000000000000000000000000000000000000000000000000000000000000000000000000000000000000000000000000000000000000000000000000000000000000000000000000000000000000000000000000000000000000000000000000000000000000000000000000000000000000000000000000000000000000000000000000000000000000000000000000000000000000000000000000000000000000000000000000000000000000000000000000000000000000000000000000000000000000000000000000000000000000000000000000000",
      "type": "0x2",
      "transactionHash": "0xa6dbdef2a4952e583d5aeb45412177cfc466cb960eeb4d588640592a4c598831",
      "transactionIndex": "0x0",
      "blockHash": "0x141c402f6f77e664e03217c76d7a4f160eefda5bd45666181c2517641f60420c",
      "blockNumber": "0x176431a",
      "gasUsed": "0x10dc6",
      "effectiveGasPrice": "0x90ecee",
      "blobGasUsed": "0x0",
      "from": "0xe8d4b94f256f9522b30f8795c42e17fa135c1cbf",
      "to": "0xc6b1df799110be7f01841cec6afe355035c99f96",
      "contractAddress": null
    },
    {
      "status": "0x1",
      "cumulativeGasUsed": "0xb73c",
      "logs": [],
      "logsBloom": "0x00000000000000000000000000000000000000000000000000000000000000000000000000000000000000000000000000000000000000000000000000000000000000000000000000000000000000000000000000000000000000000000000000000000000000000000000000000000000000000000000000000000000000000000000000000000000000000000000000000000000000000000000000000000000000000000000000000000000000000000000000000000000000000000000000000000000000000000000000000000000000000000000000000000000000000000000000000000000000000000000000000000000000000000000000000000",
      "type": "0x2",
      "transactionHash": "0x9a34ca8d938133b49938afd8700ebb91daf001c53e57801e391f3b4242098224",
      "transactionIndex": "0x0",
      "blockHash": "0x4b02c5abdcc56b5a1d52aebc43bd6cdd9cb087e24d2fdffd712980e0b8b7f664",
      "blockNumber": "0x176431b",
      "gasUsed": "0xb73c",
      "effectiveGasPrice": "0x90ecee",
      "blobGasUsed": "0x0",
      "from": "0xe8d4b94f256f9522b30f8795c42e17fa135c1cbf",
      "to": "0xc6b1df799110be7f01841cec6afe355035c99f96",
      "contractAddress": null
    },
    {
      "status": "0x1",
      "cumulativeGasUsed": "0xb530",
      "logs": [],
      "logsBloom": "0x00000000000000000000000000000000000000000000000000000000000000000000000000000000000000000000000000000000000000000000000000000000000000000000000000000000000000000000000000000000000000000000000000000000000000000000000000000000000000000000000000000000000000000000000000000000000000000000000000000000000000000000000000000000000000000000000000000000000000000000000000000000000000000000000000000000000000000000000000000000000000000000000000000000000000000000000000000000000000000000000000000000000000000000000000000000",
      "type": "0x2",
      "transactionHash": "0x70c7064863cfa1d351e0ddcdd1ba25e76301300e2e7c9a43154c7ae5fc7dfe2c",
      "transactionIndex": "0x0",
      "blockHash": "0x756d571e7914171377660741b8049738ca5c84a423fe998a338186d90cf6494c",
      "blockNumber": "0x176431c",
      "gasUsed": "0xb530",
      "effectiveGasPrice": "0x90ecee",
      "blobGasUsed": "0x0",
      "from": "0xe8d4b94f256f9522b30f8795c42e17fa135c1cbf",
      "to": "0xc6b1df799110be7f01841cec6afe355035c99f96",
      "contractAddress": null
    },
    {
      "status": "0x1",
      "cumulativeGasUsed": "0x10dc6",
      "logs": [],
      "logsBloom": "0x00000000000000000000000000000000000000000000000000000000000000000000000000000000000000000000000000000000000000000000000000000000000000000000000000000000000000000000000000000000000000000000000000000000000000000000000000000000000000000000000000000000000000000000000000000000000000000000000000000000000000000000000000000000000000000000000000000000000000000000000000000000000000000000000000000000000000000000000000000000000000000000000000000000000000000000000000000000000000000000000000000000000000000000000000000000",
      "type": "0x2",
      "transactionHash": "0x32fcd7c3832f0602cc37969b009707e0231f593d3671e5f92ee043884c06b681",
      "transactionIndex": "0x0",
      "blockHash": "0xc9373cbd922950a07d3d9f06e5b48b1e23a5a76ae785a40d083913b8a467c885",
      "blockNumber": "0x176431d",
      "gasUsed": "0x10dc6",
      "effectiveGasPrice": "0x90ecee",
      "blobGasUsed": "0x0",
      "from": "0xe8d4b94f256f9522b30f8795c42e17fa135c1cbf",
      "to": "0x993b8343ac68476e265ff4c0922d54ffbf018acb",
      "contractAddress": null
    },
    {
      "status": "0x1",
      "cumulativeGasUsed": "0x10dc6",
      "logs": [],
      "logsBloom": "0x00000000000000000000000000000000000000000000000000000000000000000000000000000000000000000000000000000000000000000000000000000000000000000000000000000000000000000000000000000000000000000000000000000000000000000000000000000000000000000000000000000000000000000000000000000000000000000000000000000000000000000000000000000000000000000000000000000000000000000000000000000000000000000000000000000000000000000000000000000000000000000000000000000000000000000000000000000000000000000000000000000000000000000000000000000000",
      "type": "0x2",
      "transactionHash": "0x9ef397457a3a8cf54fa96139ccc5433874cd48851669dee197ce421a14bd9b08",
      "transactionIndex": "0x0",
      "blockHash": "0x225258095b74730d85e704ff073bfb22bac819ef4d14b9af97195fa052f646b1",
      "blockNumber": "0x176431e",
      "gasUsed": "0x10dc6",
      "effectiveGasPrice": "0x90ecee",
      "blobGasUsed": "0x0",
      "from": "0xe8d4b94f256f9522b30f8795c42e17fa135c1cbf",
      "to": "0xf088769c4915e611384eb09d360ff3813bc32dc1",
      "contractAddress": null
    },
    {
      "status": "0x1",
      "cumulativeGasUsed": "0xb73c",
      "logs": [],
      "logsBloom": "0x00000000000000000000000000000000000000000000000000000000000000000000000000000000000000000000000000000000000000000000000000000000000000000000000000000000000000000000000000000000000000000000000000000000000000000000000000000000000000000000000000000000000000000000000000000000000000000000000000000000000000000000000000000000000000000000000000000000000000000000000000000000000000000000000000000000000000000000000000000000000000000000000000000000000000000000000000000000000000000000000000000000000000000000000000000000",
      "type": "0x2",
      "transactionHash": "0xd3280eb79eaecce580796eb674a97b07259421d5ad7f22defd6f4b783ab3d62a",
      "transactionIndex": "0x0",
      "blockHash": "0x3f16534543c7a3afd0267f67f5ced14848cdb1f0615b6170acce76c4c9459ce0",
      "blockNumber": "0x176431f",
      "gasUsed": "0xb73c",
      "effectiveGasPrice": "0x90ecee",
      "blobGasUsed": "0x0",
      "from": "0xe8d4b94f256f9522b30f8795c42e17fa135c1cbf",
      "to": "0xf088769c4915e611384eb09d360ff3813bc32dc1",
      "contractAddress": null
    },
    {
      "status": "0x1",
      "cumulativeGasUsed": "0xb530",
      "logs": [],
      "logsBloom": "0x00000000000000000000000000000000000000000000000000000000000000000000000000000000000000000000000000000000000000000000000000000000000000000000000000000000000000000000000000000000000000000000000000000000000000000000000000000000000000000000000000000000000000000000000000000000000000000000000000000000000000000000000000000000000000000000000000000000000000000000000000000000000000000000000000000000000000000000000000000000000000000000000000000000000000000000000000000000000000000000000000000000000000000000000000000000",
      "type": "0x2",
      "transactionHash": "0xb197428b21ce37c2a3a11f6e328b9550495dc3d021b64950e328abad0085f6e4",
      "transactionIndex": "0x0",
      "blockHash": "0x41790955f4613652365a110fba26b7cf26c56a4b771318bc2afe9bd7e63779d4",
      "blockNumber": "0x1764320",
      "gasUsed": "0xb530",
      "effectiveGasPrice": "0x90ecee",
      "blobGasUsed": "0x0",
      "from": "0xe8d4b94f256f9522b30f8795c42e17fa135c1cbf",
      "to": "0xf088769c4915e611384eb09d360ff3813bc32dc1",
      "contractAddress": null
    },
    {
      "status": "0x1",
      "cumulativeGasUsed": "0xb73c",
      "logs": [],
      "logsBloom": "0x00000000000000000000000000000000000000000000000000000000000000000000000000000000000000000000000000000000000000000000000000000000000000000000000000000000000000000000000000000000000000000000000000000000000000000000000000000000000000000000000000000000000000000000000000000000000000000000000000000000000000000000000000000000000000000000000000000000000000000000000000000000000000000000000000000000000000000000000000000000000000000000000000000000000000000000000000000000000000000000000000000000000000000000000000000000",
      "type": "0x2",
      "transactionHash": "0x2d3f4186a2211fc7d89b6d5a027153581a1024b69f4cff4432d10edbc91b3d14",
      "transactionIndex": "0x0",
      "blockHash": "0xe21e483ddde573a87382a2f4e94b22ff553c6b6d10ab14c3fd6f8085ef4a960c",
      "blockNumber": "0x1764321",
      "gasUsed": "0xb73c",
      "effectiveGasPrice": "0x90ecee",
      "blobGasUsed": "0x0",
      "from": "0xe8d4b94f256f9522b30f8795c42e17fa135c1cbf",
      "to": "0x993b8343ac68476e265ff4c0922d54ffbf018acb",
      "contractAddress": null
    },
    {
      "status": "0x1",
      "cumulativeGasUsed": "0xb530",
      "logs": [],
      "logsBloom": "0x00000000000000000000000000000000000000000000000000000000000000000000000000000000000000000000000000000000000000000000000000000000000000000000000000000000000000000000000000000000000000000000000000000000000000000000000000000000000000000000000000000000000000000000000000000000000000000000000000000000000000000000000000000000000000000000000000000000000000000000000000000000000000000000000000000000000000000000000000000000000000000000000000000000000000000000000000000000000000000000000000000000000000000000000000000000",
      "type": "0x2",
      "transactionHash": "0xb7532e1bd6d56b4cbbc1437433e9e340eefa3670b96fd6461df1b9a925de581d",
      "transactionIndex": "0x0",
      "blockHash": "0x3ffaf49cc6b25be07b51105882c49752d6fc8499a64d63c72fee33984a60ac8d",
      "blockNumber": "0x1764322",
      "gasUsed": "0xb530",
      "effectiveGasPrice": "0x90ecee",
      "blobGasUsed": "0x0",
      "from": "0xe8d4b94f256f9522b30f8795c42e17fa135c1cbf",
      "to": "0x993b8343ac68476e265ff4c0922d54ffbf018acb",
      "contractAddress": null
    }
  ],
  "libraries": [],
  "pending": [],
  "returns": {},
  "timestamp": 1771959290,
  "chain": 657,
  "commit": "2e9afd2"
}