{
  "transactions": [
    {
      "hash": "0x7608a685ab601678b65f56ed53b8eb09c2c853827d5cfc611a58fec151ab23b2",
      "transactionType": "CALL",
      "contractName": null,
      "contractAddress": "0x54609527b6051be07682b4c34fa08a2537ee2b5e",
      "function": "setPolicyManager(address)",
      "arguments": [
        "0xFF13c97803053F003bC69279aa63cE439f01BADB"
      ],
      "transaction": {
        "from": "0xe8d4b94f256f9522b30f8795c42e17fa135c1cbf",
        "to": "0x54609527b6051be07682b4c34fa08a2537ee2b5e",
        "gas": "0xfd01",
        "value": "0x0",
        "input": "0xadde41e1000000000000000000000000ff13c97803053f003bc69279aa63ce439f01badb",
        "nonce": "0x1b",
        "chainId": "0x291"
      },
      "additionalContracts": [],
      "isFixedGasLimit": false
    },
    {
      "hash": "0x261881c4171901c8c48937cf664d5d5a9c0a44268906d012110d181109d092d4",
      "transactionType": "CALL",
      "contractName": null,
      "contractAddress": "0x3ec994d93762b236cb8c48a123cdf127557a70ad",
      "function": "setPolicyManager(address)",
      "arguments": [
        "0xFF13c97803053F003bC69279aa63cE439f01BADB"
      ],
      "transaction": {
        "from": "0xe8d4b94f256f9522b30f8795c42e17fa135c1cbf",
        "to": "0x3ec994d93762b236cb8c48a123cdf127557a70ad",
        "gas": "0xfd01",
        "value": "0x0",
        "input": "0xadde41e1000000000000000000000000ff13c97803053f003bc69279aa63ce439f01badb",
        "nonce": "0x1c",
        "chainId": "0x291"
      },
      "additionalContracts": [],
      "isFixedGasLimit": false
    },
    {
      "hash": "0xdeee55cd7ce4f0bea296d8141205cdad0f1b02be1b3e9b8fd334e0f21f2032c6",
      "transactionType": "CALL",
      "contractName": null,
      "contractAddress": "0x19b02f81801b4295c6ad28380cf456d554679a23",
      "function": "setPolicyManager(address)",
      "arguments": [
        "0xFF13c97803053F003bC69279aa63cE439f01BADB"
      ],
      "transaction": {
        "from": "0xe8d4b94f256f9522b30f8795c42e17fa135c1cbf",
        "to": "0x19b02f81801b4295c6ad28380cf456d554679a23",
        "gas": "0xfd01",
        "value": "0x0",
        "input": "0xadde41e1000000000000000000000000ff13c97803053f003bc69279aa63ce439f01badb",
        "nonce": "0x1d",
        "chainId": "0x291"
      },
      "additionalContracts": [],
      "isFixedGasLimit": false
    },
    {
      "hash": "0x7b645d8f997b3d7a9f23f3a40f45ea2752951be93a40a7b5ba6ee8616e08ee58",
      "transactionType": "CALL",
      "contractName": null,
      "contractAddress": "0x3ec994d93762b236cb8c48a123cdf127557a70ad",
      "function": "setCapManager(address)",
      "arguments": [
        "0xFF13c97803053F003bC69279aa63cE439f01BADB"
      ],
      "transaction": {
        "from": "0xe8d4b94f256f9522b30f8795c42e17fa135c1cbf",
        "to": "0x3ec994d93762b236cb8c48a123cdf127557a70ad",
        "gas": "0x1071e",
        "value": "0x0",
        "input": "0x0e608b30000000000000000000000000ff13c97803053f003bc69279aa63ce439f01badb",
        "nonce": "0x1e",
        "chainId": "0x291"
      },
      "additionalContracts": [],
      "isFixedGasLimit": false
    },
    {
      "hash": "0x406295f176011caa167fdb292fc2f59cf20fb3e96f397c79fb9917f05fd1d80e",
      "transactionType": "CALL",
      "contractName": null,
      "contractAddress": "0x19b02f81801b4295c6ad28380cf456d554679a23",
      "function": "setCapManager(address)",
      "arguments": [
        "0xFF13c97803053F003bC69279aa63cE439f01BADB"
      ],
      "transaction": {
        "from": "0xe8d4b94f256f9522b30f8795c42e17fa135c1cbf",
        "to": "0x19b02f81801b4295c6ad28380cf456d554679a23",
        "gas": "0x1071e",
        "value": "0x0",
        "input": "0x0e608b30000000000000000000000000ff13c97803053f003bc69279aa63ce439f01badb",
        "nonce": "0x1f",
        "chainId": "0x291"
      },
      "additionalContracts": [],
      "isFixedGasLimit": false
    },
    {
      "hash": "0xa8c2b6d201183783b3a3a3ecd003296cc1674545fe869df7d20af80bebeb0735",
      "transactionType": "CALL",
      "contractName": null,
      "contractAddress": "0x54609527b6051be07682b4c34fa08a2537ee2b5e",
      "function": "setFee(uint256,address)",
      "arguments": [
        "50",
        "0xe8d4b94F256f9522b30f8795C42e17Fa135C1cbF"
      ],
      "transaction": {
        "from": "0xe8d4b94f256f9522b30f8795c42e17fa135c1cbf",
        "to": "0x54609527b6051be07682b4c34fa08a2537ee2b5e",
        "gas": "0x119e6",
        "value": "0x0",
        "input": "0xb4f2e8b80000000000000000000000000000000000000000000000000000000000000032000000000000000000000000e8d4b94f256f9522b30f8795c42e17fa135c1cbf",
        "nonce": "0x20",
        "chainId": "0x291"
      },
      "additionalContracts": [],
      "isFixedGasLimit": false
    },
    {
      "hash": "0x1112b7172b69b946589723674f29c2745ebf48a9cb160eec873a39cbaaa5bf09",
      "transactionType": "CALL",
      "contractName": null,
      "contractAddress": "0x3ec994d93762b236cb8c48a123cdf127557a70ad",
      "function": "setFee(uint256,address)",
      "arguments": [
        "50",
        "0xe8d4b94F256f9522b30f8795C42e17Fa135C1cbF"
      ],
      "transaction": {
        "from": "0xe8d4b94f256f9522b30f8795c42e17fa135c1cbf",
        "to": "0x3ec994d93762b236cb8c48a123cdf127557a70ad",
        "gas": "0x119e6",
        "value": "0x0",
        "input": "0xb4f2e8b80000000000000000000000000000000000000000000000000000000000000032000000000000000000000000e8d4b94f256f9522b30f8795c42e17fa135c1cbf",
        "nonce": "0x21",
        "chainId": "0x291"
      },
      "additionalContracts": [],
      "isFixedGasLimit": false
    },
    {
      "hash": "0x1e7076df1715be5243abb49464065e1abff364bc133a6a67ed6459d2464e81c1",
      "transactionType": "CALL",
      "contractName": null,
      "contractAddress": "0x19b02f81801b4295c6ad28380cf456d554679a23",
      "function": "setFee(uint256,address)",
      "arguments": [
        "50",
        "0xe8d4b94F256f9522b30f8795C42e17Fa135C1cbF"
      ],
      "transaction": {
        "from": "0xe8d4b94f256f9522b30f8795c42e17fa135c1cbf",
        "to": "0x19b02f81801b4295c6ad28380cf456d554679a23",
        "gas": "0x119e6",
        "value": "0x0",
        "input": "0xb4f2e8b80000000000000000000000000000000000000000000000000000000000000032000000000000000000000000e8d4b94f256f9522b30f8795c42e17fa135c1cbf",
        "nonce": "0x22",
        "chainId": "0x291"
      },
      "additionalContracts": [],
      "isFixedGasLimit": false
    },
    {
      "hash": "0xf0ea8513e42c2fbfba655507bb18cf062b6a24dde2836cf3c240fa3320041e52",
      "transactionType": "CALL",
      "contractName": null,
      "contractAddress": "0x54609527b6051be07682b4c34fa08a2537ee2b5e",
      "function": "setAavePool(address,address)",
      "arguments": [
        "0x87870Bca3F3fD6335C3F4ce8392D69350B4fA4E2",
        "0x98C23E9d8f34FEFb1B7BD6a91B7FF122F4e16F5c"
      ],
      "transaction": {
        "from": "0xe8d4b94f256f9522b30f8795c42e17fa135c1cbf",
        "to": "0x54609527b6051be07682b4c34fa08a2537ee2b5e",
        "gas": "0x1749f",
        "value": "0x0",
        "input": "0x4a9bd6df00000000000000000000000087870bca3f3fd6335c3f4ce8392d69350b4fa4e200000000000000000000000098c23e9d8f34fefb1b7bd6a91b7ff122f4e16f5c",
        "nonce": "0x23",
        "chainId": "0x291"
      },
      "additionalContracts": [],
      "isFixedGasLimit": false
    },
    {
      "hash": "0x84a162fffe4980e1f533bdba2065a8ea74262fd4f2b64c896a06945c86b08bf2",
      "transactionType": "CALL",
      "contractName": null,
      "contractAddress": "0x54609527b6051be07682b4c34fa08a2537ee2b5e",
      "function": "setAaveTargetBps(uint256)",
      "arguments": [
        "7000"
      ],
      "transaction": {
        "from": "0xe8d4b94f256f9522b30f8795c42e17fa135c1cbf",
        "to": "0x54609527b6051be07682b4c34fa08a2537ee2b5e",
        "gas": "0xfd16",
        "value": "0x0",
        "input": "0xf8321c310000000000000000000000000000000000000000000000000000000000001b58",
        "nonce": "0x24",
        "chainId": "0x291"
      },
      "additionalContracts": [],
      "isFixedGasLimit": false
    },
    {
      "hash": "0x68459e8f98815deb76265a2de6ce810ac0b9d34139a9265ebd048f970f7c0b4c",
      "transactionType": "CALL",
      "contractName": null,
      "contractAddress": "0x54609527b6051be07682b4c34fa08a2537ee2b5e",
      "function": "setAaveEnabled(bool)",
      "arguments": [
        "true"
      ],
      "transaction": {
        "from": "0xe8d4b94f256f9522b30f8795c42e17fa135c1cbf",
        "to": "0x54609527b6051be07682b4c34fa08a2537ee2b5e",
        "gas": "0xfa43",
        "value": "0x0",
        "input": "0x8a8b1bd70000000000000000000000000000000000000000000000000000000000000001",
        "nonce": "0x25",
        "chainId": "0x291"
      },
      "additionalContracts": [],
      "isFixedGasLimit": false
    },
    {
      "hash": "0x6b43ed4333d16b865d4d95d48fb8e8e3f35a21f61d05a11ca144ae4f40f3e443",
      "transactionType": "CALL",
      "contractName": null,
      "contractAddress": "0x3ec994d93762b236cb8c48a123cdf127557a70ad",
      "function": "setAavePool(address,address)",
      "arguments": [
        "0x87870Bca3F3fD6335C3F4ce8392D69350B4fA4E2",
        "0x98C23E9d8f34FEFb1B7BD6a91B7FF122F4e16F5c"
      ],
      "transaction": {
        "from": "0xe8d4b94f256f9522b30f8795c42e17fa135c1cbf",
        "to": "0x3ec994d93762b236cb8c48a123cdf127557a70ad",
        "gas": "0x1749f",
        "value": "0x0",
        "input": "0x4a9bd6df00000000000000000000000087870bca3f3fd6335c3f4ce8392d69350b4fa4e200000000000000000000000098c23e9d8f34fefb1b7bd6a91b7ff122f4e16f5c",
        "nonce": "0x26",
        "chainId": "0x291"
      },
      "additionalContracts": [],
      "isFixedGasLimit": false
    },
    {
      "hash": "0x22098c615365eea384d524b07bef65120b4489c35d2f09d7dd40e452142e2207",
      "transactionType": "CALL",
      "contractName": null,
      "contractAddress": "0x3ec994d93762b236cb8c48a123cdf127557a70ad",
      "function": "setAaveTargetBps(uint256)",
      "arguments": [
        "7000"
      ],
      "transaction": {
        "from": "0xe8d4b94f256f9522b30f8795c42e17fa135c1cbf",
        "to": "0x3ec994d93762b236cb8c48a123cdf127557a70ad",
        "gas": "0xfd16",
        "value": "0x0",
        "input": "0xf8321c310000000000000000000000000000000000000000000000000000000000001b58",
        "nonce": "0x27",
        "chainId": "0x291"
      },
      "additionalContracts": [],
      "isFixedGasLimit": false
    },
    {
      "hash": "0x45c4a626e6727fd800904191647abe3f96895b02046d262429006850b2023e0b",
      "transactionType": "CALL",
      "contractName": null,
      "contractAddress": "0x3ec994d93762b236cb8c48a123cdf127557a70ad",
      "function": "setAaveEnabled(bool)",
      "arguments": [
        "true"
      ],
      "transaction": {
        "from": "0xe8d4b94f256f9522b30f8795c42e17fa135c1cbf",
        "to": "0x3ec994d93762b236cb8c48a123cdf127557a70ad",
        "gas": "0xfa43",
        "value": "0x0",
        "input": "0x8a8b1bd70000000000000000000000000000000000000000000000000000000000000001",
        "nonce": "0x28",
        "chainId": "0x291"
      },
      "additionalContracts": [],
      "isFixedGasLimit": false
    },
    {
      "hash": "0xd59df0e753fabb6c709b7ce35816596b85aa1147b07f01429800b5fa707bd37b",
      "transactionType": "CALL",
      "contractName": null,
      "contractAddress": "0x19b02f81801b4295c6ad28380cf456d554679a23",
      "function": "setAavePool(address,address)",
      "arguments": [
        "0x87870Bca3F3fD6335C3F4ce8392D69350B4fA4E2",
        "0x98C23E9d8f34FEFb1B7BD6a91B7FF122F4e16F5c"
      ],
      "transaction": {
        "from": "0xe8d4b94f256f9522b30f8795c42e17fa135c1cbf",
        "to": "0x19b02f81801b4295c6ad28380cf456d554679a23",
        "gas": "0x1749f",
        "value": "0x0",
        "input": "0x4a9bd6df00000000000000000000000087870bca3f3fd6335c3f4ce8392d69350b4fa4e200000000000000000000000098c23e9d8f34fefb1b7bd6a91b7ff122f4e16f5c",
        "nonce": "0x29",
        "chainId": "0x291"
      },
      "additionalContracts": [],
      "isFixedGasLimit": false
    },
    {
      "hash": "0xa5b54e12d7b3da09e290af8ab3703de4d43ebf61c65fddd236a92ce89640b531",
      "transactionType": "CALL",
      "contractName": null,
      "contractAddress": "0x19b02f81801b4295c6ad28380cf456d554679a23",
      "function": "setAaveTargetBps(uint256)",
      "arguments": [
        "7000"
      ],
      "transaction": {
        "from": "0xe8d4b94f256f9522b30f8795c42e17fa135c1cbf",
        "to": "0x19b02f81801b4295c6ad28380cf456d554679a23",
        "gas": "0xfd16",
        "value": "0x0",
        "input": "0xf8321c310000000000000000000000000000000000000000000000000000000000001b58",
        "nonce": "0x2a",
        "chainId": "0x291"
      },
      "additionalContracts": [],
      "isFixedGasLimit": false
    },
    {
      "hash": null,
      "transactionType": "CALL",
      "contractName": null,
      "contractAddress": "0x19b02f81801b4295c6ad28380cf456d554679a23",
      "function": "setAaveEnabled(bool)",
      "arguments": [
        "true"
      ],
      "transaction": {
        "from": "0xe8d4b94f256f9522b30f8795c42e17fa135c1cbf",
        "to": "0x19b02f81801b4295c6ad28380cf456d554679a23",
        "gas": "0xfa43",
        "value": "0x0",
        "input": "0x8a8b1bd70000000000000000000000000000000000000000000000000000000000000001",
        "nonce": "0x2b",
        "chainId": "0x291"
      },
      "additionalContracts": [],
      "isFixedGasLimit": false
    }
  ],
  "receipts": [],
  "libraries": [],
  "pending": [
    "0x7608a685ab601678b65f56ed53b8eb09c2c853827d5cfc611a58fec151ab23b2",
    "0x261881c4171901c8c48937cf664d5d5a9c0a44268906d012110d181109d092d4",
    "0xdeee55cd7ce4f0bea296d8141205cdad0f1b02be1b3e9b8fd334e0f21f2032c6",
    "0x7b645d8f997b3d7a9f23f3a40f45ea2752951be93a40a7b5ba6ee8616e08ee58",
    "0x406295f176011caa167fdb292fc2f59cf20fb3e96f397c79fb9917f05fd1d80e",
    "0xa8c2b6d201183783b3a3a3ecd003296cc1674545fe869df7d20af80bebeb0735",
    "0x1112b7172b69b946589723674f29c2745ebf48a9cb160eec873a39cbaaa5bf09",
    "0x1e7076df1715be5243abb49464065e1abff364bc133a6a67ed6459d2464e81c1",
    "0xf0ea8513e42c2fbfba655507bb18cf062b6a24dde2836cf3c240fa3320041e52",
    "0x84a162fffe4980e1f533bdba2065a8ea74262fd4f2b64c896a06945c86b08bf2",
    "0x68459e8f98815deb76265a2de6ce810ac0b9d34139a9265ebd048f970f7c0b4c",
    "0x6b43ed4333d16b865d4d95d48fb8e8e3f35a21f61d05a11ca144ae4f40f3e443",
    "0x22098c615365eea384d524b07bef65120b4489c35d2f09d7dd40e452142e2207",
    "0x45c4a626e6727fd800904191647abe3f96895b02046d262429006850b2023e0b",
    "0xd59df0e753fabb6c709b7ce35816596b85aa1147b07f01429800b5fa707bd37b",
    "0xa5b54e12d7b3da09e290af8ab3703de4d43ebf61c65fddd236a92ce89640b531"
  ],
  "returns": {},
  "timestamp": 1772188473,
  "chain": 657,
  "commit": "c6e5fe8"
}