{
  "transactions": [
    {
      "hash": "0x7a2c642f3b08f360d93163b419909d02a50edf758e98881a8999d21bbf757cc8",
      "transactionType": "CALL",
      "contractName": null,
      "contractAddress": "0x8c20b0469fdbce27bdf894425115e07096c0ea9f",
      "function": "setPolicyManager(address)",
      "arguments": [
        "0xEfC0E3ff32A6e71D7661062E9F444D919F4b17e4"
      ],
      "transaction": {
        "from": "0xe8d4b94f256f9522b30f8795c42e17fa135c1cbf",
        "to": "0x8c20b0469fdbce27bdf894425115e07096c0ea9f",
        "gas": "0x10bf6",
        "value": "0x0",
        "input": "0xadde41e1000000000000000000000000efc0e3ff32a6e71d7661062e9f444d919f4b17e4",
        "nonce": "0x5",
        "chainId": "0x291"
      },
      "additionalContracts": [],
      "isFixedGasLimit": false
    },
    {
      "hash": "0x56974cd423b24ed088ef3e73cdca2cc18fce49ec1949925d5ddf09aae474f028",
      "transactionType": "CALL",
      "contractName": null,
      "contractAddress": "0xe3e1b5a56d11376d27c0eff3256e7299df197d5e",
      "function": "setPolicyManager(address)",
      "arguments": [
        "0xEfC0E3ff32A6e71D7661062E9F444D919F4b17e4"
      ],
      "transaction": {
        "from": "0xe8d4b94f256f9522b30f8795c42e17fa135c1cbf",
        "to": "0xe3e1b5a56d11376d27c0eff3256e7299df197d5e",
        "gas": "0x10bf6",
        "value": "0x0",
        "input": "0xadde41e1000000000000000000000000efc0e3ff32a6e71d7661062e9f444d919f4b17e4",
        "nonce": "0x6",
        "chainId": "0x291"
      },
      "additionalContracts": [],
      "isFixedGasLimit": false
    },
    {
      "hash": "0xe36fe8e771d95e6dbfd79072da4bfbaacfe61b8ab18fcbe2393d04b95657c1d3",
      "transactionType": "CALL",
      "contractName": null,
      "contractAddress": "0x016e6e63965988fa71a6d4650d74da245228001a",
      "function": "setPolicyManager(address)",
      "arguments": [
        "0xEfC0E3ff32A6e71D7661062E9F444D919F4b17e4"
      ],
      "transaction": {
        "from": "0xe8d4b94f256f9522b30f8795c42e17fa135c1cbf",
        "to": "0x016e6e63965988fa71a6d4650d74da245228001a",
        "gas": "0x10bf6",
        "value": "0x0",
        "input": "0xadde41e1000000000000000000000000efc0e3ff32a6e71d7661062e9f444d919f4b17e4",
        "nonce": "0x7",
        "chainId": "0x291"
      },
      "additionalContracts": [],
      "isFixedGasLimit": false
    },
    {
      "hash": "0x6414c28bbd88b07fdbb8ebb83fde45c9b8afba81bd3c70ea5142c625cb0a0ec5",
      "transactionType": "CALL",
      "contractName": null,
      "contractAddress": "0xe3e1b5a56d11376d27c0eff3256e7299df197d5e",
      "function": "setCapManager(address)",
      "arguments": [
        "0xEfC0E3ff32A6e71D7661062E9F444D919F4b17e4"
      ],
      "transaction": {
        "from": "0xe8d4b94f256f9522b30f8795c42e17fa135c1cbf",
        "to": "0xe3e1b5a56d11376d27c0eff3256e7299df197d5e",
        "gas": "0xf890",
        "value": "0x0",
        "input": "0x0e608b30000000000000000000000000efc0e3ff32a6e71d7661062e9f444d919f4b17e4",
        "nonce": "0x8",
        "chainId": "0x291"
      },
      "additionalContracts": [],
      "isFixedGasLimit": false
    },
    {
      "hash": "0x0ceee42d7ac02fff7a865ed5d07e9ffb5cf6d3f693af3df7fcfca5f9eadd1d74",
      "transactionType": "CALL",
      "contractName": null,
      "contractAddress": "0x016e6e63965988fa71a6d4650d74da245228001a",
      "function": "setCapManager(address)",
      "arguments": [
        "0xEfC0E3ff32A6e71D7661062E9F444D919F4b17e4"
      ],
      "transaction": {
        "from": "0xe8d4b94f256f9522b30f8795c42e17fa135c1cbf",
        "to": "0x016e6e63965988fa71a6d4650d74da245228001a",
        "gas": "0xf890",
        "value": "0x0",
        "input": "0x0e608b30000000000000000000000000efc0e3ff32a6e71d7661062e9f444d919f4b17e4",
        "nonce": "0x9",
        "chainId": "0x291"
      },
      "additionalContracts": [],
      "isFixedGasLimit": false
    },
    {
      "hash": "0x7a310b63952af8d627a353124381065cec05c5d9f3b77725a48b79b13a0a1f2a",
      "transactionType": "CALL",
      "contractName": null,
      "contractAddress": "0x8c20b0469fdbce27bdf894425115e07096c0ea9f",
      "function": "setFee(uint256,address)",
      "arguments": [
        "50",
        "0xe8d4b94F256f9522b30f8795C42e17Fa135C1cbF"
      ],
      "transaction": {
        "from": "0xe8d4b94f256f9522b30f8795c42e17fa135c1cbf",
        "to": "0x8c20b0469fdbce27bdf894425115e07096c0ea9f",
        "gas": "0x119e6",
        "value": "0x0",
        "input": "0xb4f2e8b80000000000000000000000000000000000000000000000000000000000000032000000000000000000000000e8d4b94f256f9522b30f8795c42e17fa135c1cbf",
        "nonce": "0xa",
        "chainId": "0x291"
      },
      "additionalContracts": [],
      "isFixedGasLimit": false
    },
    {
      "hash": "0x1b37fae4c46f60d2b3420e4da922c5be27f7a652289639d687e13ed97cf254bd",
      "transactionType": "CALL",
      "contractName": null,
      "contractAddress": "0xe3e1b5a56d11376d27c0eff3256e7299df197d5e",
      "function": "setFee(uint256,address)",
      "arguments": [
        "50",
        "0xe8d4b94F256f9522b30f8795C42e17Fa135C1cbF"
      ],
      "transaction": {
        "from": "0xe8d4b94f256f9522b30f8795c42e17fa135c1cbf",
        "to": "0xe3e1b5a56d11376d27c0eff3256e7299df197d5e",
        "gas": "0x119e6",
        "value": "0x0",
        "input": "0xb4f2e8b80000000000000000000000000000000000000000000000000000000000000032000000000000000000000000e8d4b94f256f9522b30f8795c42e17fa135c1cbf",
        "nonce": "0xb",
        "chainId": "0x291"
      },
      "additionalContracts": [],
      "isFixedGasLimit": false
    },
    {
      "hash": "0x32ccc95112da1bab470e5001abb35c90bc3c3b8265e85d020b4bf6cff5b28af1",
      "transactionType": "CALL",
      "contractName": null,
      "contractAddress": "0x016e6e63965988fa71a6d4650d74da245228001a",
      "function": "setFee(uint256,address)",
      "arguments": [
        "50",
        "0xe8d4b94F256f9522b30f8795C42e17Fa135C1cbF"
      ],
      "transaction": {
        "from": "0xe8d4b94f256f9522b30f8795c42e17fa135c1cbf",
        "to": "0x016e6e63965988fa71a6d4650d74da245228001a",
        "gas": "0x119e6",
        "value": "0x0",
        "input": "0xb4f2e8b80000000000000000000000000000000000000000000000000000000000000032000000000000000000000000e8d4b94f256f9522b30f8795c42e17fa135c1cbf",
        "nonce": "0xc",
        "chainId": "0x291"
      },
      "additionalContracts": [],
      "isFixedGasLimit": false
    },
    {
      "hash": "0x4639b427b21862e12be47814fb6f5e7787faf34ba8a9f1fde62a332afe642f8b",
      "transactionType": "CALL",
      "contractName": null,
      "contractAddress": "0x8c20b0469fdbce27bdf894425115e07096c0ea9f",
      "function": "setAavePool(address,address)",
      "arguments": [
        "0x87870Bca3F3fD6335C3F4ce8392D69350B4fA4E2",
        "0x98C23E9d8f34FEFb1B7BD6a91B7FF122F4e16F5c"
      ],
      "transaction": {
        "from": "0xe8d4b94f256f9522b30f8795c42e17fa135c1cbf",
        "to": "0x8c20b0469fdbce27bdf894425115e07096c0ea9f",
        "gas": "0x1749f",
        "value": "0x0",
        "input": "0x4a9bd6df00000000000000000000000087870bca3f3fd6335c3f4ce8392d69350b4fa4e200000000000000000000000098c23e9d8f34fefb1b7bd6a91b7ff122f4e16f5c",
        "nonce": "0xd",
        "chainId": "0x291"
      },
      "additionalContracts": [],
      "isFixedGasLimit": false
    },
    {
      "hash": "0x521d8da82642c2561e91d1f7fdc0bb9fbd9ea29417bb8405c0d17dca55285c2e",
      "transactionType": "CALL",
      "contractName": null,
      "contractAddress": "0x8c20b0469fdbce27bdf894425115e07096c0ea9f",
      "function": "setAaveTargetBps(uint256)",
      "arguments": [
        "7000"
      ],
      "transaction": {
        "from": "0xe8d4b94f256f9522b30f8795c42e17fa135c1cbf",
        "to": "0x8c20b0469fdbce27bdf894425115e07096c0ea9f",
        "gas": "0xfd16",
        "value": "0x0",
        "input": "0xf8321c310000000000000000000000000000000000000000000000000000000000001b58",
        "nonce": "0xe",
        "chainId": "0x291"
      },
      "additionalContracts": [],
      "isFixedGasLimit": false
    },
    {
      "hash": "0x238850ab2a2cfe9d840bb0aa9aeadacdb09683647a02288abb75e9dbbfaea599",
      "transactionType": "CALL",
      "contractName": null,
      "contractAddress": "0x8c20b0469fdbce27bdf894425115e07096c0ea9f",
      "function": "setAaveEnabled(bool)",
      "arguments": [
        "true"
      ],
      "transaction": {
        "from": "0xe8d4b94f256f9522b30f8795c42e17fa135c1cbf",
        "to": "0x8c20b0469fdbce27bdf894425115e07096c0ea9f",
        "gas": "0xfa43",
        "value": "0x0",
        "input": "0x8a8b1bd70000000000000000000000000000000000000000000000000000000000000001",
        "nonce": "0xf",
        "chainId": "0x291"
      },
      "additionalContracts": [],
      "isFixedGasLimit": false
    },
    {
      "hash": "0xd7965ceb1db843feacd30bae62396ddf50b21c7fbb62ddd619f6fec6951ffda1",
      "transactionType": "CALL",
      "contractName": null,
      "contractAddress": "0xe3e1b5a56d11376d27c0eff3256e7299df197d5e",
      "function": "setAavePool(address,address)",
      "arguments": [
        "0x87870Bca3F3fD6335C3F4ce8392D69350B4fA4E2",
        "0x98C23E9d8f34FEFb1B7BD6a91B7FF122F4e16F5c"
      ],
      "transaction": {
        "from": "0xe8d4b94f256f9522b30f8795c42e17fa135c1cbf",
        "to": "0xe3e1b5a56d11376d27c0eff3256e7299df197d5e",
        "gas": "0x1749f",
        "value": "0x0",
        "input": "0x4a9bd6df00000000000000000000000087870bca3f3fd6335c3f4ce8392d69350b4fa4e200000000000000000000000098c23e9d8f34fefb1b7bd6a91b7ff122f4e16f5c",
        "nonce": "0x10",
        "chainId": "0x291"
      },
      "additionalContracts": [],
      "isFixedGasLimit": false
    },
    {
      "hash": "0x18270fd256409f08a10564165ccd28d06d7360fddb76777e2cf2d9a529317dc6",
      "transactionType": "CALL",
      "contractName": null,
      "contractAddress": "0xe3e1b5a56d11376d27c0eff3256e7299df197d5e",
      "function": "setAaveTargetBps(uint256)",
      "arguments": [
        "7000"
      ],
      "transaction": {
        "from": "0xe8d4b94f256f9522b30f8795c42e17fa135c1cbf",
        "to": "0xe3e1b5a56d11376d27c0eff3256e7299df197d5e",
        "gas": "0xfd16",
        "value": "0x0",
        "input": "0xf8321c310000000000000000000000000000000000000000000000000000000000001b58",
        "nonce": "0x11",
        "chainId": "0x291"
      },
      "additionalContracts": [],
      "isFixedGasLimit": false
    },
    {
      "hash": "0xeab1653cef5d002a136b5245a8a0d307fd925a365028a5e77bc9340935b3f093",
      "transactionType": "CALL",
      "contractName": null,
      "contractAddress": "0xe3e1b5a56d11376d27c0eff3256e7299df197d5e",
      "function": "setAaveEnabled(bool)",
      "arguments": [
        "true"
      ],
      "transaction": {
        "from": "0xe8d4b94f256f9522b30f8795c42e17fa135c1cbf",
        "to": "0xe3e1b5a56d11376d27c0eff3256e7299df197d5e",
        "gas": "0xfa43",
        "value": "0x0",
        "input": "0x8a8b1bd70000000000000000000000000000000000000000000000000000000000000001",
        "nonce": "0x12",
        "chainId": "0x291"
      },
      "additionalContracts": [],
      "isFixedGasLimit": false
    },
    {
      "hash": "0x4bdf0475b447e184d0eec430d53a684ae233f6445cf55e756c10da4fecdc106b",
      "transactionType": "CALL",
      "contractName": null,
      "contractAddress": "0x016e6e63965988fa71a6d4650d74da245228001a",
      "function": "setAavePool(address,address)",
      "arguments": [
        "0x87870Bca3F3fD6335C3F4ce8392D69350B4fA4E2",
        "0x98C23E9d8f34FEFb1B7BD6a91B7FF122F4e16F5c"
      ],
      "transaction": {
        "from": "0xe8d4b94f256f9522b30f8795c42e17fa135c1cbf",
        "to": "0x016e6e63965988fa71a6d4650d74da245228001a",
        "gas": "0x1749f",
        "value": "0x0",
        "input": "0x4a9bd6df00000000000000000000000087870bca3f3fd6335c3f4ce8392d69350b4fa4e200000000000000000000000098c23e9d8f34fefb1b7bd6a91b7ff122f4e16f5c",
        "nonce": "0x13",
        "chainId": "0x291"
      },
      "additionalContracts": [],
      "isFixedGasLimit": false
    },
    {
      "hash": "0x17f06c9be971dab0ac8e06f6a974fb406fda3998c23b3df0530cdfa67c06f0fd",
      "transactionType": "CALL",
      "contractName": null,
      "contractAddress": "0x016e6e63965988fa71a6d4650d74da245228001a",
      "function": "setAaveTargetBps(uint256)",
      "arguments": [
        "7000"
      ],
      "transaction": {
        "from": "0xe8d4b94f256f9522b30f8795c42e17fa135c1cbf",
        "to": "0x016e6e63965988fa71a6d4650d74da245228001a",
        "gas": "0xfd16",
        "value": "0x0",
        "input": "0xf8321c310000000000000000000000000000000000000000000000000000000000001b58",
        "nonce": "0x14",
        "chainId": "0x291"
      },
      "additionalContracts": [],
      "isFixedGasLimit": false
    },
    {
      "hash": "0x3bebb3dd98b6ca8e9c2dc0957f48973ca60ab6de09cb4b0ed7e4d3de8126af6e",
      "transactionType": "CALL",
      "contractName": null,
      "contractAddress": "0x016e6e63965988fa71a6d4650d74da245228001a",
      "function": "setAaveEnabled(bool)",
      "arguments": [
        "true"
      ],
      "transaction": {
        "from": "0xe8d4b94f256f9522b30f8795c42e17fa135c1cbf",
        "to": "0x016e6e63965988fa71a6d4650d74da245228001a",
        "gas": "0xfa43",
        "value": "0x0",
        "input": "0x8a8b1bd70000000000000000000000000000000000000000000000000000000000000001",
        "nonce": "0x15",
        "chainId": "0x291"
      },
      "additionalContracts": [],
      "isFixedGasLimit": false
    }
  ],
  "receipts": [
    {
      "status": "0x1",
      "cumulativeGasUsed": "0xb739",
      "logs": [],
      "logsBloom": "0x00000000000000000000000000000000000000000000000000000000000000000000000000000000000000000000000000000000000000000000000000000000000000000000000000000000000000000000000000000000000000000000000000000000000000000000000000000000000000000000000000000000000000000000000000000000000000000000000000000000000000000000000000000000000000000000000000000000000000000000000000000000000000000000000000000000000000000000000000000000000000000000000000000000000000000000000000000000000000000000000000000000000000000000000000000000",
      "type": "0x2",
      "transactionHash": "0x7a2c642f3b08f360d93163b419909d02a50edf758e98881a8999d21bbf757cc8",
      "transactionIndex": "0x0",
      "blockHash": "0xe010a665aabdc2898dcc7bcf3f025447825990a5424851447ba7598004227d27",
      "blockNumber": "0x1769182",
      "gasUsed": "0xb739",
      "effectiveGasPrice": "0x7a667",
      "blobGasUsed": "0x0",
      "from": "0xe8d4b94f256f9522b30f8795c42e17fa135c1cbf",
      "to": "0x8c20b0469fdbce27bdf894425115e07096c0ea9f",
      "contractAddress": null
    },
    {
      "status": "0x1",
      "cumulativeGasUsed": "0xb3f5",
      "logs": [],
      "logsBloom": "0x00000000000000000000000000000000000000000000000000000000000000000000000000000000000000000000000000000000000000000000000000000000000000000000000000000000000000000000000000000000000000000000000000000000000000000000000000000000000000000000000000000000000000000000000000000000000000000000000000000000000000000000000000000000000000000000000000000000000000000000000000000000000000000000000000000000000000000000000000000000000000000000000000000000000000000000000000000000000000000000000000000000000000000000000000000000",
      "type": "0x2",
      "transactionHash": "0x6414c28bbd88b07fdbb8ebb83fde45c9b8afba81bd3c70ea5142c625cb0a0ec5",
      "transactionIndex": "0x0",
      "blockHash": "0x7798ef9ecc836f683524ff381d92373ef36f1b30eb89df8305977b653b29006c",
      "blockNumber": "0x1769183",
      "gasUsed": "0xb3f5",
      "effectiveGasPrice": "0x7a667",
      "blobGasUsed": "0x0",
      "from": "0xe8d4b94f256f9522b30f8795c42e17fa135c1cbf",
      "to": "0xe3e1b5a56d11376d27c0eff3256e7299df197d5e",
      "contractAddress": null
    },
    {
      "status": "0x1",
      "cumulativeGasUsed": "0xc0c1",
      "logs": [],
      "logsBloom": "0x00000000000000000000000000000000000000000000000000000000000000000000000000000000000000000000000000000000000000000000000000000000000000000000000000000000000000000000000000000000000000000000000000000000000000000000000000000000000000000000000000000000000000000000000000000000000000000000000000000000000000000000000000000000000000000000000000000000000000000000000000000000000000000000000000000000000000000000000000000000000000000000000000000000000000000000000000000000000000000000000000000000000000000000000000000000",
      "type": "0x2",
      "transactionHash": "0x1b37fae4c46f60d2b3420e4da922c5be27f7a652289639d687e13ed97cf254bd",
      "transactionIndex": "0x0",
      "blockHash": "0x7f46d334433ef1cb474c3bb173a90bc13aeb62b06159c22ec17bfb6c9dec930f",
      "blockNumber": "0x1769184",
      "gasUsed": "0xc0c1",
      "effectiveGasPrice": "0x7a667",
      "blobGasUsed": "0x0",
      "from": "0xe8d4b94f256f9522b30f8795c42e17fa135c1cbf",
      "to": "0xe3e1b5a56d11376d27c0eff3256e7299df197d5e",
      "contractAddress": null
    },
    {
      "status": "0x1",
      "cumulativeGasUsed": "0xb739",
      "logs": [],
      "logsBloom": "0x00000000000000000000000000000000000000000000000000000000000000000000000000000000000000000000000000000000000000000000000000000000000000000000000000000000000000000000000000000000000000000000000000000000000000000000000000000000000000000000000000000000000000000000000000000000000000000000000000000000000000000000000000000000000000000000000000000000000000000000000000000000000000000000000000000000000000000000000000000000000000000000000000000000000000000000000000000000000000000000000000000000000000000000000000000000",
      "type": "0x2",
      "transactionHash": "0x56974cd423b24ed088ef3e73cdca2cc18fce49ec1949925d5ddf09aae474f028",
      "transactionIndex": "0x0",
      "blockHash": "0xef20df5893762a55a1536809f0b55631c6d5a5dbcb30f3d9d887dba468d96620",
      "blockNumber": "0x1769185",
      "gasUsed": "0xb739",
      "effectiveGasPrice": "0x7a667",
      "blobGasUsed": "0x0",
      "from": "0xe8d4b94f256f9522b30f8795c42e17fa135c1cbf",
      "to": "0xe3e1b5a56d11376d27c0eff3256e7299df197d5e",
      "contractAddress": null
    },
    {
      "status": "0x1",
      "cumulativeGasUsed": "0xb739",
      "logs": [],
      "logsBloom": "0x00000000000000000000000000000000000000000000000000000000000000000000000000000000000000000000000000000000000000000000000000000000000000000000000000000000000000000000000000000000000000000000000000000000000000000000000000000000000000000000000000000000000000000000000000000000000000000000000000000000000000000000000000000000000000000000000000000000000000000000000000000000000000000000000000000000000000000000000000000000000000000000000000000000000000000000000000000000000000000000000000000000000000000000000000000000",
      "type": "0x2",
      "transactionHash": "0xe36fe8e771d95e6dbfd79072da4bfbaacfe61b8ab18fcbe2393d04b95657c1d3",
      "transactionIndex": "0x0",
      "blockHash": "0xcfb381215c5693973aa5496441c25c0405ac0206dfa8ef9937c202498d15c164",
      "blockNumber": "0x1769186",
      "gasUsed": "0xb739",
      "effectiveGasPrice": "0x7a667",
      "blobGasUsed": "0x0",
      "from": "0xe8d4b94f256f9522b30f8795c42e17fa135c1cbf",
      "to": "0x016e6e63965988fa71a6d4650d74da245228001a",
      "contractAddress": null
    },
    {
      "status": "0x1",
      "cumulativeGasUsed": "0xc0c1",
      "logs": [],
      "logsBloom": "0x00000000000000000000000000000000000000000000000000000000000000000000000000000000000000000000000000000000000000000000000000000000000000000000000000000000000000000000000000000000000000000000000000000000000000000000000000000000000000000000000000000000000000000000000000000000000000000000000000000000000000000000000000000000000000000000000000000000000000000000000000000000000000000000000000000000000000000000000000000000000000000000000000000000000000000000000000000000000000000000000000000000000000000000000000000000",
      "type": "0x2",
      "transactionHash": "0x7a310b63952af8d627a353124381065cec05c5d9f3b77725a48b79b13a0a1f2a",
      "transactionIndex": "0x0",
      "blockHash": "0x1e12366dc793389ce72713c4e465c8adbeed11eba877bce93553c5c640bac504",
      "blockNumber": "0x1769187",
      "gasUsed": "0xc0c1",
      "effectiveGasPrice": "0x7a667",
      "blobGasUsed": "0x0",
      "from": "0xe8d4b94f256f9522b30f8795c42e17fa135c1cbf",
      "to": "0x8c20b0469fdbce27bdf894425115e07096c0ea9f",
      "contractAddress": null
    },
    {
      "status": "0x1",
      "cumulativeGasUsed": "0xb3f5",
      "logs": [],
      "logsBloom": "0x00000000000000000000000000000000000000000000000000000000000000000000000000000000000000000000000000000000000000000000000000000000000000000000000000000000000000000000000000000000000000000000000000000000000000000000000000000000000000000000000000000000000000000000000000000000000000000000000000000000000000000000000000000000000000000000000000000000000000000000000000000000000000000000000000000000000000000000000000000000000000000000000000000000000000000000000000000000000000000000000000000000000000000000000000000000",
      "type": "0x2",
      "transactionHash": "0x0ceee42d7ac02fff7a865ed5d07e9ffb5cf6d3f693af3df7fcfca5f9eadd1d74",
      "transactionIndex": "0x0",
      "blockHash": "0x8f24ad9f5bb82af52c7f0d7078e31ce729ab7f0cc865c2ab8b90d1332feb34a1",
      "blockNumber": "0x1769188",
      "gasUsed": "0xb3f5",
      "effectiveGasPrice": "0x7a667",
      "blobGasUsed": "0x0",
      "from": "0xe8d4b94f256f9522b30f8795c42e17fa135c1cbf",
      "to": "0x016e6e63965988fa71a6d4650d74da245228001a",
      "contractAddress": null
    },
    {
      "status": "0x1",
      "cumulativeGasUsed": "0xc0c1",
      "logs": [],
      "logsBloom": "0x00000000000000000000000000000000000000000000000000000000000000000000000000000000000000000000000000000000000000000000000000000000000000000000000000000000000000000000000000000000000000000000000000000000000000000000000000000000000000000000000000000000000000000000000000000000000000000000000000000000000000000000000000000000000000000000000000000000000000000000000000000000000000000000000000000000000000000000000000000000000000000000000000000000000000000000000000000000000000000000000000000000000000000000000000000000",
      "type": "0x2",
      "transactionHash": "0x32ccc95112da1bab470e5001abb35c90bc3c3b8265e85d020b4bf6cff5b28af1",
      "transactionIndex": "0x0",
      "blockHash": "0x9851fc30f4a70d842884da0f34dc8eef21c00d946e59444fe8019d14ebe2cc56",
      "blockNumber": "0x1769189",
      "gasUsed": "0xc0c1",
      "effectiveGasPrice": "0x7a667",
      "blobGasUsed": "0x0",
      "from": "0xe8d4b94f256f9522b30f8795c42e17fa135c1cbf",
      "to": "0x016e6e63965988fa71a6d4650d74da245228001a",
      "contractAddress": null
    },
    {
      "status": "0x1",
      "cumulativeGasUsed": "0x10dc6",
      "logs": [],
      "logsBloom": "0x00000000000000000000000000000000000000000000000000000000000000000000000000000000000000000000000000000000000000000000000000000000000000000000000000000000000000000000000000000000000000000000000000000000000000000000000000000000000000000000000000000000000000000000000000000000000000000000000000000000000000000000000000000000000000000000000000000000000000000000000000000000000000000000000000000000000000000000000000000000000000000000000000000000000000000000000000000000000000000000000000000000000000000000000000000000",
      "type": "0x2",
      "transactionHash": "0x4639b427b21862e12be47814fb6f5e7787faf34ba8a9f1fde62a332afe642f8b",
      "transactionIndex": "0x0",
      "blockHash": "0x43e89ee3857d79e09e167e21863691f23c8d0d766ed7f66b57825158ef306908",
      "blockNumber": "0x176918a",
      "gasUsed": "0x10dc6",
      "effectiveGasPrice": "0x7a667",
      "blobGasUsed": "0x0",
      "from": "0xe8d4b94f256f9522b30f8795c42e17fa135c1cbf",
      "to": "0x8c20b0469fdbce27bdf894425115e07096c0ea9f",
      "contractAddress": null
    },
    {
      "status": "0x1",
      "cumulativeGasUsed": "0xb530",
      "logs": [],
      "logsBloom": "0x00000000000000000000000000000000000000000000000000000000000000000000000000000000000000000000000000000000000000000000000000000000000000000000000000000000000000000000000000000000000000000000000000000000000000000000000000000000000000000000000000000000000000000000000000000000000000000000000000000000000000000000000000000000000000000000000000000000000000000000000000000000000000000000000000000000000000000000000000000000000000000000000000000000000000000000000000000000000000000000000000000000000000000000000000000000",
      "type": "0x2",
      "transactionHash": "0x238850ab2a2cfe9d840bb0aa9aeadacdb09683647a02288abb75e9dbbfaea599",
      "transactionIndex": "0x0",
      "blockHash": "0x927a4516c77d2a6081664f0431423b9ffd3f86d5589a32620f208a5fcd557dc7",
      "blockNumber": "0x176918b",
      "gasUsed": "0xb530",
      "effectiveGasPrice": "0x7a667",
      "blobGasUsed": "0x0",
      "from": "0xe8d4b94f256f9522b30f8795c42e17fa135c1cbf",
      "to": "0x8c20b0469fdbce27bdf894425115e07096c0ea9f",
      "contractAddress": null
    },
    {
      "status": "0x1",
      "cumulativeGasUsed": "0xb73c",
      "logs": [],
      "logsBloom": "0x00000000000000000000000000000000000000000000000000000000000000000000000000000000000000000000000000000000000000000000000000000000000000000000000000000000000000000000000000000000000000000000000000000000000000000000000000000000000000000000000000000000000000000000000000000000000000000000000000000000000000000000000000000000000000000000000000000000000000000000000000000000000000000000000000000000000000000000000000000000000000000000000000000000000000000000000000000000000000000000000000000000000000000000000000000000",
      "type": "0x2",
      "transactionHash": "0x521d8da82642c2561e91d1f7fdc0bb9fbd9ea29417bb8405c0d17dca55285c2e",
      "transactionIndex": "0x0",
      "blockHash": "0xe0a4c65885dfe2610698a521a84ae875ecf0df956584e2dbe32ef5e9f2d7e2a6",
      "blockNumber": "0x176918c",
      "gasUsed": "0xb73c",
      "effectiveGasPrice": "0x7a667",
      "blobGasUsed": "0x0",
      "from": "0xe8d4b94f256f9522b30f8795c42e17fa135c1cbf",
      "to": "0x8c20b0469fdbce27bdf894425115e07096c0ea9f",
      "contractAddress": null
    },
    {
      "status": "0x1",
      "cumulativeGasUsed": "0x10dc6",
      "logs": [],
      "logsBloom": "0x00000000000000000000000000000000000000000000000000000000000000000000000000000000000000000000000000000000000000000000000000000000000000000000000000000000000000000000000000000000000000000000000000000000000000000000000000000000000000000000000000000000000000000000000000000000000000000000000000000000000000000000000000000000000000000000000000000000000000000000000000000000000000000000000000000000000000000000000000000000000000000000000000000000000000000000000000000000000000000000000000000000000000000000000000000000",
      "type": "0x2",
      "transactionHash": "0xd7965ceb1db843feacd30bae62396ddf50b21c7fbb62ddd619f6fec6951ffda1",
      "transactionIndex": "0x0",
      "blockHash": "0xcc19c6368f8d2b1b515e65f597a2344c37b55ed9d47b38486e9fb6c72b2af425",
      "blockNumber": "0x176918d",
      "gasUsed": "0x10dc6",
      "effectiveGasPrice": "0x7a667",
      "blobGasUsed": "0x0",
      "from": "0xe8d4b94f256f9522b30f8795c42e17fa135c1cbf",
      "to": "0xe3e1b5a56d11376d27c0eff3256e7299df197d5e",
      "contractAddress": null
    },
    {
      "status": "0x1",
      "cumulativeGasUsed": "0x10dc6",
      "logs": [],
      "logsBloom": "0x00000000000000000000000000000000000000000000000000000000000000000000000000000000000000000000000000000000000000000000000000000000000000000000000000000000000000000000000000000000000000000000000000000000000000000000000000000000000000000000000000000000000000000000000000000000000000000000000000000000000000000000000000000000000000000000000000000000000000000000000000000000000000000000000000000000000000000000000000000000000000000000000000000000000000000000000000000000000000000000000000000000000000000000000000000000",
      "type": "0x2",
      "transactionHash": "0x4bdf0475b447e184d0eec430d53a684ae233f6445cf55e756c10da4fecdc106b",
      "transactionIndex": "0x0",
      "blockHash": "0x92bfe96afcf1d22503e18cae9d9924d4e06502660e795ef4a93979aeee64befd",
      "blockNumber": "0x176918e",
      "gasUsed": "0x10dc6",
      "effectiveGasPrice": "0x7a667",
      "blobGasUsed": "0x0",
      "from": "0xe8d4b94f256f9522b30f8795c42e17fa135c1cbf",
      "to": "0x016e6e63965988fa71a6d4650d74da245228001a",
      "contractAddress": null
    },
    {
      "status": "0x1",
      "cumulativeGasUsed": "0xb530",
      "logs": [],
      "logsBloom": "0x00000000000000000000000000000000000000000000000000000000000000000000000000000000000000000000000000000000000000000000000000000000000000000000000000000000000000000000000000000000000000000000000000000000000000000000000000000000000000000000000000000000000000000000000000000000000000000000000000000000000000000000000000000000000000000000000000000000000000000000000000000000000000000000000000000000000000000000000000000000000000000000000000000000000000000000000000000000000000000000000000000000000000000000000000000000",
      "type": "0x2",
      "transactionHash": "0xeab1653cef5d002a136b5245a8a0d307fd925a365028a5e77bc9340935b3f093",
      "transactionIndex": "0x0",
      "blockHash": "0x960ef8f5dc242082a4bb9bab403edf3b53601717fef20e131c813e7c49a4910f",
      "blockNumber": "0x176918f",
      "gasUsed": "0xb530",
      "effectiveGasPrice": "0x7a667",
      "blobGasUsed": "0x0",
      "from": "0xe8d4b94f256f9522b30f8795c42e17fa135c1cbf",
      "to": "0xe3e1b5a56d11376d27c0eff3256e7299df197d5e",
      "contractAddress": null
    },
    {
      "status": "0x1",
      "cumulativeGasUsed": "0xb73c",
      "logs": [],
      "logsBloom": "0x00000000000000000000000000000000000000000000000000000000000000000000000000000000000000000000000000000000000000000000000000000000000000000000000000000000000000000000000000000000000000000000000000000000000000000000000000000000000000000000000000000000000000000000000000000000000000000000000000000000000000000000000000000000000000000000000000000000000000000000000000000000000000000000000000000000000000000000000000000000000000000000000000000000000000000000000000000000000000000000000000000000000000000000000000000000",
      "type": "0x2",
      "transactionHash": "0x17f06c9be971dab0ac8e06f6a974fb406fda3998c23b3df0530cdfa67c06f0fd",
      "transactionIndex": "0x0",
      "blockHash": "0xaacfe2ccd7ce452648f219bc441b52baa989af573bdbfd954cddf415755877c2",
      "blockNumber": "0x1769190",
      "gasUsed": "0xb73c",
      "effectiveGasPrice": "0x7a667",
      "blobGasUsed": "0x0",
      "from": "0xe8d4b94f256f9522b30f8795c42e17fa135c1cbf",
      "to": "0x016e6e63965988fa71a6d4650d74da245228001a",
      "contractAddress": null
    },
    {
      "status": "0x1",
      "cumulativeGasUsed": "0xb73c",
      "logs": [],
      "logsBloom": "0x00000000000000000000000000000000000000000000000000000000000000000000000000000000000000000000000000000000000000000000000000000000000000000000000000000000000000000000000000000000000000000000000000000000000000000000000000000000000000000000000000000000000000000000000000000000000000000000000000000000000000000000000000000000000000000000000000000000000000000000000000000000000000000000000000000000000000000000000000000000000000000000000000000000000000000000000000000000000000000000000000000000000000000000000000000000",
      "type": "0x2",
      "transactionHash": "0x18270fd256409f08a10564165ccd28d06d7360fddb76777e2cf2d9a529317dc6",
      "transactionIndex": "0x0",
      "blockHash": "0xc735ed1e5e8c2c97aa851c2e33042030b5d251b13c86e7f95168bc156435b3e3",
      "blockNumber": "0x1769191",
      "gasUsed": "0xb73c",
      "effectiveGasPrice": "0x7a667",
      "blobGasUsed": "0x0",
      "from": "0xe8d4b94f256f9522b30f8795c42e17fa135c1cbf",
      "to": "0xe3e1b5a56d11376d27c0eff3256e7299df197d5e",
      "contractAddress": null
    },
    {
      "status": "0x1",
      "cumulativeGasUsed": "0xb530",
      "logs": [],
      "logsBloom": "0x00000000000000000000000000000000000000000000000000000000000000000000000000000000000000000000000000000000000000000000000000000000000000000000000000000000000000000000000000000000000000000000000000000000000000000000000000000000000000000000000000000000000000000000000000000000000000000000000000000000000000000000000000000000000000000000000000000000000000000000000000000000000000000000000000000000000000000000000000000000000000000000000000000000000000000000000000000000000000000000000000000000000000000000000000000000",
      "type": "0x2",
      "transactionHash": "0x3bebb3dd98b6ca8e9c2dc0957f48973ca60ab6de09cb4b0ed7e4d3de8126af6e",
      "transactionIndex": "0x0",
      "blockHash": "0x5ddad82a69ac2d2e1e947ebb07be723700d432cbc731b887f0bff50413d02ca9",
      "blockNumber": "0x1769192",
      "gasUsed": "0xb530",
      "effectiveGasPrice": "0x7a667",
      "blobGasUsed": "0x0",
      "from": "0xe8d4b94f256f9522b30f8795c42e17fa135c1cbf",
      "to": "0x016e6e63965988fa71a6d4650d74da245228001a",
      "contractAddress": null
    }
  ],
  "libraries": [],
  "pending": [],
  "returns": {},
  "timestamp": 1772189120,
  "chain": 657,
  "commit": "c6e5fe8"
}