{
  "transactions": [
    {
      "hash": "0xe71205395f3c2a2c16dd41b134fec88a652b565ecf280d59fe031016bd0bd817",
      "transactionType": "CALL",
      "contractName": null,
      "contractAddress": "0xfb9c7c7371db3ca75c4e7003b9c8f1245b97d6ae",
      "function": "setPolicyManager(address)",
      "arguments": [
        "0xDfbfDc3203465196b11792FD842Fe8dfE07fc7B5"
      ],
      "transaction": {
        "from": "0xe8d4b94f256f9522b30f8795c42e17fa135c1cbf",
        "to": "0xfb9c7c7371db3ca75c4e7003b9c8f1245b97d6ae",
        "gas": "0x10bf6",
        "value": "0x0",
        "input": "0xadde41e1000000000000000000000000dfbfdc3203465196b11792fd842fe8dfe07fc7b5",
        "nonce": "0x20",
        "chainId": "0x291"
      },
      "additionalContracts": [],
      "isFixedGasLimit": false
    },
    {
      "hash": "0x2953c2ef1fc5d417f86f12299ad3b7522bf4836407f213c325efe07cd4384a2e",
      "transactionType": "CALL",
      "contractName": null,
      "contractAddress": "0x68e0beeb9a4148271ce96b068d3ef23bcbc2c5d7",
      "function": "setPolicyManager(address)",
      "arguments": [
        "0xDfbfDc3203465196b11792FD842Fe8dfE07fc7B5"
      ],
      "transaction": {
        "from": "0xe8d4b94f256f9522b30f8795c42e17fa135c1cbf",
        "to": "0x68e0beeb9a4148271ce96b068d3ef23bcbc2c5d7",
        "gas": "0x10bf6",
        "value": "0x0",
        "input": "0xadde41e1000000000000000000000000dfbfdc3203465196b11792fd842fe8dfe07fc7b5",
        "nonce": "0x21",
        "chainId": "0x291"
      },
      "additionalContracts": [],
      "isFixedGasLimit": false
    },
    {
      "hash": "0x48c58ac17e260c38e312fbf48099b6fb8e60a93cbb1079a99e42cb60ca8b7bbe",
      "transactionType": "CALL",
      "contractName": null,
      "contractAddress": "0x47e6b550bb8605a259a88b3a3db5c6e81ba11ffd",
      "function": "setPolicyManager(address)",
      "arguments": [
        "0xDfbfDc3203465196b11792FD842Fe8dfE07fc7B5"
      ],
      "transaction": {
        "from": "0xe8d4b94f256f9522b30f8795c42e17fa135c1cbf",
        "to": "0x47e6b550bb8605a259a88b3a3db5c6e81ba11ffd",
        "gas": "0x10bf6",
        "value": "0x0",
        "input": "0xadde41e1000000000000000000000000dfbfdc3203465196b11792fd842fe8dfe07fc7b5",
        "nonce": "0x22",
        "chainId": "0x291"
      },
      "additionalContracts": [],
      "isFixedGasLimit": false
    },
    {
      "hash": "0xddafaa57063c9c231b282da3cf2ea48aa177f9461d93584026c86251b1694dc9",
      "transactionType": "CALL",
      "contractName": null,
      "contractAddress": "0x68e0beeb9a4148271ce96b068d3ef23bcbc2c5d7",
      "function": "setCapManager(address)",
      "arguments": [
        "0xDfbfDc3203465196b11792FD842Fe8dfE07fc7B5"
      ],
      "transaction": {
        "from": "0xe8d4b94f256f9522b30f8795c42e17fa135c1cbf",
        "to": "0x68e0beeb9a4148271ce96b068d3ef23bcbc2c5d7",
        "gas": "0xf890",
        "value": "0x0",
        "input": "0x0e608b30000000000000000000000000dfbfdc3203465196b11792fd842fe8dfe07fc7b5",
        "nonce": "0x23",
        "chainId": "0x291"
      },
      "additionalContracts": [],
      "isFixedGasLimit": false
    },
    {
      "hash": "0x889aee3ccdb943e90370ff06d838a05fa0ef8c14e0d23d725332627868df0673",
      "transactionType": "CALL",
      "contractName": null,
      "contractAddress": "0x47e6b550bb8605a259a88b3a3db5c6e81ba11ffd",
      "function": "setCapManager(address)",
      "arguments": [
        "0xDfbfDc3203465196b11792FD842Fe8dfE07fc7B5"
      ],
      "transaction": {
        "from": "0xe8d4b94f256f9522b30f8795c42e17fa135c1cbf",
        "to": "0x47e6b550bb8605a259a88b3a3db5c6e81ba11ffd",
        "gas": "0xf890",
        "value": "0x0",
        "input": "0x0e608b30000000000000000000000000dfbfdc3203465196b11792fd842fe8dfe07fc7b5",
        "nonce": "0x24",
        "chainId": "0x291"
      },
      "additionalContracts": [],
      "isFixedGasLimit": false
    },
    {
      "hash": "0x69421c045517416f289655d6507807daa8bf2687b19a1946a3daa1b6c5e555bd",
      "transactionType": "CALL",
      "contractName": null,
      "contractAddress": "0xfb9c7c7371db3ca75c4e7003b9c8f1245b97d6ae",
      "function": "setFee(uint256,address)",
      "arguments": [
        "50",
        "0xe8d4b94F256f9522b30f8795C42e17Fa135C1cbF"
      ],
      "transaction": {
        "from": "0xe8d4b94f256f9522b30f8795c42e17fa135c1cbf",
        "to": "0xfb9c7c7371db3ca75c4e7003b9c8f1245b97d6ae",
        "gas": "0x119e6",
        "value": "0x0",
        "input": "0xb4f2e8b80000000000000000000000000000000000000000000000000000000000000032000000000000000000000000e8d4b94f256f9522b30f8795c42e17fa135c1cbf",
        "nonce": "0x25",
        "chainId": "0x291"
      },
      "additionalContracts": [],
      "isFixedGasLimit": false
    },
    {
      "hash": "0xa2f82686bad1665b3314e5b12d8f808058647f30bb08086be678b0b457798407",
      "transactionType": "CALL",
      "contractName": null,
      "contractAddress": "0x68e0beeb9a4148271ce96b068d3ef23bcbc2c5d7",
      "function": "setFee(uint256,address)",
      "arguments": [
        "50",
        "0xe8d4b94F256f9522b30f8795C42e17Fa135C1cbF"
      ],
      "transaction": {
        "from": "0xe8d4b94f256f9522b30f8795c42e17fa135c1cbf",
        "to": "0x68e0beeb9a4148271ce96b068d3ef23bcbc2c5d7",
        "gas": "0x119e6",
        "value": "0x0",
        "input": "0xb4f2e8b80000000000000000000000000000000000000000000000000000000000000032000000000000000000000000e8d4b94f256f9522b30f8795c42e17fa135c1cbf",
        "nonce": "0x26",
        "chainId": "0x291"
      },
      "additionalContracts": [],
      "isFixedGasLimit": false
    },
    {
      "hash": "0xabf70cec5283edd2409085bc0419489d3dbccfa3ec0dada50d7a36f38dedc395",
      "transactionType": "CALL",
      "contractName": null,
      "contractAddress": "0x47e6b550bb8605a259a88b3a3db5c6e81ba11ffd",
      "function": "setFee(uint256,address)",
      "arguments": [
        "50",
        "0xe8d4b94F256f9522b30f8795C42e17Fa135C1cbF"
      ],
      "transaction": {
        "from": "0xe8d4b94f256f9522b30f8795c42e17fa135c1cbf",
        "to": "0x47e6b550bb8605a259a88b3a3db5c6e81ba11ffd",
        "gas": "0x119e6",
        "value": "0x0",
        "input": "0xb4f2e8b80000000000000000000000000000000000000000000000000000000000000032000000000000000000000000e8d4b94f256f9522b30f8795c42e17fa135c1cbf",
        "nonce": "0x27",
        "chainId": "0x291"
      },
      "additionalContracts": [],
      "isFixedGasLimit": false
    },
    {
      "hash": "0xbf277536f4c8bedac837b6b196525df13290d64b84acf8cdfa27b490c70b6d5f",
      "transactionType": "CALL",
      "contractName": null,
      "contractAddress": "0xfb9c7c7371db3ca75c4e7003b9c8f1245b97d6ae",
      "function": "setAavePool(address,address)",
      "arguments": [
        "0x87870Bca3F3fD6335C3F4ce8392D69350B4fA4E2",
        "0x98C23E9d8f34FEFb1B7BD6a91B7FF122F4e16F5c"
      ],
      "transaction": {
        "from": "0xe8d4b94f256f9522b30f8795c42e17fa135c1cbf",
        "to": "0xfb9c7c7371db3ca75c4e7003b9c8f1245b97d6ae",
        "gas": "0x1749f",
        "value": "0x0",
        "input": "0x4a9bd6df00000000000000000000000087870bca3f3fd6335c3f4ce8392d69350b4fa4e200000000000000000000000098c23e9d8f34fefb1b7bd6a91b7ff122f4e16f5c",
        "nonce": "0x28",
        "chainId": "0x291"
      },
      "additionalContracts": [],
      "isFixedGasLimit": false
    },
    {
      "hash": "0xe8fd6b507310ea1d5ea904cb5da012708c8d8f997ce5fa8a906bdc645e2df811",
      "transactionType": "CALL",
      "contractName": null,
      "contractAddress": "0xfb9c7c7371db3ca75c4e7003b9c8f1245b97d6ae",
      "function": "setAaveTargetBps(uint256)",
      "arguments": [
        "7000"
      ],
      "transaction": {
        "from": "0xe8d4b94f256f9522b30f8795c42e17fa135c1cbf",
        "to": "0xfb9c7c7371db3ca75c4e7003b9c8f1245b97d6ae",
        "gas": "0xfd16",
        "value": "0x0",
        "input": "0xf8321c310000000000000000000000000000000000000000000000000000000000001b58",
        "nonce": "0x29",
        "chainId": "0x291"
      },
      "additionalContracts": [],
      "isFixedGasLimit": false
    },
    {
      "hash": "0x736d8278ed6baee52923b1d484ed18af322176c725121a8ef004ee54d3feb14d",
      "transactionType": "CALL",
      "contractName": null,
      "contractAddress": "0xfb9c7c7371db3ca75c4e7003b9c8f1245b97d6ae",
      "function": "setAaveEnabled(bool)",
      "arguments": [
        "true"
      ],
      "transaction": {
        "from": "0xe8d4b94f256f9522b30f8795c42e17fa135c1cbf",
        "to": "0xfb9c7c7371db3ca75c4e7003b9c8f1245b97d6ae",
        "gas": "0xfa43",
        "value": "0x0",
        "input": "0x8a8b1bd70000000000000000000000000000000000000000000000000000000000000001",
        "nonce": "0x2a",
        "chainId": "0x291"
      },
      "additionalContracts": [],
      "isFixedGasLimit": false
    },
    {
      "hash": "0x0048071458badab133c067c64bf616a448325f4b1db16762ec3b2a9500300890",
      "transactionType": "CALL",
      "contractName": null,
      "contractAddress": "0x68e0beeb9a4148271ce96b068d3ef23bcbc2c5d7",
      "function": "setAavePool(address,address)",
      "arguments": [
        "0x87870Bca3F3fD6335C3F4ce8392D69350B4fA4E2",
        "0x98C23E9d8f34FEFb1B7BD6a91B7FF122F4e16F5c"
      ],
      "transaction": {
        "from": "0xe8d4b94f256f9522b30f8795c42e17fa135c1cbf",
        "to": "0x68e0beeb9a4148271ce96b068d3ef23bcbc2c5d7",
        "gas": "0x1749f",
        "value": "0x0",
        "input": "0x4a9bd6df00000000000000000000000087870bca3f3fd6335c3f4ce8392d69350b4fa4e200000000000000000000000098c23e9d8f34fefb1b7bd6a91b7ff122f4e16f5c",
        "nonce": "0x2b",
        "chainId": "0x291"
      },
      "additionalContracts": [],
      "isFixedGasLimit": false
    },
    {
      "hash": "0x9024bb196ef27c1ff39e23200bcf409bf150219182e3e0bb8db97b60d08a2221",
      "transactionType": "CALL",
      "contractName": null,
      "contractAddress": "0x68e0beeb9a4148271ce96b068d3ef23bcbc2c5d7",
      "function": "setAaveTargetBps(uint256)",
      "arguments": [
        "7000"
      ],
      "transaction": {
        "from": "0xe8d4b94f256f9522b30f8795c42e17fa135c1cbf",
        "to": "0x68e0beeb9a4148271ce96b068d3ef23bcbc2c5d7",
        "gas": "0xfd16",
        "value": "0x0",
        "input": "0xf8321c310000000000000000000000000000000000000000000000000000000000001b58",
        "nonce": "0x2c",
        "chainId": "0x291"
      },
      "additionalContracts": [],
      "isFixedGasLimit": false
    },
    {
      "hash": "0xee624aa55488fed3e1e9b4096e626e574b218fa2fe5af4aebbcaa8486e5e9cf3",
      "transactionType": "CALL",
      "contractName": null,
      "contractAddress": "0x68e0beeb9a4148271ce96b068d3ef23bcbc2c5d7",
      "function": "setAaveEnabled(bool)",
      "arguments": [
        "true"
      ],
      "transaction": {
        "from": "0xe8d4b94f256f9522b30f8795c42e17fa135c1cbf",
        "to": "0x68e0beeb9a4148271ce96b068d3ef23bcbc2c5d7",
        "gas": "0xfa43",
        "value": "0x0",
        "input": "0x8a8b1bd70000000000000000000000000000000000000000000000000000000000000001",
        "nonce": "0x2d",
        "chainId": "0x291"
      },
      "additionalContracts": [],
      "isFixedGasLimit": false
    },
    {
      "hash": "0xb1f35621d837fc9ac28bc0a69973500e39b972701defa164b25c0bb9ea7216ae",
      "transactionType": "CALL",
      "contractName": null,
      "contractAddress": "0x47e6b550bb8605a259a88b3a3db5c6e81ba11ffd",
      "function": "setAavePool(address,address)",
      "arguments": [
        "0x87870Bca3F3fD6335C3F4ce8392D69350B4fA4E2",
        "0x98C23E9d8f34FEFb1B7BD6a91B7FF122F4e16F5c"
      ],
      "transaction": {
        "from": "0xe8d4b94f256f9522b30f8795c42e17fa135c1cbf",
        "to": "0x47e6b550bb8605a259a88b3a3db5c6e81ba11ffd",
        "gas": "0x1749f",
        "value": "0x0",
        "input": "0x4a9bd6df00000000000000000000000087870bca3f3fd6335c3f4ce8392d69350b4fa4e200000000000000000000000098c23e9d8f34fefb1b7bd6a91b7ff122f4e16f5c",
        "nonce": "0x2e",
        "chainId": "0x291"
      },
      "additionalContracts": [],
      "isFixedGasLimit": false
    },
    {
      "hash": null,
      "transactionType": "CALL",
      "contractName": null,
      "contractAddress": "0x47e6b550bb8605a259a88b3a3db5c6e81ba11ffd",
      "function": "setAaveTargetBps(uint256)",
      "arguments": [
        "7000"
      ],
      "transaction": {
        "from": "0xe8d4b94f256f9522b30f8795c42e17fa135c1cbf",
        "to": "0x47e6b550bb8605a259a88b3a3db5c6e81ba11ffd",
        "gas": "0xfd16",
        "value": "0x0",
        "input": "0xf8321c310000000000000000000000000000000000000000000000000000000000001b58",
        "nonce": "0x2f",
        "chainId": "0x291"
      },
      "additionalContracts": [],
      "isFixedGasLimit": false
    },
    {
      "hash": null,
      "transactionType": "CALL",
      "contractName": null,
      "contractAddress": "0x47e6b550bb8605a259a88b3a3db5c6e81ba11ffd",
      "function": "setAaveEnabled(bool)",
      "arguments": [
        "true"
      ],
      "transaction": {
        "from": "0xe8d4b94f256f9522b30f8795c42e17fa135c1cbf",
        "to": "0x47e6b550bb8605a259a88b3a3db5c6e81ba11ffd",
        "gas": "0xfa43",
        "value": "0x0",
        "input": "0x8a8b1bd70000000000000000000000000000000000000000000000000000000000000001",
        "nonce": "0x30",
        "chainId": "0x291"
      },
      "additionalContracts": [],
      "isFixedGasLimit": false
    }
  ],
  "receipts": [],
  "libraries": [],
  "pending": [
    "0xe71205395f3c2a2c16dd41b134fec88a652b565ecf280d59fe031016bd0bd817",
    "0x2953c2ef1fc5d417f86f12299ad3b7522bf4836407f213c325efe07cd4384a2e",
    "0x48c58ac17e260c38e312fbf48099b6fb8e60a93cbb1079a99e42cb60ca8b7bbe",
    "0xddafaa57063c9c231b282da3cf2ea48aa177f9461d93584026c86251b1694dc9",
    "0x889aee3ccdb943e90370ff06d838a05fa0ef8c14e0d23d725332627868df0673",
    "0x69421c045517416f289655d6507807daa8bf2687b19a1946a3daa1b6c5e555bd",
    "0xa2f82686bad1665b3314e5b12d8f808058647f30bb08086be678b0b457798407",
    "0xabf70cec5283edd2409085bc0419489d3dbccfa3ec0dada50d7a36f38dedc395",
    "0xbf277536f4c8bedac837b6b196525df13290d64b84acf8cdfa27b490c70b6d5f",
    "0xe8fd6b507310ea1d5ea904cb5da012708c8d8f997ce5fa8a906bdc645e2df811",
    "0x736d8278ed6baee52923b1d484ed18af322176c725121a8ef004ee54d3feb14d",
    "0x0048071458badab133c067c64bf616a448325f4b1db16762ec3b2a9500300890",
    "0x9024bb196ef27c1ff39e23200bcf409bf150219182e3e0bb8db97b60d08a2221",
    "0xee624aa55488fed3e1e9b4096e626e574b218fa2fe5af4aebbcaa8486e5e9cf3",
    "0xb1f35621d837fc9ac28bc0a69973500e39b972701defa164b25c0bb9ea7216ae"
  ],
  "returns": {},
  "timestamp": 1771962625,
  "chain": 657,
  "commit": "2e9afd2"
}