{
  "transactions": [
    {
      "hash": "0x39eaa9a93999027734fac3832b44f2f6ce3d0b347b86b996375b23075837242f",
      "transactionType": "CALL",
      "contractName": null,
      "contractAddress": "0x8c20b0469fdbce27bdf894425115e07096c0ea9f",
      "function": "setPolicyManager(address)",
      "arguments": [
        "0xEfC0E3ff32A6e71D7661062E9F444D919F4b17e4"
      ],
      "transaction": {
        "from": "0xe8d4b94f256f9522b30f8795c42e17fa135c1cbf",
        "to": "0x8c20b0469fdbce27bdf894425115e07096c0ea9f",
        "gas": "0x10bf6",
        "value": "0x0",
        "input": "0xadde41e1000000000000000000000000efc0e3ff32a6e71d7661062e9f444d919f4b17e4",
        "nonce": "0x5",
        "chainId": "0x291"
      },
      "additionalContracts": [],
      "isFixedGasLimit": false
    },
    {
      "hash": "0x52877bf9bf8ed6767183101f15dfd50afb6b66f769babe5c1eb08018d02665a3",
      "transactionType": "CALL",
      "contractName": null,
      "contractAddress": "0xe3e1b5a56d11376d27c0eff3256e7299df197d5e",
      "function": "setPolicyManager(address)",
      "arguments": [
        "0xEfC0E3ff32A6e71D7661062E9F444D919F4b17e4"
      ],
      "transaction": {
        "from": "0xe8d4b94f256f9522b30f8795c42e17fa135c1cbf",
        "to": "0xe3e1b5a56d11376d27c0eff3256e7299df197d5e",
        "gas": "0x10bf6",
        "value": "0x0",
        "input": "0xadde41e1000000000000000000000000efc0e3ff32a6e71d7661062e9f444d919f4b17e4",
        "nonce": "0x6",
        "chainId": "0x291"
      },
      "additionalContracts": [],
      "isFixedGasLimit": false
    },
    {
      "hash": "0x934ae8c3e56c4e8b3730a83b4e058a1ec8d0ba813ce459f8246f30c708b8b950",
      "transactionType": "CALL",
      "contractName": null,
      "contractAddress": "0x016e6e63965988fa71a6d4650d74da245228001a",
      "function": "setPolicyManager(address)",
      "arguments": [
        "0xEfC0E3ff32A6e71D7661062E9F444D919F4b17e4"
      ],
      "transaction": {
        "from": "0xe8d4b94f256f9522b30f8795c42e17fa135c1cbf",
        "to": "0x016e6e63965988fa71a6d4650d74da245228001a",
        "gas": "0x10bf6",
        "value": "0x0",
        "input": "0xadde41e1000000000000000000000000efc0e3ff32a6e71d7661062e9f444d919f4b17e4",
        "nonce": "0x7",
        "chainId": "0x291"
      },
      "additionalContracts": [],
      "isFixedGasLimit": false
    },
    {
      "hash": "0x98b065b696a04ec4ff0eec672baca9d012aa8c8f4984f54e560cefb20525fa56",
      "transactionType": "CALL",
      "contractName": null,
      "contractAddress": "0xe3e1b5a56d11376d27c0eff3256e7299df197d5e",
      "function": "setCapManager(address)",
      "arguments": [
        "0xEfC0E3ff32A6e71D7661062E9F444D919F4b17e4"
      ],
      "transaction": {
        "from": "0xe8d4b94f256f9522b30f8795c42e17fa135c1cbf",
        "to": "0xe3e1b5a56d11376d27c0eff3256e7299df197d5e",
        "gas": "0xf890",
        "value": "0x0",
        "input": "0x0e608b30000000000000000000000000efc0e3ff32a6e71d7661062e9f444d919f4b17e4",
        "nonce": "0x8",
        "chainId": "0x291"
      },
      "additionalContracts": [],
      "isFixedGasLimit": false
    },
    {
      "hash": "0x0ae65a3d2769585a44635d63566d3d987f569fc9f30f006914218d50badca84e",
      "transactionType": "CALL",
      "contractName": null,
      "contractAddress": "0x016e6e63965988fa71a6d4650d74da245228001a",
      "function": "setCapManager(address)",
      "arguments": [
        "0xEfC0E3ff32A6e71D7661062E9F444D919F4b17e4"
      ],
      "transaction": {
        "from": "0xe8d4b94f256f9522b30f8795c42e17fa135c1cbf",
        "to": "0x016e6e63965988fa71a6d4650d74da245228001a",
        "gas": "0xf890",
        "value": "0x0",
        "input": "0x0e608b30000000000000000000000000efc0e3ff32a6e71d7661062e9f444d919f4b17e4",
        "nonce": "0x9",
        "chainId": "0x291"
      },
      "additionalContracts": [],
      "isFixedGasLimit": false
    },
    {
      "hash": "0xf4371bfcde7ffeb53229a00fc7f5b956b182234ac1e6919a6f3032913cfebf70",
      "transactionType": "CALL",
      "contractName": null,
      "contractAddress": "0x8c20b0469fdbce27bdf894425115e07096c0ea9f",
      "function": "setFee(uint256,address)",
      "arguments": [
        "50",
        "0xe8d4b94F256f9522b30f8795C42e17Fa135C1cbF"
      ],
      "transaction": {
        "from": "0xe8d4b94f256f9522b30f8795c42e17fa135c1cbf",
        "to": "0x8c20b0469fdbce27bdf894425115e07096c0ea9f",
        "gas": "0x119e6",
        "value": "0x0",
        "input": "0xb4f2e8b80000000000000000000000000000000000000000000000000000000000000032000000000000000000000000e8d4b94f256f9522b30f8795c42e17fa135c1cbf",
        "nonce": "0xa",
        "chainId": "0x291"
      },
      "additionalContracts": [],
      "isFixedGasLimit": false
    },
    {
      "hash": "0xda4feefbd73d6c164caf38e9a5a8c7f0a3a6ecbbb1f1044f931aca116f9da1c2",
      "transactionType": "CALL",
      "contractName": null,
      "contractAddress": "0xe3e1b5a56d11376d27c0eff3256e7299df197d5e",
      "function": "setFee(uint256,address)",
      "arguments": [
        "50",
        "0xe8d4b94F256f9522b30f8795C42e17Fa135C1cbF"
      ],
      "transaction": {
        "from": "0xe8d4b94f256f9522b30f8795c42e17fa135c1cbf",
        "to": "0xe3e1b5a56d11376d27c0eff3256e7299df197d5e",
        "gas": "0x119e6",
        "value": "0x0",
        "input": "0xb4f2e8b80000000000000000000000000000000000000000000000000000000000000032000000000000000000000000e8d4b94f256f9522b30f8795c42e17fa135c1cbf",
        "nonce": "0xb",
        "chainId": "0x291"
      },
      "additionalContracts": [],
      "isFixedGasLimit": false
    },
    {
      "hash": "0xf3904e6082ca548227a920aad59e395436095f0c3fc80ad0c04fd4084694f621",
      "transactionType": "CALL",
      "contractName": null,
      "contractAddress": "0x016e6e63965988fa71a6d4650d74da245228001a",
      "function": "setFee(uint256,address)",
      "arguments": [
        "50",
        "0xe8d4b94F256f9522b30f8795C42e17Fa135C1cbF"
      ],
      "transaction": {
        "from": "0xe8d4b94f256f9522b30f8795c42e17fa135c1cbf",
        "to": "0x016e6e63965988fa71a6d4650d74da245228001a",
        "gas": "0x119e6",
        "value": "0x0",
        "input": "0xb4f2e8b80000000000000000000000000000000000000000000000000000000000000032000000000000000000000000e8d4b94f256f9522b30f8795c42e17fa135c1cbf",
        "nonce": "0xc",
        "chainId": "0x291"
      },
      "additionalContracts": [],
      "isFixedGasLimit": false
    },
    {
      "hash": "0x8bce43781f041d3236c0298a1239a70a36b2bb69220d4349fa5989d7d26508ec",
      "transactionType": "CALL",
      "contractName": null,
      "contractAddress": "0x8c20b0469fdbce27bdf894425115e07096c0ea9f",
      "function": "setAavePool(address,address)",
      "arguments": [
        "0x87870Bca3F3fD6335C3F4ce8392D69350B4fA4E2",
        "0x98C23E9d8f34FEFb1B7BD6a91B7FF122F4e16F5c"
      ],
      "transaction": {
        "from": "0xe8d4b94f256f9522b30f8795c42e17fa135c1cbf",
        "to": "0x8c20b0469fdbce27bdf894425115e07096c0ea9f",
        "gas": "0x1749f",
        "value": "0x0",
        "input": "0x4a9bd6df00000000000000000000000087870bca3f3fd6335c3f4ce8392d69350b4fa4e200000000000000000000000098c23e9d8f34fefb1b7bd6a91b7ff122f4e16f5c",
        "nonce": "0xd",
        "chainId": "0x291"
      },
      "additionalContracts": [],
      "isFixedGasLimit": false
    },
    {
      "hash": "0x8aecc0cbe223776fbe11ac703f643d298678fdf9afd652a91333d1f7ba4b3418",
      "transactionType": "CALL",
      "contractName": null,
      "contractAddress": "0x8c20b0469fdbce27bdf894425115e07096c0ea9f",
      "function": "setAaveTargetBps(uint256)",
      "arguments": [
        "7000"
      ],
      "transaction": {
        "from": "0xe8d4b94f256f9522b30f8795c42e17fa135c1cbf",
        "to": "0x8c20b0469fdbce27bdf894425115e07096c0ea9f",
        "gas": "0xfd16",
        "value": "0x0",
        "input": "0xf8321c310000000000000000000000000000000000000000000000000000000000001b58",
        "nonce": "0xe",
        "chainId": "0x291"
      },
      "additionalContracts": [],
      "isFixedGasLimit": false
    },
    {
      "hash": "0x7abdb8298d3293b0528a6e6a82bb46c79d376227d91fcc4129aeb9c50b6d127c",
      "transactionType": "CALL",
      "contractName": null,
      "contractAddress": "0x8c20b0469fdbce27bdf894425115e07096c0ea9f",
      "function": "setAaveEnabled(bool)",
      "arguments": [
        "true"
      ],
      "transaction": {
        "from": "0xe8d4b94f256f9522b30f8795c42e17fa135c1cbf",
        "to": "0x8c20b0469fdbce27bdf894425115e07096c0ea9f",
        "gas": "0xfa43",
        "value": "0x0",
        "input": "0x8a8b1bd70000000000000000000000000000000000000000000000000000000000000001",
        "nonce": "0xf",
        "chainId": "0x291"
      },
      "additionalContracts": [],
      "isFixedGasLimit": false
    },
    {
      "hash": "0x888fafd2f31268873e30f649e5eaa4daf321a5478e8273056c691c90430f6c71",
      "transactionType": "CALL",
      "contractName": null,
      "contractAddress": "0xe3e1b5a56d11376d27c0eff3256e7299df197d5e",
      "function": "setAavePool(address,address)",
      "arguments": [
        "0x87870Bca3F3fD6335C3F4ce8392D69350B4fA4E2",
        "0x98C23E9d8f34FEFb1B7BD6a91B7FF122F4e16F5c"
      ],
      "transaction": {
        "from": "0xe8d4b94f256f9522b30f8795c42e17fa135c1cbf",
        "to": "0xe3e1b5a56d11376d27c0eff3256e7299df197d5e",
        "gas": "0x1749f",
        "value": "0x0",
        "input": "0x4a9bd6df00000000000000000000000087870bca3f3fd6335c3f4ce8392d69350b4fa4e200000000000000000000000098c23e9d8f34fefb1b7bd6a91b7ff122f4e16f5c",
        "nonce": "0x10",
        "chainId": "0x291"
      },
      "additionalContracts": [],
      "isFixedGasLimit": false
    },
    {
      "hash": "0x074eabc1d67828878d0de693ee43be08a860d1d9d35ee9e939ad56a69c4aaad2",
      "transactionType": "CALL",
      "contractName": null,
      "contractAddress": "0xe3e1b5a56d11376d27c0eff3256e7299df197d5e",
      "function": "setAaveTargetBps(uint256)",
      "arguments": [
        "7000"
      ],
      "transaction": {
        "from": "0xe8d4b94f256f9522b30f8795c42e17fa135c1cbf",
        "to": "0xe3e1b5a56d11376d27c0eff3256e7299df197d5e",
        "gas": "0xfd16",
        "value": "0x0",
        "input": "0xf8321c310000000000000000000000000000000000000000000000000000000000001b58",
        "nonce": "0x11",
        "chainId": "0x291"
      },
      "additionalContracts": [],
      "isFixedGasLimit": false
    },
    {
      "hash": "0x845dc521abeaf19f4d7cc4bc859972efaa4992a5e9c411e64f07ce8b10008be8",
      "transactionType": "CALL",
      "contractName": null,
      "contractAddress": "0xe3e1b5a56d11376d27c0eff3256e7299df197d5e",
      "function": "setAaveEnabled(bool)",
      "arguments": [
        "true"
      ],
      "transaction": {
        "from": "0xe8d4b94f256f9522b30f8795c42e17fa135c1cbf",
        "to": "0xe3e1b5a56d11376d27c0eff3256e7299df197d5e",
        "gas": "0xfa43",
        "value": "0x0",
        "input": "0x8a8b1bd70000000000000000000000000000000000000000000000000000000000000001",
        "nonce": "0x12",
        "chainId": "0x291"
      },
      "additionalContracts": [],
      "isFixedGasLimit": false
    },
    {
      "hash": "0xf7992d494e1bfe847870b67020a4c524b5e781efbc47bd2104a9defab30b8634",
      "transactionType": "CALL",
      "contractName": null,
      "contractAddress": "0x016e6e63965988fa71a6d4650d74da245228001a",
      "function": "setAavePool(address,address)",
      "arguments": [
        "0x87870Bca3F3fD6335C3F4ce8392D69350B4fA4E2",
        "0x98C23E9d8f34FEFb1B7BD6a91B7FF122F4e16F5c"
      ],
      "transaction": {
        "from": "0xe8d4b94f256f9522b30f8795c42e17fa135c1cbf",
        "to": "0x016e6e63965988fa71a6d4650d74da245228001a",
        "gas": "0x1749f",
        "value": "0x0",
        "input": "0x4a9bd6df00000000000000000000000087870bca3f3fd6335c3f4ce8392d69350b4fa4e200000000000000000000000098c23e9d8f34fefb1b7bd6a91b7ff122f4e16f5c",
        "nonce": "0x13",
        "chainId": "0x291"
      },
      "additionalContracts": [],
      "isFixedGasLimit": false
    },
    {
      "hash": "0x98ed0ba39c8045d4ad8a0d53275417300011411f34cf71df8d7e73ac0c772526",
      "transactionType": "CALL",
      "contractName": null,
      "contractAddress": "0x016e6e63965988fa71a6d4650d74da245228001a",
      "function": "setAaveTargetBps(uint256)",
      "arguments": [
        "7000"
      ],
      "transaction": {
        "from": "0xe8d4b94f256f9522b30f8795c42e17fa135c1cbf",
        "to": "0x016e6e63965988fa71a6d4650d74da245228001a",
        "gas": "0xfd16",
        "value": "0x0",
        "input": "0xf8321c310000000000000000000000000000000000000000000000000000000000001b58",
        "nonce": "0x14",
        "chainId": "0x291"
      },
      "additionalContracts": [],
      "isFixedGasLimit": false
    },
    {
      "hash": "0x5e81712460ddbfefe79f551232be4980a30d67bf50d716f78751110e2e5a8f60",
      "transactionType": "CALL",
      "contractName": null,
      "contractAddress": "0x016e6e63965988fa71a6d4650d74da245228001a",
      "function": "setAaveEnabled(bool)",
      "arguments": [
        "true"
      ],
      "transaction": {
        "from": "0xe8d4b94f256f9522b30f8795c42e17fa135c1cbf",
        "to": "0x016e6e63965988fa71a6d4650d74da245228001a",
        "gas": "0xfa43",
        "value": "0x0",
        "input": "0x8a8b1bd70000000000000000000000000000000000000000000000000000000000000001",
        "nonce": "0x15",
        "chainId": "0x291"
      },
      "additionalContracts": [],
      "isFixedGasLimit": false
    }
  ],
  "receipts": [
    {
      "status": "0x1",
      "cumulativeGasUsed": "0xb739",
      "logs": [],
      "logsBloom": "0x00000000000000000000000000000000000000000000000000000000000000000000000000000000000000000000000000000000000000000000000000000000000000000000000000000000000000000000000000000000000000000000000000000000000000000000000000000000000000000000000000000000000000000000000000000000000000000000000000000000000000000000000000000000000000000000000000000000000000000000000000000000000000000000000000000000000000000000000000000000000000000000000000000000000000000000000000000000000000000000000000000000000000000000000000000000",
      "type": "0x2",
      "transactionHash": "0x39eaa9a93999027734fac3832b44f2f6ce3d0b347b86b996375b23075837242f",
      "transactionIndex": "0x0",
      "blockHash": "0x179ca9ca037e2a34cee0d0df3856a61d2e92234ca02b74265afacb5f0fd84b2c",
      "blockNumber": "0x1764854",
      "gasUsed": "0xb739",
      "effectiveGasPrice": "0x13bc02",
      "blobGasUsed": "0x0",
      "from": "0xe8d4b94f256f9522b30f8795c42e17fa135c1cbf",
      "to": "0x8c20b0469fdbce27bdf894425115e07096c0ea9f",
      "contractAddress": null
    },
    {
      "status": "0x1",
      "cumulativeGasUsed": "0xc0c1",
      "logs": [],
      "logsBloom": "0x00000000000000000000000000000000000000000000000000000000000000000000000000000000000000000000000000000000000000000000000000000000000000000000000000000000000000000000000000000000000000000000000000000000000000000000000000000000000000000000000000000000000000000000000000000000000000000000000000000000000000000000000000000000000000000000000000000000000000000000000000000000000000000000000000000000000000000000000000000000000000000000000000000000000000000000000000000000000000000000000000000000000000000000000000000000",
      "type": "0x2",
      "transactionHash": "0xf4371bfcde7ffeb53229a00fc7f5b956b182234ac1e6919a6f3032913cfebf70",
      "transactionIndex": "0x0",
      "blockHash": "0xf92605cea293aa7304bd7a08722db03865502fb25a64d5b695cabdd080240ff2",
      "blockNumber": "0x1764855",
      "gasUsed": "0xc0c1",
      "effectiveGasPrice": "0x13bc02",
      "blobGasUsed": "0x0",
      "from": "0xe8d4b94f256f9522b30f8795c42e17fa135c1cbf",
      "to": "0x8c20b0469fdbce27bdf894425115e07096c0ea9f",
      "contractAddress": null
    },
    {
      "status": "0x1",
      "cumulativeGasUsed": "0xb3f5",
      "logs": [],
      "logsBloom": "0x00000000000000000000000000000000000000000000000000000000000000000000000000000000000000000000000000000000000000000000000000000000000000000000000000000000000000000000000000000000000000000000000000000000000000000000000000000000000000000000000000000000000000000000000000000000000000000000000000000000000000000000000000000000000000000000000000000000000000000000000000000000000000000000000000000000000000000000000000000000000000000000000000000000000000000000000000000000000000000000000000000000000000000000000000000000",
      "type": "0x2",
      "transactionHash": "0x98b065b696a04ec4ff0eec672baca9d012aa8c8f4984f54e560cefb20525fa56",
      "transactionIndex": "0x0",
      "blockHash": "0xec8c3dadaa9d61871bcdac374d1dd431011b62b6ba8cf21e590691128ef1b6d7",
      "blockNumber": "0x1764856",
      "gasUsed": "0xb3f5",
      "effectiveGasPrice": "0x13bc02",
      "blobGasUsed": "0x0",
      "from": "0xe8d4b94f256f9522b30f8795c42e17fa135c1cbf",
      "to": "0xe3e1b5a56d11376d27c0eff3256e7299df197d5e",
      "contractAddress": null
    },
    {
      "status": "0x1",
      "cumulativeGasUsed": "0xb739",
      "logs": [],
      "logsBloom": "0x00000000000000000000000000000000000000000000000000000000000000000000000000000000000000000000000000000000000000000000000000000000000000000000000000000000000000000000000000000000000000000000000000000000000000000000000000000000000000000000000000000000000000000000000000000000000000000000000000000000000000000000000000000000000000000000000000000000000000000000000000000000000000000000000000000000000000000000000000000000000000000000000000000000000000000000000000000000000000000000000000000000000000000000000000000000",
      "type": "0x2",
      "transactionHash": "0x52877bf9bf8ed6767183101f15dfd50afb6b66f769babe5c1eb08018d02665a3",
      "transactionIndex": "0x0",
      "blockHash": "0xc5dd765fc2501d195c21d71fdb5b7d18b9ab2a0203051b5066ad56ef735a3a7b",
      "blockNumber": "0x1764857",
      "gasUsed": "0xb739",
      "effectiveGasPrice": "0x13bc02",
      "blobGasUsed": "0x0",
      "from": "0xe8d4b94f256f9522b30f8795c42e17fa135c1cbf",
      "to": "0xe3e1b5a56d11376d27c0eff3256e7299df197d5e",
      "contractAddress": null
    },
    {
      "status": "0x1",
      "cumulativeGasUsed": "0xb739",
      "logs": [],
      "logsBloom": "0x00000000000000000000000000000000000000000000000000000000000000000000000000000000000000000000000000000000000000000000000000000000000000000000000000000000000000000000000000000000000000000000000000000000000000000000000000000000000000000000000000000000000000000000000000000000000000000000000000000000000000000000000000000000000000000000000000000000000000000000000000000000000000000000000000000000000000000000000000000000000000000000000000000000000000000000000000000000000000000000000000000000000000000000000000000000",
      "type": "0x2",
      "transactionHash": "0x934ae8c3e56c4e8b3730a83b4e058a1ec8d0ba813ce459f8246f30c708b8b950",
      "transactionIndex": "0x0",
      "blockHash": "0x114d7cf7e2e9bc3d68b74386c6fa10e62c48e1197d483ecb87bcffc11a2ae377",
      "blockNumber": "0x1764858",
      "gasUsed": "0xb739",
      "effectiveGasPrice": "0x13bc02",
      "blobGasUsed": "0x0",
      "from": "0xe8d4b94f256f9522b30f8795c42e17fa135c1cbf",
      "to": "0x016e6e63965988fa71a6d4650d74da245228001a",
      "contractAddress": null
    },
    {
      "status": "0x1",
      "cumulativeGasUsed": "0xc0c1",
      "logs": [],
      "logsBloom": "0x00000000000000000000000000000000000000000000000000000000000000000000000000000000000000000000000000000000000000000000000000000000000000000000000000000000000000000000000000000000000000000000000000000000000000000000000000000000000000000000000000000000000000000000000000000000000000000000000000000000000000000000000000000000000000000000000000000000000000000000000000000000000000000000000000000000000000000000000000000000000000000000000000000000000000000000000000000000000000000000000000000000000000000000000000000000",
      "type": "0x2",
      "transactionHash": "0xda4feefbd73d6c164caf38e9a5a8c7f0a3a6ecbbb1f1044f931aca116f9da1c2",
      "transactionIndex": "0x0",
      "blockHash": "0x66a5c67ec4ddc080bf95ffc07bf07575be0dae1d21ed1dd514ce7fc9c3d4794e",
      "blockNumber": "0x1764859",
      "gasUsed": "0xc0c1",
      "effectiveGasPrice": "0x13bc02",
      "blobGasUsed": "0x0",
      "from": "0xe8d4b94f256f9522b30f8795c42e17fa135c1cbf",
      "to": "0xe3e1b5a56d11376d27c0eff3256e7299df197d5e",
      "contractAddress": null
    },
    {
      "status": "0x1",
      "cumulativeGasUsed": "0xb3f5",
      "logs": [],
      "logsBloom": "0x00000000000000000000000000000000000000000000000000000000000000000000000000000000000000000000000000000000000000000000000000000000000000000000000000000000000000000000000000000000000000000000000000000000000000000000000000000000000000000000000000000000000000000000000000000000000000000000000000000000000000000000000000000000000000000000000000000000000000000000000000000000000000000000000000000000000000000000000000000000000000000000000000000000000000000000000000000000000000000000000000000000000000000000000000000000",
      "type": "0x2",
      "transactionHash": "0x0ae65a3d2769585a44635d63566d3d987f569fc9f30f006914218d50badca84e",
      "transactionIndex": "0x0",
      "blockHash": "0xe084924d9c6cf62b88a9d664c5a013d3d464c2ba3bfa7194e6caf3a0048426d7",
      "blockNumber": "0x176485a",
      "gasUsed": "0xb3f5",
      "effectiveGasPrice": "0x13bc02",
      "blobGasUsed": "0x0",
      "from": "0xe8d4b94f256f9522b30f8795c42e17fa135c1cbf",
      "to": "0x016e6e63965988fa71a6d4650d74da245228001a",
      "contractAddress": null
    },
    {
      "status": "0x1",
      "cumulativeGasUsed": "0xc0c1",
      "logs": [],
      "logsBloom": "0x00000000000000000000000000000000000000000000000000000000000000000000000000000000000000000000000000000000000000000000000000000000000000000000000000000000000000000000000000000000000000000000000000000000000000000000000000000000000000000000000000000000000000000000000000000000000000000000000000000000000000000000000000000000000000000000000000000000000000000000000000000000000000000000000000000000000000000000000000000000000000000000000000000000000000000000000000000000000000000000000000000000000000000000000000000000",
      "type": "0x2",
      "transactionHash": "0xf3904e6082ca548227a920aad59e395436095f0c3fc80ad0c04fd4084694f621",
      "transactionIndex": "0x0",
      "blockHash": "0x29f9ef829d6cd013727a842396ef7effd79827babbde017430422405615f36e4",
      "blockNumber": "0x176485b",
      "gasUsed": "0xc0c1",
      "effectiveGasPrice": "0x13bc02",
      "blobGasUsed": "0x0",
      "from": "0xe8d4b94f256f9522b30f8795c42e17fa135c1cbf",
      "to": "0x016e6e63965988fa71a6d4650d74da245228001a",
      "contractAddress": null
    },
    {
      "status": "0x1",
      "cumulativeGasUsed": "0x10dc6",
      "logs": [],
      "logsBloom": "0x00000000000000000000000000000000000000000000000000000000000000000000000000000000000000000000000000000000000000000000000000000000000000000000000000000000000000000000000000000000000000000000000000000000000000000000000000000000000000000000000000000000000000000000000000000000000000000000000000000000000000000000000000000000000000000000000000000000000000000000000000000000000000000000000000000000000000000000000000000000000000000000000000000000000000000000000000000000000000000000000000000000000000000000000000000000",
      "type": "0x2",
      "transactionHash": "0x8bce43781f041d3236c0298a1239a70a36b2bb69220d4349fa5989d7d26508ec",
      "transactionIndex": "0x0",
      "blockHash": "0x027a6d7aa3777c22598a3cb21f3c244085458dcbf28bdf125280b3a13d5ac476",
      "blockNumber": "0x176485c",
      "gasUsed": "0x10dc6",
      "effectiveGasPrice": "0x13bc02",
      "blobGasUsed": "0x0",
      "from": "0xe8d4b94f256f9522b30f8795c42e17fa135c1cbf",
      "to": "0x8c20b0469fdbce27bdf894425115e07096c0ea9f",
      "contractAddress": null
    },
    {
      "status": "0x1",
      "cumulativeGasUsed": "0xb530",
      "logs": [],
      "logsBloom": "0x00000000000000000000000000000000000000000000000000000000000000000000000000000000000000000000000000000000000000000000000000000000000000000000000000000000000000000000000000000000000000000000000000000000000000000000000000000000000000000000000000000000000000000000000000000000000000000000000000000000000000000000000000000000000000000000000000000000000000000000000000000000000000000000000000000000000000000000000000000000000000000000000000000000000000000000000000000000000000000000000000000000000000000000000000000000",
      "type": "0x2",
      "transactionHash": "0x7abdb8298d3293b0528a6e6a82bb46c79d376227d91fcc4129aeb9c50b6d127c",
      "transactionIndex": "0x0",
      "blockHash": "0x9e07a7df998ea4e73f1a6ec677eefbecc7e1b845a56824fcca4d96d52fa62840",
      "blockNumber": "0x176485d",
      "gasUsed": "0xb530",
      "effectiveGasPrice": "0x13bc02",
      "blobGasUsed": "0x0",
      "from": "0xe8d4b94f256f9522b30f8795c42e17fa135c1cbf",
      "to": "0x8c20b0469fdbce27bdf894425115e07096c0ea9f",
      "contractAddress": null
    },
    {
      "status": "0x1",
      "cumulativeGasUsed": "0xb73c",
      "logs": [],
      "logsBloom": "0x00000000000000000000000000000000000000000000000000000000000000000000000000000000000000000000000000000000000000000000000000000000000000000000000000000000000000000000000000000000000000000000000000000000000000000000000000000000000000000000000000000000000000000000000000000000000000000000000000000000000000000000000000000000000000000000000000000000000000000000000000000000000000000000000000000000000000000000000000000000000000000000000000000000000000000000000000000000000000000000000000000000000000000000000000000000",
      "type": "0x2",
      "transactionHash": "0x8aecc0cbe223776fbe11ac703f643d298678fdf9afd652a91333d1f7ba4b3418",
      "transactionIndex": "0x0",
      "blockHash": "0x575b3241c3a67ad43296d2d6e509e27523d03f9d547210dfd50b8545fbe615ec",
      "blockNumber": "0x176485e",
      "gasUsed": "0xb73c",
      "effectiveGasPrice": "0x13bc02",
      "blobGasUsed": "0x0",
      "from": "0xe8d4b94f256f9522b30f8795c42e17fa135c1cbf",
      "to": "0x8c20b0469fdbce27bdf894425115e07096c0ea9f",
      "contractAddress": null
    },
    {
      "status": "0x1",
      "cumulativeGasUsed": "0xb73c",
      "logs": [],
      "logsBloom": "0x00000000000000000000000000000000000000000000000000000000000000000000000000000000000000000000000000000000000000000000000000000000000000000000000000000000000000000000000000000000000000000000000000000000000000000000000000000000000000000000000000000000000000000000000000000000000000000000000000000000000000000000000000000000000000000000000000000000000000000000000000000000000000000000000000000000000000000000000000000000000000000000000000000000000000000000000000000000000000000000000000000000000000000000000000000000",
      "type": "0x2",
      "transactionHash": "0x074eabc1d67828878d0de693ee43be08a860d1d9d35ee9e939ad56a69c4aaad2",
      "transactionIndex": "0x0",
      "blockHash": "0x5440368a66e471a2476812e13aa90b8e3339a700f3fab1ff8639d99a7106cc8e",
      "blockNumber": "0x176485f",
      "gasUsed": "0xb73c",
      "effectiveGasPrice": "0x13bc02",
      "blobGasUsed": "0x0",
      "from": "0xe8d4b94f256f9522b30f8795c42e17fa135c1cbf",
      "to": "0xe3e1b5a56d11376d27c0eff3256e7299df197d5e",
      "contractAddress": null
    },
    {
      "status": "0x1",
      "cumulativeGasUsed": "0x10dc6",
      "logs": [],
      "logsBloom": "0x00000000000000000000000000000000000000000000000000000000000000000000000000000000000000000000000000000000000000000000000000000000000000000000000000000000000000000000000000000000000000000000000000000000000000000000000000000000000000000000000000000000000000000000000000000000000000000000000000000000000000000000000000000000000000000000000000000000000000000000000000000000000000000000000000000000000000000000000000000000000000000000000000000000000000000000000000000000000000000000000000000000000000000000000000000000",
      "type": "0x2",
      "transactionHash": "0x888fafd2f31268873e30f649e5eaa4daf321a5478e8273056c691c90430f6c71",
      "transactionIndex": "0x0",
      "blockHash": "0xa863b0e6519817ccfba41f745f1d1c65973db98a04511f7227031deb487dfb31",
      "blockNumber": "0x1764860",
      "gasUsed": "0x10dc6",
      "effectiveGasPrice": "0x13bc02",
      "blobGasUsed": "0x0",
      "from": "0xe8d4b94f256f9522b30f8795c42e17fa135c1cbf",
      "to": "0xe3e1b5a56d11376d27c0eff3256e7299df197d5e",
      "contractAddress": null
    },
    {
      "status": "0x1",
      "cumulativeGasUsed": "0xb530",
      "logs": [],
      "logsBloom": "0x00000000000000000000000000000000000000000000000000000000000000000000000000000000000000000000000000000000000000000000000000000000000000000000000000000000000000000000000000000000000000000000000000000000000000000000000000000000000000000000000000000000000000000000000000000000000000000000000000000000000000000000000000000000000000000000000000000000000000000000000000000000000000000000000000000000000000000000000000000000000000000000000000000000000000000000000000000000000000000000000000000000000000000000000000000000",
      "type": "0x2",
      "transactionHash": "0x845dc521abeaf19f4d7cc4bc859972efaa4992a5e9c411e64f07ce8b10008be8",
      "transactionIndex": "0x0",
      "blockHash": "0x9d563bff407005ce8871170ce893c54a6d0a9bb056e075123a372ddb6fa01a2c",
      "blockNumber": "0x1764861",
      "gasUsed": "0xb530",
      "effectiveGasPrice": "0x13bc02",
      "blobGasUsed": "0x0",
      "from": "0xe8d4b94f256f9522b30f8795c42e17fa135c1cbf",
      "to": "0xe3e1b5a56d11376d27c0eff3256e7299df197d5e",
      "contractAddress": null
    },
    {
      "status": "0x1",
      "cumulativeGasUsed": "0x10dc6",
      "logs": [],
      "logsBloom": "0x00000000000000000000000000000000000000000000000000000000000000000000000000000000000000000000000000000000000000000000000000000000000000000000000000000000000000000000000000000000000000000000000000000000000000000000000000000000000000000000000000000000000000000000000000000000000000000000000000000000000000000000000000000000000000000000000000000000000000000000000000000000000000000000000000000000000000000000000000000000000000000000000000000000000000000000000000000000000000000000000000000000000000000000000000000000",
      "type": "0x2",
      "transactionHash": "0xf7992d494e1bfe847870b67020a4c524b5e781efbc47bd2104a9defab30b8634",
      "transactionIndex": "0x0",
      "blockHash": "0xfc82555643deb265d5c39a91de97cf46e9a81592a2528b7d058c161f38a45316",
      "blockNumber": "0x1764862",
      "gasUsed": "0x10dc6",
      "effectiveGasPrice": "0x13bc02",
      "blobGasUsed": "0x0",
      "from": "0xe8d4b94f256f9522b30f8795c42e17fa135c1cbf",
      "to": "0x016e6e63965988fa71a6d4650d74da245228001a",
      "contractAddress": null
    },
    {
      "status": "0x1",
      "cumulativeGasUsed": "0xb73c",
      "logs": [],
      "logsBloom": "0x00000000000000000000000000000000000000000000000000000000000000000000000000000000000000000000000000000000000000000000000000000000000000000000000000000000000000000000000000000000000000000000000000000000000000000000000000000000000000000000000000000000000000000000000000000000000000000000000000000000000000000000000000000000000000000000000000000000000000000000000000000000000000000000000000000000000000000000000000000000000000000000000000000000000000000000000000000000000000000000000000000000000000000000000000000000",
      "type": "0x2",
      "transactionHash": "0x98ed0ba39c8045d4ad8a0d53275417300011411f34cf71df8d7e73ac0c772526",
      "transactionIndex": "0x0",
      "blockHash": "0x8b1cd1852acdffa0e0d24b099d97d3413605b7b660f68b87f3ca02426b84ff49",
      "blockNumber": "0x1764863",
      "gasUsed": "0xb73c",
      "effectiveGasPrice": "0x13bc02",
      "blobGasUsed": "0x0",
      "from": "0xe8d4b94f256f9522b30f8795c42e17fa135c1cbf",
      "to": "0x016e6e63965988fa71a6d4650d74da245228001a",
      "contractAddress": null
    },
    {
      "status": "0x1",
      "cumulativeGasUsed": "0xb530",
      "logs": [],
      "logsBloom": "0x00000000000000000000000000000000000000000000000000000000000000000000000000000000000000000000000000000000000000000000000000000000000000000000000000000000000000000000000000000000000000000000000000000000000000000000000000000000000000000000000000000000000000000000000000000000000000000000000000000000000000000000000000000000000000000000000000000000000000000000000000000000000000000000000000000000000000000000000000000000000000000000000000000000000000000000000000000000000000000000000000000000000000000000000000000000",
      "type": "0x2",
      "transactionHash": "0x5e81712460ddbfefe79f551232be4980a30d67bf50d716f78751110e2e5a8f60",
      "transactionIndex": "0x0",
      "blockHash": "0xf4e16e1d2e535798c8566f4135932b72ff6db5e58121f846566c0be3368681d2",
      "blockNumber": "0x1764864",
      "gasUsed": "0xb530",
      "effectiveGasPrice": "0x13bc02",
      "blobGasUsed": "0x0",
      "from": "0xe8d4b94f256f9522b30f8795c42e17fa135c1cbf",
      "to": "0x016e6e63965988fa71a6d4650d74da245228001a",
      "contractAddress": null
    }
  ],
  "libraries": [],
  "pending": [],
  "returns": {},
  "timestamp": 1771962902,
  "chain": 657,
  "commit": "2e9afd2"
}